:100000000C94200E0C94510E0C94510E0C94510E25
:100010000C94510E0C94510E0C94510E0C94510EE4
:100020000C94510E0C94510E0C94510E0C94510ED4
:100030000C94510E0C94510E0C94510E0C94510EC4
:100040000C94510E0C94510E0C94510E0C94510EB4
:100050000C94510E0C94510E0C94510E0C94A61647
:100060000C94510E0C9431180C9408180C94510EE9
:100070000C94510E0C94510E0C94510E0C94510E84
:100080000C94510E0C94510E0C94510E0C94510E74
:100090000C94510E0C94510E0C94510E0C94510E64
:1000A0000C94510E0C94510E0C94510E0C94510E54
:1000B0000C94510E0C94510E0C94510E0C94510E44
:1000C0000C94510E0C94510E0C94510E0C94DF179D
:1000D0000C94B6170C94510E0C948D170C94641755
:1000E0000C94510E54119A117611711187115211FD
:1000F00090117518781867186B187118AF187C185C
:10010000801886188A188E18941898189C18AF189A
:10011000A218A618AA18FFE0FFD1AFFF32FFD0FF48
:10012000FEFFE0FFD1AEFFD0FFFEFFE0FFD11002E7
:10013000FFFEFFD0FFE0FFC1FFD1AED580A83FD3C7
:1001400000408D142002A1C8DA1281CFD9F1DB4022
:100150002EA4A6AFFFD0FFFE000B11FFFC0901C0CB
:10016000038820FFFC0DFC09FC00000004000001D6
:100170000909030100808080808080008080030264
:1001800002050107A0A005050507010050F850F879
:100190005005090907010070A8A0702828A8A870B8
:1001A0000509090701008890102020204048880791
:1001B0000909090100708888708888888A7401029A
:1001C000020301078080050909070100182040404B
:1001D0008040402018050909070100C020101008C0
:1001E000101020C005070707010120A8702070A883
:1001F000200505050701012020F820200202020445
:1002000001FF4080050101070103F801010103011D
:100210000080050909070100081010202020404037
:100220008005090906000070888888888888887099
:100230000509090600002060A02020202020F805E4
:1002400009090600007088880810204080F8050918
:100250000906000070880830080808887005090938
:10026000060000088888F808080808080509090633
:100270000000F88080F80808088870050909060061
:1002800000708880F0888888887005090906000059
:10029000F808102040404040400509090600007061
:1002A0008888708888888870050909060000708829
:1002B0008888780808887001040403010080000021
:1002C000800205050401FF40000040800509090780
:1002D000010008102040804020100805030307019A
:1002E00002F800F8050909070100804020100810F5
:1002F00020408005090907010070880810202000AF
:1003000020200908100B01007E0081009900A50043
:10031000A5009A0080807F0005090906000070880A
:1003200088F88888888888050909060000F0888888
:10033000F088888888F005090906000070888080A8
:100340008080808870050909060000F08888888808
:10035000888888F0050909060000F88080F0808010
:100360008080F8050909060000F88080F080808010
:100370008080050909060000708880B88888888810
:1003800070050909060000888888F88888888888A8
:1003900001090902000080808080808080808005C3
:1003A00009090600000808080808080888700509F7
:1003B00009060000888890A0C0A0908888050909D7
:1003C0000600008080808080808080F8070909080E
:1003D000000082C6AA9282828282820509090600F2
:1003E0000088C8A8988888888888050909060000B8
:1003F000708888888888888870050909060000F058
:100400008888F08080808080050909060000708857
:10041000888888A8A8A870050909060000F08888BF
:10042000F08888888888050909060000708880702F
:100430000808888870050909060000F82020202097
:1004400020202020050909060000888888888888DF
:100450008888700509090600008888885050505027
:100460002020070909080000828282545454282859
:1004700028050909060000888850202050888888AF
:10048000050909060000888850202020202020052A
:100490000909060000F808081020408080F80309C8
:1004A00009050100E080808080808080E0050707EA
:1004B00007010080404020101008030909050100D1
:1004C000E020202020202020E003020205010A4035
:1004D000A0060101080100FC02020204010A40809A
:1004E00005060606000070888888887805090906D0
:1004F0000000808080F088888888700506060600E5
:1005000000708880808870050909060000080808C6
:100510007888888888780506060600007088F88044
:100520008870050909060000304840E0404040401E
:1005300040050A0A0600FC708888888878080888C0
:1005400070050909060000808080B0C88888888806
:100550000109090200008080008080808080800284
:100560000D0D0300FC4040004040404040404040F2
:10057000408005090906000080808090A0C0A090FE
:10058000880109090200008080808080808080804E
:10059000070606080000B6DA929292920506060651
:1005A0000000B0C8888888880506060600007088A4
:1005B00088888870050A0A0600FC7088888888F098
:1005C00080808080060A0A0700FC788888888878FE
:1005D000081C0808040606050000B0C08080808062
:1005E0000506060600007080700888700409090579
:1005F0000000404040F040404040400506060600F4
:10060000008888888888700506060600008888505B
:10061000502020070606080000828254542828052E
:100620000606060000885020205088050A0A0600A9
:10063000FC8888888888780808887005060606007F
:10064000007888102040F80609090801000C1020E5
:1006500020C02020100C0109090301008080808047
:100660008080808080060909080100C02010100CDD
:10067000101020C005020206000AE8B8FFFFFFFFC5
:10068000FFFFFFFFFFFFFFFFFFFFFFFFFFFFFFFF7A
:10069000FFFFFFFFFFFFFFFFFFFFFFFFFFFF01095E
:1006A000090200008080008080808080800507072C
:1006B0000701002070A8A0A8702005090907010003
:1006C0008080F08080808888F80505050701018812
:1006D000705070880509090701008888502020F8AB
:1006E00020F82001090903010080808000000080BB
:1006F0008080060A0A08010078807884780404045F
:100700008478050101070103880707070901007CB8
:1007100082BAA2BA827C060808080100708888881C
:10072000887400FC05030307010248904805020293
:10073000070102F808000000080000070707090188
:10074000007C82BAA2A2827C050101060006F803A1
:10075000030305010240A040050707070100202010
:10076000F8202000F8FFFFFF000000080000FF0055
:100770000000080000FFFFFF050303070102904887
:1007800090FFFFFFFF050C0C060000402000708862
:1007900088F88888888888050C0C060000102000DE
:1007A000708888F88888888888050C0C06000020E6
:1007B0005000708888F88888888888050C0C0600A6
:1007C00000E8B800708888F88888888888050B0B4E
:1007D0000600005000708888F88888888888050D91
:1007E0000D06000020502000708888F888888888CE
:1007F000880909120A00007F8088008800FF0088AD
:10080000008800880088008F800509090600FE70B6
:100810008880808088702060050C0C0600004020D5
:1008200000F88080F080808080F8050C0C060000C5
:10083000102000F88080F080808080F8050C0C0685
:100840000000205000F88080F080808080F8050B48
:100850000B0600005000F88080F080808080F80255
:100860000C0C0200008040004040404040404040AE
:1008700040020C0C0200004080008080808080805C
:10088000808080030C0C02FF0040A00040404040EC
:100890004040404040030B0B02FF00A0004040409E
:1008A000404040404040050909060000F08888E8C3
:1008B00088888888F0050C0C060000E8B800888855
:1008C00088C8A898888888050C0C0600004020007D
:1008D000708888888888888870050C0C060000104D
:1008E0002000708888888888888870050C0C06002D
:1008F00000205000708888888888888870050C0CD3
:10090000060000E8B80070888888888888887005A4
:100910000B0B0600005000708888888888888870D3
:10092000030303060102A040A00709090800003ADA
:10093000444C5454546444B8050C0C060000402048
:1009400000888888888888888870050C0C060000D4
:10095000102000888888888888888870050C0C0694
:100960000000205000888888888888888870050B57
:100970000B06000050008888888888888888700561
:100980000C0C060000102000888850202020202019
:10099000200509090600008080F088F080808080B2
:1009A000050B0B0600FEF088B0888888B080808038
:1009B0008005090906000040200070888888887832
:1009C00005090906000010200070888888887805CD
:1009D0000909060000205000708888888878050979
:1009E00009060000E8B8007088888888780508083B
:1009F0000600005000708888888878050A0A06007A
:100A0000002050200070888888887809060C0A0029
:100A100000770088808F808800888077000508082C
:100A20000600FE708880808870204005060606005B
:100A3000007088F88088700506060600007088F847
:100A40008088700506060600007088F880887005AA
:100A500006060600007088F8808870020A0A030003
:100A60000080400000404040404040020A0A03002D
:100A70000040800000808080808080030A0A04009B
:100A80000040A000004040404040400309090400ED
:100A900000A0000040404040404005090906000019
:100AA000083808788888888878050909060000E8E9
:100AB000B800B0C888888888050909060000402069
:100AC00000708888888870050909060000102000D9
:100AD0007088888888700509090600002050007019
:100AE0008888888870050909060000E8B8007088C1
:100AF000888888700508080600005000708888887B
:100B000088700505050600012000F800200506068E
:100B10000600007098A8A8C87005090906000040E2
:100B20002000888888888870050909060000102040
:100B30000088888888887005090906000020500010
:100B40008888888888700508080600005000888812
:100B500088888870050D0D0600FC102000888888A4
:100B60008888780808887005060605000080F088E7
:100B7000F08080050C0C0600FC500088888888886E
:100B8000780808887000281EF7F60B025A055E20C8
:100B9000FFFC10FC0CFC000000050000020C0C0522
:100BA0000100C0C0C0C0C0C0C0000000C0C004057B
:100BB0000507020790909090900A0F1E0C01FD040B
:100BC000800480090009000900FFC0120012001211
:100BD00000FFC024002400240048004800050E0E39
:100BE0000801FF2070A8A8A8A0603028A8A8A870B5
:100BF000200B0D1A0E01FF604098809780910092A3
:100C0000006200040008C00920112021202120409A
:100C1000C00A0C180D01001800240024002400282C
:100C20000033C0310051008A008A00C4407B80013B
:100C300005050402078080808080040F0F0602FDF6
:100C400010204040808080808080804040201004C0
:100C50000F0F0601FD804020201010101010101002
:100C6000202040800707070700051092543854924F
:100C7000100909120B02FF0800080008000800FF15
:100C80008008000800080008000205050501FDC0F5
:100C9000C0404080040101070203F0020202050186
:100CA00000C0C00510100802FC0808101010102029
:100CB000202020404040408080050B0B0701007041
:100CC00050888888888888885070050B0B07010039
:100CD00020E02020202020202020F8050B0B0701F9
:100CE0000070888888081010204848F8050B0B070A
:100CF00001007088880808300808888870070B0B86
:100D00000901001818282848C8FE0808083E050BE5
:100D10000B07010088F08080F0C808088890600503
:100D20000B0B07010030484080F08888888850709D
:100D3000060C0C08010080FC848810101020202074
:100D40002020050B0B070100708888885070888868
:100D5000888870050B0B0701007050888888887898
:100D600008109060020707070300C0C0000000C021
:100D7000C0020A0A0501FDC0C0000000C0C040401A
:100D80008005090906010108102040804020100854
:100D90000A050A0D0202FFC0000000000000FFC0AB
:100DA0000509090601018040201008102040800537
:100DB0000C0C080100708888102020600000006082
:100DC000600A0C180C01001E0021004C809340A109
:100DD00040A140A140A14093404D8020C01F000B86
:100DE0000B160B0000040004000A000A000A0011A0
:100DF0000011001F0020802080F1E00A0B160A007D
:100E000000FF0020802040204020803F00208020E4
:100E10004020402080FF00090B160A01001E80219F
:100E20008040808080800080008000808040802121
:100E3000001E000A0B160A0000FE00218020802000
:100E400040204020402040204020802180FE000A99
:100E50000B160A0100FF8020802080228022003EA5
:100E6000002240224020802080FF80090B160901CB
:100E700000FF8020802080228022003E002200226D
:100E80000020002000F8000A0B160A01001E802135
:100E900080408080808000800083C08080408020EF
:100EA000801F800B0B160B0100FBE02080208020B0
:100EB0008020803F802080208020802080FBE005F3
:100EC0000B0B050100F8202020202020202020F8F6
:100ED000060B0B0601007C10101010101010109063
:100EE000E00B0B160B0100F9E0208021002200240A
:100EF000002E003200210021002080F9E0080B0BB9
:100F0000080000F8202020202021212123FF0E0BA3
:100F1000160E0100F03C3030303028502850289018
:100F20002490249023102310FB7C0B0B160B010044
:100F3000E3E0308030802880288024802280228056
:100F400021802180F8800A0B160A01001E00210072
:100F50004080804080408040804080404080210030
:100F60001E00090B16090100FF002180208020804F
:100F700021803F002000200020002000F8000A0E01
:100F80001C0A01FD1E0021004080804080408040FE
:100F9000804080405C8033001E00020002400180DF
:100FA0000B0B160B0100FE00210020802080210089
:100FB0003E002300210021002100F8E0060B0B0772
:100FC00001007C848480403008048484F8090B1676
:100FD000090100FF80888088808880080008000858
:100FE000000800080008003E000B0B160B0100FB78
:100FF000E020802080208020802080208020802091
:101000008011000E000B0B160B0100F1E020802078
:10101000801100110011000A000A000A00040004F7
:1010200000100B16100100F1CF21842184224412FC
:10103000481248124814280C300C3008100B0B16BC
:101040000B0100F3C0110012000A000C0004000A9A
:10105000001A0011002080F1E00B0B160B0100F1CB
:10106000E02080110011000A000E000400040004BA
:101070000004001F00070B0B070100FEC484880852
:101080001022224246FE0310100501FCE080808001
:101090008080808080808080808080E005101008C3
:1010A00002FC808040404040202020201010101082
:1010B00008080310100500FCE0202020202020203C
:1010C00020202020202020E00503030601092070B5
:1010D000880B01020C01FEFFE003040406030880F4
:1010E000C040200607070701007088087888887CC0
:1010F000060C0C070100C040404040784444444482
:101100004478050707060100708880808088700693
:101110000C0C070100180808080878888888888857
:101120007C0507070601007088F880808870050C30
:101130000C0601003848404040F04040404040E04C
:10114000070B0B0801FC3E44444478407C828282B9
:101150007C070C0C080100C04040404078444444E7
:101160004444EE030B0B040100C0C00000C040402B
:10117000404040E0040E0E0500FD3030000030100D
:1011800010101010101090E0070C0C080100C04067
:101190004040405E4850705848EE030C0C0401007B
:1011A000C040404040404040404040E00B070E0CF3
:1011B0000100FB8044404440444044404440EEE051
:1011C000070707080100F84444444444EE050707B4
:1011D00006010070888888888870060A0A0701FD61
:1011E000F84444444444784040E0060A0A0701FDBC
:1011F0007888888888887808081C05070706010011
:10120000D06840404040F00507070601007888801C
:10121000700888F0060A0A070100202020F8202024
:1012200020242418070707080100CC444444444400
:101230003E080707090100E72424241818180B07A3
:101240000E0B0000EEE024802A802A802A801B00FA
:101250001100080707090100E72418181824E708F7
:101260000A0A0801FDE72424241818181090E00544
:101270000707060100F89090204848F8051010066E
:1012800001FC18202020202020C020202020202009
:1012900020180110100302FC8080808080808080F4
:1012A00080808080808080800510100500FCC02038
:1012B00020202020201820202020202020C00503CE
:1012C0000308010948A890FFFFFFFFFFFFFFFFFF92
:1012D000FFFFFFFFFFFFFFFFFFFFFFFFFFFFFFFF1E
:1012E000FFFFFFFFFFFFFFFF000000050000020CF3
:1012F0000C0501FDC0C0000000C0C0C0C0C0C0C01F
:10130000050B0B0701FE101070A8A0A0A0C870402C
:1013100040080C0C09010006091110107C10101077
:1013200051B2CC070707090103827C4444447C8204
:101330000B0B160C0000F1E0208011000A007FC0AA
:101340000E0004007FC0040004001F000110100301
:1013500002FC80808080808080000080808080808F
:101360008080040D0D060100609080806090909058
:10137000601010906005020206010BD8D8090A140B
:101380000A01033E0041009E80A280A280A080A2AC
:10139000809C8041003E0004060605010760107035
:1013A0009070F007070709010012246CD86C241212
:1013B000060404080102FC040404030101050003FF
:1013C000E0090A140A01033E004100BC80928092A9
:1013D000809C809280BA8041003E00050101070197
:1013E0000BF80404040602086090906007090909DC
:1013F0000201101010FE10101000FE040707050176
:1014000006609010102040F0040707050106609068
:10141000102010906003040406030B206040800736
:101420000A0A0801FD8888888888DAA480808007F5
:101430000F0F0801FC3E74F4F4F474341414141403
:1014400014141414020202040205C0C003030307AB
:1014500002FD4020E003070704010640C040404071
:1014600040E00406060501076090909060F00707D1
:101470000708010090486C366C48900B0B160C0165
:10148000004000C400440044004440E8C009400A51
:10149000400BE0104010E00B0B160C01004000C4A4
:1014A00000440044004400E8C0092008200840101F
:1014B0008011E00C0B160D0100600092001200225A
:1014C000001220946064A0052005F0082008700533
:1014D0000C0C0801FD3030000000302020408088D6
:1014E000700B10200B000008000C0004000200002C
:1014F00000040004000A000A000A00110011001F85
:101500000020802080F1E00B10200B00000200067C
:1015100000040008000000040004000A000A000A99
:1015200000110011001F0020802080F1E00B0F1E31
:101530000B000004000E0011000000040004000A6B
:10154000000A000A00110011001F0020802080F115
:10155000E00B0F1E0B000009001500120000000434
:101560000004000A000A000A00110011001F0020F8
:10157000802080F1E00B0E1C0B00001B001B000004
:1015800000040004000A000A000A00110011001FF4
:101590000020802080F1E00B0F1E0B0000060009E8
:1015A0000009000600040004000A000A000A0011F5
:1015B0000011001F0020802080F1E00E0B160F00AC
:1015C000000FF80A180A080A2812201FE012241235
:1015D0002422082208F7F8090E1C0A01FD1E8021AA
:1015E000804080808080008000800080804080215A
:1015F000001E00080004001C000A10200B00001050
:10160000001800080004000000FF802080208022D5
:101610008022003E002240224020802080FF800A5D
:1016200010200B000004000C00080010000000FF58
:101630008020802080228022003E00224022402004
:10164000802080FF800A0F1E0B000008001C002273
:10165000000000FF8020802080228022003E0022A7
:1016600040224020802080FF800A0E1C0B000036A4
:101670000036000000FF8020802080228022003E73
:10168000002240224020802080FF800510100601AB
:10169000004060201000F820202020202020202062
:1016A000F80510100601001030204000F82020201E
:1016B000202020202020F8050F0F06010020708830
:1016C00000F8202020202020202020F8050E0E06E3
:1016D0000100D8D800F8202020202020202020F849
:1016E0000A0B160B0000FE002180208020402040C5
:1016F000F8402040204020802180FE000B0F1E0C6F
:1017000000000900150012000000E3E03080308086
:101710002880288024802280228021802180F880D7
:101720000A10200C0100100018000800040000003E
:101730001E002100408080408040804080408040EA
:10174000408021001E000A10200C0100020006004B
:101750000400080000001E002100408080408040FE
:10176000804080408040408021001E000A0F1E0CF7
:10177000010008001C00220000001E002100408023
:1017800080408040804080408040408021001E009A
:101790000A0F1E0C010012002A00240000001E0087
:1017A00021004080804080408040804080404080D8
:1017B00021001E000A0E1C0C01003600360000003D
:1017C0001E0021004080804080408040804080405A
:1017D000408021001E0007070709010082442810ED
:1017E0002844820A0D1A0C01FF00801F00210042CC
:1017F00080824084408C4088409040508021003E50
:101800000040000B10200C010008000C0004000236
:10181000000000FBE02080208020802080208020AD
:10182000802080208011000E000B10200C0100028F
:10183000000600040008000000FBE020802080205B
:10184000802080208020802080208011000E000BCE
:101850000F1E0C010004000E0011000000FBE02030
:101860008020802080208020802080208020801187
:10187000000E000B0E1C0C01001B001B000000FBE7
:10188000E0208020802080208020802080208020F8
:101890008011000E000B10200C0000020006000456
:1018A0000008000000F1E02080110011000A000E85
:1018B0000004000400040004001F00090B160A00C5
:1018C00000F80020003E00210020802080208021A0
:1018D000003E002000F800060C0C070100304848CC
:1018E0004848D84844444444D8060C0C07010040FA
:1018F000602010007088087888887C060C0C07012E
:101900000010302040007088087888887C060B0B17
:10191000070100207088007088087888887C060B92
:101920000B07010048A890007088087888887C061A
:101930000A0A070100D8D8007088087888887C06D1
:101940000B0B070100304848307088087888887C85
:101950000A070E0B010073808C400FC078008800CE
:101960008C407380050A0A0601FD7088808080889B
:1019700070201070050C0C060100406020100070F3
:1019800088F880808870050C0C060100103020401B
:10199000007088F880808870050B0B0601002070AD
:1019A00088007088F880808870050A0A060100D8CF
:1019B000D8007088F880808870040C0C04000080C7
:1019C000C040200060202020202070040C0C040166
:1019D000001030204000C04040404040E0050B0B6C
:1019E0000500002070880060202020202070050A5B
:1019F0000A060000D8D80060202020202070050CA6
:101A00000C0601005070E010107888888888887073
:101A1000070B0B08010048A89000F84444444444D4
:101A2000EE050C0C060100406020100070888888CC
:101A3000888870050C0C060100103020400070886A
:101A40008888888870050B0B06010020708800705C
:101A5000888888888870050B0B06010048A89000CC
:101A600070888888888870050A0A060100D8D8001E
:101A70007088888888887009070E0B0100080008A4
:101A8000000000FF80000008000800050B0B0601A5
:101A9000FE08107098A8A8A8C8704080070C0C0811
:101AA00001004060201000CC44444444443E070CF4
:101AB0000C0801000818102000CC44444444443E63
:101AC000070B0B08010010384400CC444444444444
:101AD0003E070A0A0801006C6C00CC4444444444AC
:101AE0003E080F0F0801FD040C081000E724242411
:101AF0001818181090E0060F0F0701FDC040404075
:101B000040784444444444784040E0080D0D0801C6
:101B1000FD363600E72424241818181090E0000041
:101B20002100240027002A002D003000330001018D
:101B30000000040107010A0100002200250028001E
:101B40002B002E00310034000201000005010801C5
:101B50000B01000020002300260029002C002F008C
:101B60003200000100000301060109010505050519
:101B7000070508080808020202020A0A0808040405
:101B80000404010101010101010103030303030333
:101B90000303040707070C0C0C0C0C0C0C0C0202C2
:101BA000020206060606060606060B0B0B0B0B0BBF
:101BB0000B0B01021020200808102040102040804C
:101BC0000201020108040201010204081020408001
:101BD000804020100804020180040201804020108F
:101BE00008040201080402010102040810204080D8
:101BF000010204081020408000000A0B02090C0DAD
:101C00000E080703040100000000000000000000AF
:101C100000000000000000000000000000000000C4
:101C20000000000012111000000000000000000081
:101C30000000000000000000000000000000A41EE2
:101C400011241FBECFEFD1E2DEBFCDBF00E00CBF3D
:101C50002BE0ACE9B4E001C01D92A336B207E1F776
:101C600014E0A0E0B2E0E6ECF7E400E00BBF02C055
:101C700007900D92AC39B107D9F71EE0C0E2DEE063
:101C800000E006C021970109802FFE010E94B021CB
:101C9000CF31D10780E00807A9F70E94B01B0C9450
:101CA000E1230C940000FC01918D828D981761F066
:101CB000828DDF01A80FB11D5D968C91928D9F5F83
:101CC0009F73928F90E008958FEF9FEF0895FC012E
:101CD000918D828D981731F0828DE80FF11D858DE1
:101CE00090E008958FEF9FEF0895FC01918D228D74
:101CF000892F90E0805C9F4F821B91098F739927F9
:101D0000089580E090E0892B19F083D781111BC0E2
:101D100080E090E0892B41F080E090E0892B21F079
:101D20000E940000811112C080E090E0892B19F020
:101D300067D781110EC080E090E0892B79F057D7EA
:101D400081110AC008950E940000E2CF0E940000A5
:101D5000EBCF0E940000EFCF0C940000089508958F
:101D6000DC011696ED91FC91179712968C91481B09
:101D7000477081E090E001C0880F4A95EAF7E60FCE
:101D8000F11D3081222311F0832B02C08095832323
:101D900080830895FB014181DC0112962C911297FA
:101DA000421760F013962C911397241738F0608136
:101DB00015962C91621710F42481D2CF0895FC015E
:101DC00030819281930F92832181921760F49481E4
:101DD0009F5F94838381830F821710F08FEF820FB0
:101DE000838381E0089580E00895FC011282808160
:101DF000815083831482089580E008950B96FC013E
:101E0000849108950A96FC0184910895FC018491BF
:101E10000895FCDF882321F0823011F083E00895DB
:101E200086E00895FC01E60FF11D849190E0982F63
:101E300088273196E4918E0F911D089568E0F2CFC6
:101E400066E0F0CF2EE93FE0009729F0F9013197E5
:101E5000F1F70197F9CF08955091B2086091B10858
:101E60004091B0083091AF08A091AD08B091AE0894
:101E7000E091AB08F091AC089FB79093AA08F89452
:101E800098E02C9187FF02C0252B01C026232C93BC
:101E90002081242B2083880F2081232320839150AD
:101EA00081F78091AA088FBF089590E0FC01E45962
:101EB000F44EE491F0E0EE0FFF1FE85CF44E259144
:101EC00034913093AE082093AD0870E0FB01E459E3
:101ED000F44EE491F0E0EE0FFF1FE85CF44E259124
:101EE00034913093AC082093AB08FC01EE54F44ECF
:101EF00084918093B208FB01EE54F44E6491609398
:101F0000B00860956093AF0880958093B1080895FC
:101F1000DB011496ED91FC91159720E030E065E02F
:101F20001994CF92DF92EF92FF920F931F93CF936A
:101F3000DF938C017B016A0180E0F601C49181117D
:101F40000AC0CF3F09F454C04C2FB701C801E0DFED
:101F500081114CC052C0CF3F11F44FEFF6CFCE3FAE
:101F600009F44DC0C03F08F041C0C03E58F04C2FAE
:101F70004F70D7011496ED91FC91159720E030E059
:101F800062E00CC0C03D68F04C2F4F70D701149632
:101F9000ED91FC91159720E030E063E0C8011995C0
:101FA00025C0C03CF0F0D7011496ED91FC91159737
:101FB00020E030E040E064E0C8011995C295C07FA0
:101FC000CE5FD0E0CE013EDFD7011496ED91FC91BB
:101FD000159720E030E041E064E0C8011995CE019A
:101FE00004C0C7FD03C08C2F90E02CDF80E001C04F
:101FF00081E0BFEFCB1ADB0AA0CF80E001C081E017
:10200000DF91CF911F910F91FF90EF90DF90CF90D4
:102010000895AF92BF92CF92DF92FF920F931F93DA
:10202000CF93DF936C018B01F42EE90120E142177D
:1020300009F453C0241798F03AE0431357C0DB016A
:102040001496ED91FC91159720E030E042E061E0BC
:10205000199542E351E0B801C60163DF47C081E151
:10206000481709F43DC0A5E14A1340C0FB01A28016
:10207000B3804AE251E0C60154DFD50114964C9179
:10208000406BB801C60144DFD8011496ED91FC9174
:10209000159720E030E041E062E0C6011995F501B6
:1020A00026813781D8011496ED91FC911597D501C1
:1020B00015964C9166E0C6011995811102C080E029
:1020C000C2C0D8011496ED91FC91159720E030E044
:1020D00040E063E0C601199509C041E251E002C049
:1020E00046E151E0B801C6011CDFACC0F801028135
:1020F0001381F2E3FF1609F46FC0FF15B8F025E174
:10210000F21609F474C037E1F31609F485C084E1CE
:10211000F81298C0D8011696ED91FC911797159674
:102120008C919F01280F311DC9015AC0A6E4FA16EF
:1021300009F481C0B7E4FB1609F480C0EBE3FE129A
:1021400081C089819B81913029F0933031F4482FEF
:10215000885004C048E0480F01C0482F51E0D80122
:1021600013962C91281708F450E031E0F8012281F1
:10217000421708F430E021E0481708F020E0822FF1
:10218000852B382319F4252309F45CC0CA809130CB
:1021900061F038F0923061F0933071F4FF24FA94DA
:1021A0000CC0F12CDD24D39409C0FF24F39405C0A6
:1021B000F12CDD24DA9402C0F12CD12CC7FE03C02F
:1021C000BE01C801E7DD88818D0D888389818F0D6F
:1021D0008983CC0C99F736C0BE01C801DBDD32C063
:1021E00011928E179F07E1F7C801FFDD2BC0C801D0
:1021F000E6DD882309F463CFD8011696ED91FC91B2
:10220000179715968C919F01280F311DC9011192C6
:102210008E179F07E1F716C01882D80112968C918D
:102220001297898315968C91159781508A831396FE
:102230008C918B8307C0F801858103C0D80111966A
:102240008C91888381E0DF91CF911F910F91FF9056
:10225000DF90CF90BF90AF900895089580E090E018
:102260000895860F911DFC0183A18F3F19F0642F03
:102270000C940E1B0895EF92FF920F931F93CF9330
:10228000DF93EC01142F7901862F90E0FC01319748
:10229000E730F10508F051C08827EE58FF4F8F4F07
:1022A0000C94B021E90136C07E018E01035F1F4FFF
:1022B000F70183A18F3F41F061E00E943C1B61E088
:1022C000F70183A10E940E1BFFEFEF1AFF0A0E1504
:1022D0001F0571F740E064E0CE01C3DF40E065E038
:1022E00010C08BA18F3F49F160E025C0411103C0B0
:1022F00041E062E020C040E064E0CE01B2DF40E0B7
:1023000062E0CE01AEDF6FA188A5CFDD16C0842FBD
:10231000A3DD13C0112389F089919EDD1150FACFFE
:10232000112359F0F701849197DDFFEFEF1AFF0AAF
:102330001150F6CF61E0CE0194DF81E0DF91CF91C3
:102340001F910F91FF90EF900895FC01848DDF01A4
:10235000A80FB11DA35ABF4F2C91848D90E0019618
:102360008F739927848FA689B7892C93A089B18907
:102370008C91837080648C93938D848D981306C0A8
:102380000288F389E02D80818F7D80830895DB01B1
:10239000ED91FC9119945F926F927F928F929F9230
:1023A000AF92BF92CF92DF92EF92FF920F931F9363
:1023B000CF93DF93EC01E62EF42EC22E0C811D810B
:1023C000C80124DDD82E8C819D8123DD982E21E04B
:1023D000D21203C02FE0A22E02C0AA24AA948C819C
:1023E0009D8110DDD82E8C819D8108DDB82E8C81D9
:1023F0009D8124DDE0E6EC1538F4009729F0080F04
:10240000191F91E6D92E0FC08C819D8119DDF0E452
:10241000FC1538F4009729F0080F191F81E4D82E15
:1024200002C00F5E1F4FBC1430F4188A1B8A1C8A2E
:10243000198A1A8A75C0BD14C0F3892D90E0F8017D
:1024400024912F3F19F40F5F1F4F3FC0CD1034C0B0
:102450008C819D81DBDC98012F5F3F4FF801882341
:1024600011F0823091F484918B8BF90124912C8BA3
:10247000F8013396E491E88BF8013496E491E98B06
:10248000F8013596E491EA8B25C08491982F9F70CE
:1024900092509A8B82958F70898BF9012491822FAB
:1024A0008F708C8B22952F702B8BF8013296E491D4
:1024B000E295EF70E88B0EC0F8013296E491EA21C4
:1024C0009C012E0F311D020F131FBD1409F4ADCF57
:1024D000D394B5CF0115110519F18C819D8199DC3B
:1024E0002C899A89920FF91A9FEF920F9F0D3CA9A0
:1024F0004EA94F1518F0931728F402C0931770F0E7
:102500009F1560F43B899989E90E9FEF930F9E0D0B
:102510004BA95DA95E1530F4941730F4888933C057
:1025200080E031C0941710F49E15C0F7080F111DFC
:10253000395F732E769476947694622E6F0C5E01DA
:10254000FCE1AF0EB11C872C912C6F1439F35E2C7B
:1025500068018C2D801B871590F4F60184916A81A7
:102560007B815C8EFD8E1F8E8E8F95014BE3CE019D
:102570000EDFFFEFCF1ADF0A28E0520EEACF080D78
:10258000191DF394E2CFDF91CF911F910F91FF902E
:10259000EF90DF90CF90BF90AF909F908F907F9003
:1025A0006F905F900895DF92EF92FF920F931F93C9
:1025B000CF93DF93EC01D62E1CAD0BAD7C0184E0F4
:1025C000E80EF11CE98DFA8DC7011995412F480FCE
:1025D0002D2D602FC701DFDE9BAD890F8BAF81E012
:1025E00090E0DF91CF911F910F91FF90EF90DF90DE
:1025F000089580910002813039F0823041F08111DC
:1026000009C089E790E005C082E790E002C087E654
:1026100090E0BFD783E590E0BCC7CF9331D7CBE440
:1026200088E591E0E0D645E352E06FE08AE036D6F7
:1026300047E452E06EE18EE131D6C093DC0A8EE1D0
:102640008093DD0A40919E0450919F04052E000C5A
:10265000660B770B81EA9AE049D64DE452E06DE2D1
:102660008EE11CD6C093DC0A8DE28093DD0A409196
:102670009C0450919D04052E000C660B770B81EA9B
:102680009AE034D643E552E06CE380E007D6CED53D
:102690008111C6CFCF9108956115710579F0FB01C5
:1026A00001900020E9F73197AF01461B570BDC0181
:1026B000ED91FC910280F381E02D199480E090E08F
:1026C00008958F929F92AF92BF92CF92DF92EF9236
:1026D000FF921F93CF93DF9300D000D0CDB7DEB72A
:1026E0008AEC98E002DB181619060CF0F0C13AD219
:1026F0006093BB087093BC088093BD089093BE089C
:102700008AEC98E0D0DA9093A9088093A8082091E9
:10271000B7083091B808A9014F5F5F4F5093B808D0
:102720004093B708F901E855FB4F80832091A80436
:102730002337A9F42091A904233719F0413051051A
:1027400071F41092BA081092B9080CD26093A404E4
:102750007093A5048093A6049093A704E4C18837DE
:10276000910581F4FFD16093A4047093A504809334
:10277000A6049093A70482E090E09093BA08809317
:10278000B908A5C10A9709F0A2C1ECD16093A404CD
:102790007093A5048093A6049093A70481E090E031
:1027A0009093BA088093B90867E672E084E09AE0F3
:1027B00073DFAAEAB4E020E030E06AE0FD01E85A05
:1027C000F4408D91629FA001639F500D1124082E4B
:1027D000000C990BC0979A01280F391F8C918053D8
:1027E0008A3060F33093A3042093A2046091B70869
:1027F0007091B808E655FB4F20E030E01AE041E068
:1028000050E0485A54408191129FD001139FB00D5F
:102810001124082E000C990BC0979D01280F391F19
:10282000CA018E0F9F1F861797076CF33093A10480
:102830002093A00468E772E084E09AE02DDF8AEC40
:1028400098E03ED2E091DC08F091DD0880818F7E37
:102850008083E091DC08F091DD088081877F8083B0
:10286000E091DC08F091DD0880818F778083E09132
:10287000DC08F091DD0880818F7D80838091E40801
:102880008093E308C090A004D090A1040D2C000C0C
:10289000EE08FF08C701B6010E94F61F23E938E1E0
:1028A00044E35FEB0E94312027ED33EA48E650E431
:1028B0000E94E52020E030E040EB52E40E94E62058
:1028C00020E030E04CE852E40E94E62020E030E0D6
:1028D00048E453E40E94E6204B015C016091B50896
:1028E0007091B608072E000C880B990B0E94F61FFA
:1028F0009B01AC01C501B4010E94E6200E944A215F
:1029000070939F0460939E046091A2047091A3044D
:10291000072E000C880B990B0E94F61F2BE531EB5C
:102920004FE35FEB0E94312029E831E446E451E4B3
:102930000E94E62020E030E047ED52E40E94E620CD
:1029400020E030E040E751E40E94E62020E030E063
:10295000A9010E94E6204B015C016091B3087091CF
:10296000B408072E000C880B990B0E94F61F9B01E0
:10297000AC01C501B4010E94E6200E944A21709377
:102980009D0460939C04B701A60184E09AE0AED454
:102990006EE673E084E09AE07FDE4091A2045091FD
:1029A000A304052E000C660B770B84E09AE09ED4FE
:1029B0006EE673E084E09AE06FDE2FDE1A82198201
:1029C0001C821B821E821D8264E070E0CE01019693
:1029D00007D229813A8181110DC02115310519F0E5
:1029E000C9010E9464221A8219821E821D821C82E1
:1029F0001B8209C084E090E09E838D836EE772E0C5
:102A0000C9010E94DA2360919E0470919F04CE0157
:102A100001960DD263E872E0CE0101968AD56091ED
:102A20009C0470919D04CE01019601D266E872E08B
:102A3000CE0101967ED54D815E8169817A8187E6DE
:102A400099E09CD04D815E8169817A8184E09AE031
:102A500095D064E972E087E699E01EDE63EA72E0F1
:102A600087E699E019DE6DEA72E087E699E014DE08
:102A700064EF71E080E090E03BD66DEB72E087E6BA
:102A800099E00ADE6BEC72E087E699E005DE6AED1C
:102A900072E087E699E000DE64EE72E087E699E096
:102AA000FBDD63EF72E087E699E0F6DD60E177E257
:102AB00080E090E01DD61092B8081092B7081092EE
:102AC000BF0889819A810E94642281E02DC04AD08A
:102AD000C090A404D090A504E090A604F090A704B0
:102AE000DC01CB018C199D09AE09BF09893B9B40D4
:102AF000A105B105C0F08091B9089091BA0803977B
:102B000091F41092B8081092B7082CD06093A404E6
:102B10007093A5048093A6049093A70461E073E0EA
:102B200084E09AE0B9DD80E026960FB6F894DEBF27
:102B30000FBECDBFDF91CF911F91FF90EF90DF903F
:102B4000CF90BF90AF909F908F90089562E08FE2FA
:102B500093D562E081E390D562E08CE08DD562E0B0
:102B60008BE08AC52FB7F8946091C2087091C308B2
:102B70008091C4089091C5082FBF0895CF92DF922D
:102B8000EF92FF920F931F93CF93DF936C017A0123
:102B90008B01C0E0D0E0CE15DF0581F0D8016D914A
:102BA0008D01D601ED91FC910190F081E02DC601DF
:102BB0001995892B11F02196EECF7E01C701DF9187
:102BC000CF911F910F91FF90EF90DF90CF900895DC
:102BD000FC01538D448D252F30E0842F90E0821B23
:102BE000930B541710F0CF960895019708958AEC2F
:102BF00098E07BD821E0892B09F420E0822F08950A
:102C000087E699E072D821E0892B09F420E0822F31
:102C1000089584E09AE069D821E0892B09F420E046
:102C2000822F08950E94CD23EF92FF920F931F935E
:102C3000CF93DF93EC0181E0888F9B8D8C8D98136F
:102C400005C0E889F989808185FD25C0F62E0B8DA8
:102C500010E00F5F1F4F0F731127E02E8C8DE812CD
:102C60000BC00FB607FCFACFE889F989808185FF90
:102C7000F5CFCE016ADBF2CF8B8DFE01E80FF11D9F
:102C8000E35AFF4FF0829FB7F8940B8FEA89FB89D4
:102C9000808180620AC09FB7F894EE89FF896083C3
:102CA000E889F98980818370806480839FBF81E097
:102CB00090E0DF91CF911F910F91FF90EF900895D9
:102CC000CF93DF93EC01888D8823C1F0EA89FB89DB
:102CD000808185FD05C0A889B9898C9186FD0EC0CB
:102CE0000FB607FCF5CF808185FFF2CFA889B9899F
:102CF0008C9185FFEDCFCE0128DBE8CFDF91CF911E
:102D000008953FB7F8948091C6089091C708A091A4
:102D1000C808B091C90826B5A89B05C02F3F19F077
:102D20000196A11DB11D3FBFBA2FA92F982F88274B
:102D3000820F911DA11DB11DBC01CD0142E0660FA6
:102D4000771F881F991F4A95D1F708951F920F92F8
:102D50000FB60F9211242F933F938F939F93AF93AE
:102D6000BF938091C2089091C308A091C408B0910C
:102D7000C5083091C10823E0230F2D3720F40196B8
:102D8000A11DB11D05C026E8230F0296A11DB11D8E
:102D90002093C1088093C2089093C308A093C408ED
:102DA000B093C5088091C6089091C708A091C80843
:102DB000B091C9080196A11DB11D8093C6089093DA
:102DC000C708A093C808B093C908BF91AF919F915D
:102DD0008F913F912F910F900FBE0F901F901895DC
:102DE0000F931F93CF93DF93EC0188819981009714
:102DF00029F02A813B812617370788F48B016F5F02
:102E00007F4F0E94ED22009761F0998388831B8396
:102E10000A832C813D81232B11F4FC01108281E077
:102E200001C080E0DF91CF911F910F910895CF9263
:102E3000DF92EF92FF920F931F93CF93DF93CDB763
:102E4000DEB728970FB6F894DEBF0FBECDBF8C015A
:102E5000CB014AE09E012F5F3F4F7901B9010E94EB
:102E6000C11FF70101900020E9F73197EE19FF0922
:102E7000D9F0D8011496CD90DC901597CE0EDF1EB8
:102E8000B601C801ADDF882381F0F80120813181CE
:102E900084819581B701820F931F0E94DA23D801A4
:102EA0001596DC92CE92149781E028960FB6F8948E
:102EB000DEBF0FBECDBFDF91CF911F910F91FF906D
:102EC000EF90DF90CF9008951F920F920FB60F9260
:102ED00011240BB60F922F933F934F935F936F93F1
:102EE0007F938F939F93AF93BF93EF93FF938AEC5E
:102EF00098E02BDAFF91EF91BF91AF919F918F9165
:102F00007F916F915F914F913F912F910F900BBEE9
:102F10000F900FBE0F901F9018951F920F920FB633
:102F20000F9211240BB60F922F933F934F935F9301
:102F30006F937F938F939F93AF93BF93EF93FF9381
:102F40008AEC98E02AD3FF91EF91BF91AF919F91C6
:102F50008F917F916F915F914F913F912F910F9042
:102F60000BBE0F900FBE0F901F9018951F920F92DF
:102F70000FB60F9211240BB60F922F933F934F93DE
:102F80005F936F937F938F939F93AF93BF93EF93D1
:102F9000FF9387E699E0D9D9FF91EF91BF91AF9167
:102FA0009F918F917F916F915F914F913F912F9161
:102FB0000F900BBE0F900FBE0F901F9018951F9291
:102FC0000F920FB60F9211240BB60F922F933F93CF
:102FD0004F935F936F937F938F939F93AF93BF9321
:102FE000EF93FF9387E699E0D8D2FF91EF91BF91DD
:102FF000AF919F918F917F916F915F914F913F9191
:103000002F910F900BBE0F900FBE0F901F90189531
:103010001F920F920FB60F9211240BB60F922F939F
:103020003F934F935F936F937F938F939F93AF9350
:10303000BF93EF93FF9384E09AE087D9FF91EF91DC
:10304000BF91AF919F918F917F916F915F914F91C0
:103050003F912F910F900BBE0F900FBE0F901F90BE
:1030600018951F920F920FB60F9211240BB60F9264
:103070002F933F934F935F936F937F938F939F9380
:10308000AF93BF93EF93FF9384E09AE086D2FF91D2
:10309000EF91BF91AF919F918F917F916F915F91D0
:1030A0004F913F912F910F900BBE0F900FBE0F903D
:1030B0001F90189590E0FC013197E231F10508F07E
:1030C0004EC08827E758FF4F8F4F0C94B021809156
:1030D00080008F7703C0809180008F7D8093800077
:1030E000089580918000877FF9CF84B58F7702C0E3
:1030F00084B58F7D84BD08958091B0008F7703C023
:103100008091B0008F7D8093B000089580919000F1
:103110008F7707C0809190008F7D03C080919000D1
:10312000877F8093900008958091A0008F7707C0DB
:103130008091A0008F7D03C08091A000877F809345
:10314000A0000895809120018F7707C08091200111
:103150008F7D03C080912001877F80932001089597
:103160000F931F93CF93DF931F92CDB7DEB70091DC
:10317000A70A1091A80AE091D60AF091D70A82E036
:10318000199520E030E04AE0B80185EA9AE0FFD8DE
:10319000182FE091D60AF091D70A83E01995E091B3
:1031A000D60AF091D70A80E019951123A1F1609118
:1031B000A70A7091A80A9E012F5F3F4F46E485EA57
:1031C0009AE0E5D889818093A50A6091A70A709159
:1031D000A80A9E012F5F3F4F47E485EA9AE0D7D8BF
:1031E00089818093A60A6091A70A7091A80A20E0BD
:1031F00030E048E485EA9AE0CAD88093B00A60914A
:10320000A70A7091A80A28ED3AE047E185EA9AE01A
:10321000BED881E001C080E00F90DF91CF911F9177
:103220000F910895BC0184E09AE036CA0F931F9372
:10323000CF93E091B30AF091B40A309719F085EA80
:103240009AE019950091A70A1091A80AE091D60A70
:10325000F091D70A82E01995E091D60AF091D70A49
:1032600081E0199520E030E045E1B80185EA9AE077
:103270008ED8C82F882339F028ED3AE047E1B8010D
:1032800085EA9AE084D8E091D60AF091D70A80E0E6
:1032900019958C2FCF911F910F910895EF92FF9266
:1032A0000F931F93CF93DF93F82E062FE42E152F45
:1032B000E091BA0AF091BB0A85EA9AE01995080FE5
:1032C000CE2DD12F10E02991222341F0402F6F2DD8
:1032D00085EA9AE060D8F80E180FF5CF812FDF91BC
:1032E000CF911F910F91FF90EF9008954F925F92B1
:1032F0006F927F928F929F92AF92BF92CF92DF9206
:10330000EF92FF920F931F93CF93DF93CDB7DEB76A
:10331000A1970FB6F894DEBF0FBECDBF8C016A0136
:103320007B0177FF2DC0DC01ED91FC910190F081D4
:10333000E02D6DE219955C0122273327A9012C1994
:103340003D094E095F0919A2FE01B1967F019AE07D
:10335000492E512C612C712CCA01B901A301920193
:10336000DDD7605DD7016E937D01211531054105E3
:10337000510591F7BD01C8018FD98A0D9B1D1CC055
:103380009A01AB0119A2FE01B1967F018AE0882E55
:10339000912CA12CB12CCA01B901A5019401BED771
:1033A000605DD7016E937D01211531054105510501
:1033B00091F7BD01C80170D9A1960FB6F894DEBF90
:1033C0000FBECDBFDF91CF911F910F91FF90EF9076
:1033D000DF90CF90BF90AF909F908F907F906F9035
:1033E0005F904F9008952091A90A3091AA0A28175A
:1033F000390709F444C09093AA0A8093A90A009758
:1034000009F437C02091BC0AFC01211107C0359690
:10341000E491E093BD0AFC013C960FC0213039F4E1
:103420003F96E491E093BD0AFC01709606C03D967C
:10343000E491E093BD0AFC013E9684918093BE0A1C
:103440008091BD0A082E000C990B2091BE0A821BA8
:10345000910927FD93952091BF0A203441F0829F66
:10346000C001112426E0969587952A95E1F780936F
:10347000C00A8CEF9EE09093BB0A8093BA0A08952D
:10348000CF93DF938091DE0A811104C081E08093A5
:10349000DE0A66DEC091A70AD091A80AE091D60A9A
:1034A000F091D70A82E01995E091D60AF091D70AF7
:1034B00081E0199520E030E044E1BE0185EA9AE020
:1034C0000E94C71128ED3AE047E1BE0185EA9AE083
:1034D0000E94C711E091D60AF091D70A80E0DF91EF
:1034E000CF911994FC01A089B18982E08C93A485C5
:1034F000B5851C92A685B78580E18C93108EA48932
:10350000B58986E08C93A289B3898C9180618C9374
:10351000A289B3898C9188608C93A289B3898C919C
:1035200080688C930288F389E02D80818F7D808371
:103530000895EF92FF920F931F93CF93DF9361153E
:10354000710511F480E01EC0FB0101900020E9F735
:103550003197E61BF70BA9F07B01EC010C811D8173
:103560000E0F1F1FB8013CDC882361F328813981CD
:103570008C819D81B701820F931F0E94DA231D83E6
:103580000C8381E0DF91CF911F910F91FF90EF901D
:103590000895682F8AEC98E047CBFC01A089B18997
:1035A0008C91A689B78982FD0FC09C91818D8F5F18
:1035B0008F73228D821749F0218DDF01A20FB11D7B
:1035C0005D969C93818F08958C910895CF93DF939E
:1035D000282F30E0F901E850F44E8491F901EE54BF
:1035E000F44ED491F901E459F44EC491CC2389F0FE
:1035F000811160DDEC2FF0E0EE0FFF1FEE5AF44E6C
:10360000A591B491EC91ED2381E090E021F480E06C
:1036100002C080E090E0DF91CF9108951F93CF9397
:10362000DF93282F30E0F901E850F44E8491F9013E
:10363000EE54F44ED491F901E459F44EC491CC23E4
:10364000B9F0162F811136DDEC2FF0E0EE0FFF1FE1
:10365000E85CF44EA591B4919FB7F894111104C0A1
:103660008C91D095D82302C0EC91DE2BDC939FBFC8
:10367000DF91CF911F910895CF93DF9390E0FC01EC
:10368000EE54F44E2491FC01E459F44E84918823C5
:1036900061F190E0880F991FFC01E25EF44EC59144
:1036A000D491FC01E85CF44EA591B491611109C07C
:1036B0009FB7F8948881209582238883EC912E23EC
:1036C0000BC0623061F49FB7F8948881322F309537
:1036D00083238883EC912E2B2C939FBF06C08FB73A
:1036E000F894E8812E2B28838FBFDF91CF91089526
:1036F0008F929F92AF92BF92CF92DF92EF92FF9202
:103700006B017C01FEDA4B015C01C114D104E104C0
:10371000F104E9F0F6DADC01CB0188199909AA096C
:10372000BB09883E9340A105B10578F321E0C21A98
:10373000D108E108F10888EE880E83E0981EA11CEC
:10374000B11CC114D104E104F10421F7DECFFF90D4
:10375000EF90DF90CF90BF90AF909F908F900895A3
:10376000789484B5826084BD84B5816084BD85B55C
:10377000826085BD85B5816085BD80916E00816068
:1037800080936E001092810080918100826080930E
:103790008100809181008160809381008091800010
:1037A0008160809380008091B10084608093B1003B
:1037B0008091B00081608093B00080919100826020
:1037C000809391008091910081608093910080911D
:1037D00090008160809390008091A100826080932E
:1037E000A1008091A10081608093A1008091A00040
:1037F00081608093A00080912101826080932101EB
:10380000809121018160809321018091200181605C
:103810008093200180917A00846080937A00809167
:103820007A00826080937A0080917A008160809330
:103830007A0080917A00806880937A001092C100AB
:1038400085D961E082E018DF61E082E0E7DE61E0D7
:103850008BE212DF61E08BE2E1DE62E081E20CDF0D
:1038600062E089E209DF62E080E206DF62E085E291
:1038700003DF62E088E200DF69D984E09AE032DEAB
:1038800087E699E02FDE8AEC98E02CDE6BE073E0AF
:1038900087E699E00E944C13F3DD85E89BE0A3DD09
:1038A00043E253E064E18EE1F9DC4FE253E068E289
:1038B00084E1F4DC4EE353E06CE383E2EFDCB6DC5E
:1038C0008111EBCF8FE282DE0197E1F360E082E0CD
:1038D000A5DE67E473E084E09AE00E944C1362E5A1
:1038E00073E087E699E00E944C1362E573E087E697
:1038F00099E00E944C136CE573E087E699E00E9422
:103900004C1360E971E080E090E0F2DE02E010E04C
:10391000C1E082E0B82EDFE592EBE92E95E1F92EC9
:1039200023E0C22ED12C8FE251DE892BA1F46AE074
:1039300070E080E090E0DCDE8FE248DE892B59F415
:103940008FE244DE892BE1F386E693E06BDCC093E3
:103950000002C093C00881E339DE892BA1F46AE03C
:1039600070E080E090E0C4DE81E330DE892B59F422
:1039700081E32CDE892BE1F381E793E053DCB09205
:103980000002C093C0088CE021DE892BA1F46AE01C
:1039900070E080E090E0ACDE8CE018DE892B59F41A
:1039A0008CE014DE892BE1F38CE793E03BDC109292
:1039B0000002C093C0088BE009DE892BD9F46AE0CD
:1039C00070E080E090E094DE8BE000DE892B91F4E3
:1039D0008BE0FCDD892BE1F387E893E023DC109298
:1039E000C008809101029091020201969093020218
:1039F000809301028091C0088111EBC020910102E7
:103A000090910202822FB80176D40197E1F438DD5B
:103A100088E591E0E8DC41E953E06FE080E03EDCDE
:103A200041EA53E06EE180E039DC43EB53E06DE2C4
:103A300080E034DC46EC53E06CE380E02FDCF6DB26
:103A40008111E6CF70CF20FD6ECF81E2BFDD892BE3
:103A5000C9F46AE070E080E090E04ADE81E2B6DD21
:103A6000892B81F481E2B2DD892BE1F389ED93E0CA
:103A7000D9DB8091B5089091B60805979093B60868
:103A80008093B50889E2A2DD892BC9F46AE070E071
:103A900080E090E02DDE89E299DD892B81F489E2D6
:103AA00095DD892BE1F387EE93E0BCDB8091B508CF
:103AB0009091B60805969093B6088093B50880E279
:103AC00085DD892BC9F46AE070E080E090E010DECB
:103AD00080E27CDD892B81F480E278DD892BE1F3C3
:103AE00087EF93E09FDB8091B3089091B40805972E
:103AF0009093B4088093B30885E268DD892BC9F4FC
:103B00006AE070E080E090E0F3DD85E25FDD892B24
:103B100081F485E25BDD892BE1F387E094E082DBD1
:103B20008091B3089091B40805969093B40880935F
:103B3000B30888E24BDD892B81F46AE070E080E015
:103B400090E0D6DD88E242DD892B39F488E23EDD63
:103B5000892BE1F388E194E065DB92DC88E591E074
:103B600042DC4AE254E06FE08AE098DB4AE354E04A
:103B70006EE180E093DBD093DC0A8EE18093DD0A76
:103B80004091B5085091B608052E000C660B770BD6
:103B900081EA9AE0ABDB46E454E06DE280E07EDB54
:103BA000D093DC0A8DE28093DD0A4091B3085091F6
:103BB000B408052E000C660B770B81EA9AE096DBC1
:103BC00043E552E06CE38AE069DB30DB8111C6CF6C
:103BD000AACE8091BF0881112FC060E082E01EDD77
:103BE0004FDC85E89BE0FFDB42E554E068E288E2D9
:103BF00055DB1CDB8111F5CF6BE073E087E699E0C4
:103C00000E944C1368EE73E080E090E071DD6BE0A1
:103C100073E087E699E00E944C1364EF71E080E066
:103C200090E066DD87E699E05DDC8AEC98E05ADC9E
:103C3000C093BF080E94F91261E082E0EFDC0E94AD
:103C400061138091BB089091BC089701281B390B28
:103C5000C901853F914008F439C08091B90890911D
:103C6000BA080197029790F18AEC98E00E94750ECD
:103C7000181619062CF48AEC98E00E94530EF4CF23
:103C80001092B8081092B708D092BA08C092B9083A
:103C90008BE09CDC892B89F46AE070E080E090E0A6
:103CA00027DD8BE093DC892B41F48BE08FDC892BC3
:103CB000E1F387E893E0B6DA44C00E94F91264ECBD
:103CC00079E080E090E014DD0E9461138091B908F2
:103CD0009091BA0881309105E1F020F0039789F5C1
:103CE000CFDB1AC0CDDB88E591E07DDB4CE554E00D
:103CF00064E189E1D3DA49E654E068E28AE0CEDAA9
:103D000043E552E06CE38AE0C9DA90DA8111EBCF47
:103D100018C00E940D1315C085E89BE064DB4BE7DB
:103D200054E064E18AE0BADA4EE854E068E28AE0FE
:103D3000B5DA40E753E06CE38AE0B0DA77DA811174
:103D4000EBCF0E94810EEFCD1092CD081092CC08DF
:103D500048EE53E060E070E04093CE085093CF0807
:103D60006093D0087093D1088BE192E09093CB08D8
:103D70008093CA0825E331E03093D7082093D60812
:103D800024E331E03093D9082093D80820E331E0D0
:103D90003093DB082093DA0821E331E03093DD082B
:103DA0002093DC0822E331E03093DF082093DE0823
:103DB00026E331E03093E1082093E0081092E30815
:103DC0001092E4081092E5081092E60810926A0931
:103DD0001092690940936B0950936C0960936D09C7
:103DE00070936E09909368098093670925ED30E020
:103DF000309374092093730924ED30E030937609F1
:103E00002093750920ED30E03093780920937709ED
:103E100021ED30E030937A092093790922ED30E0EA
:103E200030937C0920937B0926ED30E030937E09A6
:103E300020937D09109280091092810910928209C5
:103E4000109283091092070A1092060A4093080AFA
:103E50005093090A60930A0A70930B0A9093050A1B
:103E60008093040A85EC90E09093110A8093100AE5
:103E700084EC90E09093130A8093120A80EC90E017
:103E80009093150A8093140A81EC90E09093170A9E
:103E90008093160A82EC90E09093190A8093180A96
:103EA00086EC90E090931B0A80931A0A10921D0AE8
:103EB00010921E0A10921F0A1092200A1092A40A51
:103EC0001092A30A8DE292E09093A20A8093A10A35
:103ED0001092DC0A1092DD0A1092DE0A1092AA0AF1
:103EE0001092A90A1092AC0A1092AB0A1092AE0A74
:103EF00081E08093AD0A82E28093AF0A1092B40A07
:103F00001092B30AE8ECFAE08FEF81939AE0E63D75
:103F1000F907D9F781E08093C50A2CEF3EE0309392
:103F2000BB0A2093BA0A8093BC0A1092BD0A109271
:103F3000BE0A80E48093BF0A1092C00A8FEA9EE016
:103F40009093D70A8093D60A8BE092E09093A80AC8
:103F50008093A70A8EE18093CC0A83E28093CD0AF6
:103F60008AE28093CA0A8CE28093C90A8FEF809319
:103F7000C80AF6D88DE292E09093A20A8093A10A33
:103F80000895BB274A3031F4992322F4BDE290957D
:103F900081959F4F01C0BB27FB015527AA27880F9A
:103FA000991FAA1FA41710F0A41B83955051B9F7AD
:103FB000A05DAA3308F0A95DA193009779F7B1112C
:103FC000B1931192CB0100C0DC01FC01672F71910C
:103FD0007723E1F7329704C07C916D9370836291EF
:103FE000AE17BF07C8F30895E89409C097FB3EF4E5
:103FF00090958095709561957F4F8F4F9F4F992336
:10400000A9F0F92F96E9BB279395F69587957795B3
:104010006795B795F111F8CFFAF4BB0F11F460FF73
:104020001BC06F5F7F4F8F4F9F4F16C0882311F0CB
:1040300096E911C0772321F09EE8872F762F05C0DF
:10404000662371F096E8862F70E060E02AF09A957A
:10405000660F771F881FDAF7880F9695879597F96F
:1040600008950BD078C069D028F06ED018F0952351
:1040700009F05AC05FC01124A2C07ED0A0F3959F62
:10408000D1F3950F50E0551F629FF001729FBB273F
:10409000F00DB11D639FAA27F00DB11DAA1F649FEB
:1040A0006627B00DA11D661F829F2227B00DA11D9E
:1040B000621F739FB00DA11D621F839FA00D611D24
:1040C000221F749F3327A00D611D231F849F600D45
:1040D000211D822F762F6A2F11249F5750408AF07E
:1040E000E1F088234AF0EE0FFF1FBB1F661F771F0A
:1040F000881F91505040A9F79E3F510570F014C0A1
:104100005EC05F3FECF3983EDCF38695779567954C
:10411000B795F795E7959F5FC1F7FE2B880F911D27
:104120009695879597F9089597F99F6780E870E0CD
:1041300060E008959FEF80EC089500240A9416161D
:10414000170618060906089500240A941216130685
:10415000140605060895092E0394000C11F4882313
:1041600052F0BB0F40F4BF2B11F460FF04C06F5F2F
:104170007F4F8F4F9F4F089557FD9058440F551F05
:1041800059F05F3F71F04795880F97FB991F61F0D9
:104190009F3F79F087950895121613061406551F50
:1041A000F2CF4695F1DF08C0161617061806991FBC
:1041B000F1CF86957105610508940895E894BB27B1
:1041C00066277727CB0197F908955058BB27AA2770
:1041D0000ED0C1CFB2DF30F0B7DF20F031F49F3F17
:1041E00011F41EF4A7CF0EF4E095E7FB9DCFE92F65
:1041F000C3DF80F3BA17620773078407950718F0C7
:1042000071F49EF5DBCF0EF4E0950B2EBA2FA02DA6
:104210000B01B90190010C01CA01A0011124FF2773
:10422000591B99F0593F50F4503E68F11A16F0406E
:10423000A22F232F342F4427585FF3CF469537956D
:104240002795A795F0405395C9F77EF41F16BA0B32
:10425000620B730B840BBAF09150A1F0FF0FBB1FE0
:10426000661F771F881FC2F70EC0BA0F621F731F29
:10427000841F48F4879577956795B795F7959E3F86
:1042800008F0B3CF9395880F08F09927EE0F979514
:104290008795089504D06894B11191CF089574DF83
:1042A00088F09F5790F0B92F9927B751A0F0D1F01F
:1042B000660F771F881F991F1AF0BA95C9F712C0A9
:1042C000B13081F07BDFB1E0089578CF672F782F90
:1042D0008827B85F39F0B93FCCF386957795679515
:1042E000B395D9F73EF490958095709561957F4F81
:1042F0008F4F9F4F089597FB072E16F4009406D01A
:1043000077FD08D035D007FC05D03EF49095819517
:104310009F4F0895709561957F4F0895A1E21A2EE1
:10432000AA1BBB1BFD010DC0AA1FBB1FEE1FFF1F59
:10433000A217B307E407F50720F0A21BB30BE40BA9
:10434000F50B661F771F881F991F1A9469F76095F0
:104350007095809590959B01AC01BD01CF010895AA
:10436000EE0FFF1F881F8BBF0790F691E02D199469
:10437000AA1BBB1B51E107C0AA1FBB1FA617B7078B
:1043800010F0A61BB70B881F991F5A95A9F78095A7
:104390009095BC01CD0108950F931F93CF93DF93A8
:1043A0008230910510F482E090E0E091610BF09191
:1043B000620B20E030E0A0E0B0E0309719F14081DE
:1043C00051810281138148175907C8F08417950756
:1043D00069F4109731F012960C93129713961C9370
:1043E00027C00093610B1093620B22C02115310589
:1043F00019F04217530718F49A01BD01EF01DF01CC
:10440000F801DBCF21153105F9F0281B390B2430D9
:10441000310580F48A819B816115710521F0FB01D2
:104420009383828304C09093620B8093610BFE019F
:10443000329644C0FE01E20FF31F81939193225004
:104440003109398328833AC020915F0B3091600B8A
:10445000232B41F420911302309114023093600B0E
:1044600020935F0B2091110230911202211531052A
:1044700041F42DB73EB74091150250911602241B0E
:10448000350BE0915F0BF091600BE217F307A0F49E
:104490002E1B3F0B2817390778F0AC014E5F5F4F9A
:1044A0002417350748F04E0F5F1F5093600B409361
:1044B0005F0B8193919302C0E0E0F0E0CF01DF91C8
:1044C000CF911F910F910895CF93DF93009709F437
:1044D00081C0FC01329713821282A091610BB091CE
:1044E000620B109781F420813181820F931F2091FC
:1044F0005F0B3091600B2817390751F5F093600B73
:10450000E0935F0B67C0ED0120E030E0CE17DF07DE
:1045100040F44A815B819E0141155105F1F0EA01A9
:10452000F5CFD383C28340815181840F951FC81773
:10453000D90759F488819981840F951F0296918338
:1045400080838A819B81938382832115310529F49D
:10455000F093620BE093610B3DC0E901FB83EA83BA
:1045600049915991C40FD51FEC17FD0761F4808163
:104570009181840F951F0296E90199838883828136
:1045800093819B838A83E0E0F0E012968D919C9169
:104590001397009719F0FD01DC01F7CF8D919C91E5
:1045A00011979D012E5F3F4F820F931F20915F0B4C
:1045B0003091600B2817390769F4309729F410926D
:1045C000620B1092610B02C013821282B093600BD7
:1045D000A0935F0BDF91CF9108956F927F928F929E
:1045E0009F92AF92BF92CF92DF92EF92FF920F9382
:1045F0001F93CF93DF93009781F4CB01DF91CF918D
:104600001F910F91FF90EF90DF90CF90BF90AF90F0
:104610009F908F907F906F90BFCEFC01E60FF71FA9
:104620009C0122503109E217F30708F4A5C0EC0100
:10463000D9010D911C91119706171707A8F00530A5
:10464000110508F497C0C80104978617970708F466
:1046500091C002501109061B170B019311936D9322
:104660007C93CF0131DF86C05B01A01AB10A4C01F7
:10467000800E911EA091610BB091620B612C712C88
:10468000E12CF12C109709F446C08D919C91119763
:10469000A815B905B1F56C0142E0C40ED11CCA14CD
:1046A000DB0478F14C018A189B08640142E0C40ED7
:1046B000D11C1296BC9012971396AC91B5E0CB1614
:1046C000D10440F0B282A38391828082D9016D939C
:1046D0007C9309C00E5F1F4F800F911FF9019183DA
:1046E0008083EB2DFA2FE114F10431F0D7011396FA
:1046F000FC93EE9312973EC0F093620BE093610B34
:1047000039C06816790608F43C017D0112960D90B7
:10471000BC91A02DB7CF80915F0B9091600B881654
:104720009906E1F466167706C8F48091110290911B
:104730001202009741F48DB79EB740911502509137
:104740001602841B950BE817F907B0F4F093600B81
:10475000E0935F0BF901718360830CC0CB011CDE19
:104760007C01009749F0A801BE011BD0CE01ACDE50
:10477000C70104C0CE0102C080E090E0DF91CF917C
:104780001F910F91FF90EF90DF90CF90BF90AF906F
:104790009F908F907F906F90089581E090E0F894C3
:1047A00010C0FB01DC0102C001900D92415050404D
:1047B000D8F70895FB01DC0101900D920020E1F78C
:0647C0000895F894FFCFFC
:1047C600040100084000000080DF0A091003023BD4
:1047D600110000630B8000000000001416BE15E8EF
:1047E600156016750E530E670E00000000D312BE3C
:1047F600152E112D1120202068616E64696E6720C8
:1048060063756265202000202020783A0020202051
:10481600793A00627574746F6E443A63686F6F73A9
:1048260065206375626500676574206F70656E6DDF
:104836007620646174610A006D6F76650A00473000
:10484600205800205900205A31303020463130306F
:1048560030300A004730205A32332046313030306B
:10486600300A004D323233312056310A00473020AB
:104876005A313230204631303030300A0047323239
:104886003032204E30205631350A004730205A3516
:1048960030204631303030300A004D32323331204C
:1048A60056300A004730205A3830204631303030F2
:1048B600300A004732323032204E30205639300A24
:1048C6000073746174757320310A004730205832C2
:1048D6003030205930205A31363020463130303091
:1048E600300A00766973696F6E2064656D6F0063C8
:1048F6006C69636B20627574746F6E412000746F0F
:1049060020737461727400563220535441525421FC
:104916000A004D323430302053300A004D323132E5
:10492600322056310A00627574746F6E20610D0A6A
:1049360000627574746F6E20620D0A00627574747D
:104946006F6E20630D0A00627574746F6E640D0AD3
:1049560000627574746F6E413A7265646375626560
:1049660000627574746F6E423A677265656E637540
:10497600626500627574746F6E433A79656C6C6F2C
:10498600776375626500627574746F6E443A6F661C
:10499600666573746D6F6465006A6F7973746963B5
:1049A6006B2075700D0A006A6F79737469636B20EA
:1049B600646F776E0D0A006A6F79737469636B2092
:1049C6006C6566740D0A006A6F79737469636B208F
:1049D60072696768740D0A006A6F79737469636B2C
:1049E6002063656E7465720D0A002020206F66666E
:1049F600657374206D6F646520002020785F6F6694
:104A0600666573743A002020795F6F666665737415
:104A16003A007761697474696E6720007669736914
:104A26006F6E207374617274007761697474696E55
:104A36006720666F722063756265006572726F72B9
:104A46003A646973636F6E6E656374202000207725
:0C4A5600697468206F70656E6D7620003A
:00000001FF
