:100000000C94200E0C94510E0C94510E0C94510E25
:100010000C94510E0C94510E0C94510E0C94510EE4
:100020000C94510E0C94510E0C94510E0C94510ED4
:100030000C94510E0C94510E0C94510E0C94510EC4
:100040000C94510E0C94510E0C94510E0C94510EB4
:100050000C94510E0C94510E0C94510E0C94F516F8
:100060000C94510E0C9480180C9457180C94510E4B
:100070000C94510E0C94510E0C94510E0C94510E84
:100080000C94510E0C94510E0C94510E0C94510E74
:100090000C94510E0C94510E0C94510E0C94510E64
:1000A0000C94510E0C94510E0C94510E0C94510E54
:1000B0000C94510E0C94510E0C94510E0C94510E44
:1000C0000C94510E0C94510E0C94510E0C942E184D
:1000D0000C9405180C94510E0C94DC170C94B31767
:1000E0000C94510E26116C11481143115911241111
:1000F0006211C418C718B618BA18C018FE18CB1861
:10010000CF18D518D918DD18E318E718EB18FE1822
:10011000F118F518F918FFE0FFD1AFFF32FFD0FF5B
:10012000FEFFE0FFD1AEFFD0FFFEFFE0FFD11002E7
:10013000FFFEFFD0FFE0FFC1FFD1AED580A83FD3C7
:1001400000408D142002A1C8DA1281CFD9F1DB4022
:100150002EA4A6AFFFD0FFFE00281EF7F60B025A12
:10016000055E20FFFC10FC0CFC00000005000002F6
:100170000C0C050100C0C0C0C0C0C0C0000000C061
:10018000C004050507020790909090900A0F1E0C7E
:1001900001FD04800480090009000900FFC012006D
:1001A00012001200FFC02400240024004800480070
:1001B000050E0E0801FF2070A8A8A8A0603028A88E
:1001C000A8A870200B0D1A0E01FF60409880978040
:1001D000910092006200040008C009201120212033
:1001E000212040C00A0C180D010018002400240032
:1001F0002400280033C0310051008A008A00C44026
:100200007B800105050402078080808080040F0F39
:100210000602FD1020404080808080808080404029
:100220002010040F0F0601FD804020201010101038
:100230001010102020408007070707000510925477
:10024000385492100909120B02FF08000800080038
:100250000800FF80080008000800080002050505E6
:1002600001FDC0C0404080040101070203F002020A
:1002700002050100C0C00510100802FC080810109B
:10028000101020202020404040408080050B0B07AC
:1002900001007050888888888888885070050B0B0A
:1002A00007010020E02020202020202020F8050B3E
:1002B0000B07010070888888081010204848F8054E
:1002C0000B0B0701007088880808300808888870C0
:1002D000070B0B0901001818282848C8FE08080851
:1002E0003E050B0B07010088F08080F0C8080888E5
:1002F0009060050B0B07010030484080F08888882B
:10030000885070060C0C08010080FC8488101010C6
:100310002020202020050B0B0701007088888850C2
:10032000708888888870050B0B07010070508888DA
:1003300088887808109060020707070300C0C00093
:100340000000C0C0020A0A0501FDC0C0000000C0D4
:10035000C040408005090906010108102040804086
:100360002010080A050A0D0202FFC000000000006C
:1003700000FFC00509090601018040201008102077
:100380004080050C0C080100708888102020600057
:10039000000060600A0C180C01001E0021004C8057
:1003A0009340A140A140A140A14093404D8020C076
:1003B0001F000B0B160B0000040004000A000A00CB
:1003C0000A00110011001F0020802080F1E00A0BBC
:1003D000160A0000FF0020802040204020803F00BF
:1003E0002080204020402080FF00090B160A0100D9
:1003F0001E8021804080808080008000800080807E
:10040000408021001E000A0B160A0000FE00218019
:10041000208020402040204020402040208021801B
:10042000FE000A0B160A0100FF8020802080228037
:1004300022003E002240224020802080FF80090BC5
:1004400016090100FF8020802080228022003E00CB
:100450002200220020002000F8000A0B160A0100EA
:100460001E802180408080808000800083C080804A
:10047000408020801F800B0B160B0100FBE02080CA
:100480002080208020803F8020802080208020804D
:10049000FBE0050B0B050100F82020202020202088
:1004A0002020F8060B0B0601007C10101010101015
:1004B000101090E00B0B160B0100F9E020802100DA
:1004C000220024002E003200210021002080F9E0CB
:1004D000080B0B080000F8202020202021212123D8
:1004E000FF0E0B160E0100F03C3030303028502843
:1004F0005028902490249023102310FB7C0B0B1683
:100500000B0100E3E03080308028802880248022A6
:1005100080228021802180F8800A0B160A01001EAB
:1005200000210040808040804080408040804040EA
:100530008021001E00090B16090100FF0021802008
:1005400080208021803F002000200020002000F833
:10055000000A0E1C0A01FD1E002100408080408020
:10056000408040804080405C8033001E00020002DA
:100570004001800B0B160B0100FE002100208020A3
:100580008021003E002300210021002100F8E00628
:100590000B0B0701007C848480403008048484F8BD
:1005A000090B16090100FF80888088808880080078
:1005B000080008000800080008003E000B0B160B9E
:1005C0000100FBE02080208020802080208020808F
:1005D0002080208011000E000B0B160B0100F1E0B3
:1005E000208020801100110011000A000A000A007A
:1005F00004000400100B16100100F1CF21842184A7
:10060000224412481248124814280C300C300810AA
:100610000B0B160B0100F3C0110012000A000C00B6
:1006200004000A001A0011002080F1E00B0B160BE9
:100630000100F1E02080110011000A000E0004000A
:100640000400040004001F00070B0B070100FEC498
:100650008488081022224246FE0310100501FCE0A7
:100660008080808080808080808080808080E005A5
:1006700010100802FC8080404040402020202010C4
:1006800010101008080310100500FCE020202020A6
:1006900020202020202020202020E0050303060128
:1006A000092070880B01020C01FEFFE00304040620
:1006B000030880C0402006070707010070880878FB
:1006C00088887C060C0C070100C0404040407844FC
:1006D0004444444478050707060100708880808000
:1006E0008870060C0C07010018080808087888882C
:1006F0008888887C0507070601007088F880808854
:1007000070050C0C0601003848404040F040404065
:100710004040E0070B0B0801FC3E44444478407C19
:100720008282827C070C0C080100C0404040407867
:100730004444444444EE030B0B040100C0C00000D9
:10074000C04040404040E0040E0E0500FD30300047
:1007500000301010101010101090E0070C0C080161
:1007600000C0404040405E4850705848EE030C0CBA
:10077000040100C040404040404040404040E00B49
:10078000070E0C0100FB8044404440444044404478
:1007900040EEE0070707080100F84444444444EEF3
:1007A00005070706010070888888888870060A0A8D
:1007B0000701FDF84444444444784040E0060A0AF6
:1007C0000701FD7888888888887808081C0507074D
:1007D000060100D06840404040F0050707060100D0
:1007E000788880700888F0060A0A07010020202017
:1007F000F8202020242418070707080100CC4444CF
:100800004444443E080707090100E724242418183B
:10081000180B070E0B0000EEE024802A802A802AA5
:10082000801B001100080707090100E724181818A9
:1008300024E7080A0A0801FDE724242418181810E0
:1008400090E0050707060100F89090204848F80559
:1008500010100601FC18202020202020C02020207D
:1008600020202020180110100302FC80808080804E
:1008700080808080808080808080800510100500CE
:10088000FCC02020202020201820202020202020F4
:10089000C005030308010948A890FFFFFFFFFFFF01
:1008A000FFFFFFFFFFFFFFFFFFFFFFFFFFFFFFFF58
:1008B000FFFFFFFFFFFFFFFFFFFFFF00000005003E
:1008C00000020C0C0501FDC0C0000000C0C0C0C08B
:1008D000C0C0C0050B0B0701FE101070A8A0A0A09F
:1008E000C8704040080C0C09010006091110107C6A
:1008F00010101051B2CC070707090103827C444451
:10090000447C820B0B160C0000F1E0208011000AE1
:10091000007FC00E0004007FC0040004001F00011F
:1009200010100302FC808080808080800000808026
:100930008080808080040D0D0601006090808060C2
:10094000909090601010906005020206010BD8D8BC
:10095000090A140A01033E0041009E80A280A28081
:10096000A080A2809C8041003E000406060501078D
:100970006010709070F007070709010012246CD80E
:100980006C2412060404080102FC0404040301019F
:10099000050003E0090A140A01033E004100BC807F
:1009A000928092809C809280BA8041003E00050136
:1009B0000107010BF8040404060208609090600728
:1009C0000909090201101010FE10101000FE0407A2
:1009D00007050106609010102040F004070705018C
:1009E000066090102010906003040406030B206042
:1009F0004080070A0A0801FD8888888888DAA48070
:100A00008080070F0F0801FC3E74F4F4F474341472
:100A100014141414141414020202040205C0C003B6
:100A200003030702FD4020E003070704010640C05E
:100A300040404040E0040606050107609090906049
:100A4000F007070708010090486C366C48900B0BC4
:100A5000160C01004000C400440044004440E8C0BB
:100A600009400A400BE0104010E00B0B160C01008F
:100A70004000C400440044004400E8C009200820AD
:100A80000840108011E00C0B160D01006000920070
:100A9000120022001220946064A0052005F00820B6
:100AA0000870050C0C0801FD3030000000302020DB
:100AB000408088700B10200B000008000C00040020
:100AC00002000000040004000A000A000A001100ED
:100AD00011001F0020802080F1E00B10200B00008F
:100AE00002000600040008000000040004000A00E0
:100AF0000A000A00110011001F0020802080F1E090
:100B00000B0F1E0B000004000E001100000004007B
:100B100004000A000A000A00110011001F002080D2
:100B20002080F1E00B0F1E0B0000090015001200E1
:100B30000000040004000A000A000A00110011006D
:100B40001F0020802080F1E00B0E1C0B00001B001A
:100B50001B000000040004000A000A000A00110043
:100B600011001F0020802080F1E00B0F1E0B000001
:100B70000600090009000600040004000A000A003B
:100B80000A00110011001F0020802080F1E00E0BF0
:100B9000160F00000FF80A180A080A2812201FE092
:100BA0001224122422082208F7F8090E1C0A01FD5B
:100BB0001E802180408080808000800080008080B6
:100BC000408021001E00080004001C000A10200BB9
:100BD000000010001800080004000000FF802080C2
:100BE0002080228022003E0022402240208020805F
:100BF000FF800A10200B000004000C000800100009
:100C00000000FF8020802080228022003E002240C1
:100C1000224020802080FF800A0F1E0B0000080069
:100C20001C0022000000FF80208020802280220003
:100C30003E002240224020802080FF800A0E1C0BB4
:100C40000000360036000000FF80208020802280D7
:100C500022003E002240224020802080FF8005109C
:100C6000100601004060201000F8202020202020E5
:100C7000202020F80510100601001030204000F858
:100C8000202020202020202020F8050F0F06010022
:100C900020708800F8202020202020202020F80527
:100CA0000E0E060100D8D800F82020202020202099
:100CB0002020F80A0B160B0000FE00218020802067
:100CC000402040F8402040204020802180FE000B42
:100CD0000F1E0C00000900150012000000E3E030B8
:100CE00080308028802880248022802280218021DA
:100CF00080F8800A10200C01001000180008000481
:100D00000000001E00210040808040804080408024
:100D1000408040408021001E000A10200C0100028B
:100D20000006000400080000001E00210040808032
:100D3000408040804080408040408021001E000A6A
:100D40000F1E0C010008001C00220000001E0021E4
:100D50000040808040804080408040804040802132
:100D6000001E000A0F1E0C010012002A00240000C1
:100D7000001E0021004080804080408040804080F4
:100D800040408021001E000A0E1C0C010036003677
:100D90000000001E00210040808040804080408094
:100DA000408040408021001E0007070709010082A3
:100DB0004428102844820A0D1A0C01FF00801F00ED
:100DC00021004280824084408C4088409040508086
:100DD00021003E0040000B10200C010008000C0018
:100DE000040002000000FBE02080208020802080A2
:100DF000208020802080208011000E000B10200C0D
:100E0000010002000600040008000000FBE0208052
:100E10002080208020802080208020802080110061
:100E20000E000B0F1E0C010004000E00110000004C
:100E3000FBE0208020802080208020802080208077
:100E4000208011000E000B0E1C0C01001B001B006B
:100E50000000FBE0208020802080208020802080F7
:100E60002080208011000E000B10200C00000200DA
:100E70000600040008000000F1E0208011001100CD
:100E80000A000E0004000400040004001F00090B07
:100E9000160A0000F80020003E002100208020807B
:100EA000208021003E002000F800060C0C07010005
:100EB0003048484848D84844444444D8060C0C07B5
:100EC000010040602010007088087888887C060C3B
:100ED0000C07010010302040007088087888887C5A
:100EE000060B0B070100207088007088087888883E
:100EF0007C060B0B07010048A890007088087888D2
:100F0000887C060A0A070100D8D80070880878880B
:100F1000887C060B0B070100304848307088087841
:100F200088887C0A070E0B010073808C400FC07804
:100F30000088008C407380050A0A0601FD708880D5
:100F400080808870201070050C0C06010040602025
:100F500010007088F880808870050C0C0601001065
:100F6000302040007088F880808870050B0B0601E7
:100F700000207088007088F880808870050A0A0652
:100F80000100D8D8007088F880808870040C0C04A8
:100F9000000080C040200060202020202070040C31
:100FA0000C0401001030204000C04040404040E0B0
:100FB000050B0B05000020708800602020202020F9
:100FC00070050A0A060000D8D800602020202020E2
:100FD00070050C0C0601005070E0101078888888AD
:100FE000888870070B0B08010048A89000F844445B
:100FF000444444EE050C0C060100406020100070D3
:10100000888888888870050C0C0601001030204004
:101010000070888888888870050B0B060100207096
:10102000880070888888888870050B0B0601004846
:10103000A8900070888888888870050A0A060100D0
:10104000D8D8007088888888887009070E0B01003E
:10105000080008000000FF80000008000800050BE1
:101060000B0601FE08107098A8A8A8C87040800759
:101070000C0C0801004060201000CC44444444445F
:101080003E070C0C0801000818102000CC44444412
:1010900044443E070B0B08010010384400CC444484
:1010A0004444443E070A0A0801006C6C00CC4444E6
:1010B0004444443E080F0F0801FD040C081000E7EB
:1010C0002424241818181090E0060F0F0701FDC003
:1010D00040404040784444444444784040E0080D57
:1010E0000D0801FD363600E7242424181818109046
:1010F000E0000B11FFFC0901C0038820FFFC0DFC80
:1011000009FC0000000400000109090301008080BF
:1011100080808080008080030202050107A0A00576
:10112000050507010050F850F850050909070100AE
:1011300070A8A0702828A8A87005090907010088D0
:101140009010202020404888070909090100708874
:1011500088708888888A74010202030107808005EC
:101160000909070100182040408040402018050967
:1011700009070100C020101008101020C005070743
:1011800007010120A8702070A820050505070101AE
:101190002020F820200202020401FF408005010106
:1011A000070103F801010103010080050909070196
:1011B000000810102020204040800509090600008A
:1011C000708888888888888870050909060000204A
:1011D00060A02020202020F8050909060000708862
:1011E000880810204080F80509090600007088086A
:1011F000300808088870050909060000088888F882
:101200000808080808050909060000F88080F808A1
:1012100008088870050909060000708880F0888831
:10122000888870050909060000F808102040404031
:101230004040050909060000708888708888888801
:101240007005090906000070888888780808887089
:10125000010404030100800000800205050401FF71
:101260004000004080050909070100081020408067
:1012700040201008050303070102F800F8050909DA
:101280000701008040201008102040800509090750
:1012900001007088081020200020200908100B0190
:1012A000007E0081009900A500A5009A0080807F43
:1012B00000050909060000708888F88888888888F1
:1012C000050909060000F08888F088888888F005FC
:1012D0000909060000708880808080808870050978
:1012E00009060000F088888888888888F005090940
:1012F000060000F88080F080808080F805090906EB
:101300000000F88080F08080808080050909060058
:1013100000708880B88888888870050909060000F0
:10132000888888F8888888888801090902000080F0
:101330008080808080808080050909060000080880
:1013400008080808088870050909060000888890C0
:10135000A0C0A090888805090906000080808080D0
:1013600080808080F807090908000082C6AA92825E
:101370008282828205090906000088C8A8988888A8
:101380008888880509090600007088888888888808
:101390008870050909060000F08888F08080808048
:1013A000800509090600007088888888A8A8A870A8
:1013B000050909060000F08888F088888888880573
:1013C000090906000070888070080888887005097F
:1013D00009060000F82020202020202020050909EF
:1013E000060000888888888888888870050909062A
:1013F00000008888885050505020200709090800B4
:1014000000828282545454282828050909060000C5
:10141000888850202050888888050909060000889F
:101420008850202020202020050909060000F80807
:10143000081020408080F8030909050100E0808041
:101440008080808080E00507070701008040402001
:10145000101008030909050100E0202020202020A9
:1014600020E003020205010A40A006010108010074
:10147000FC02020204010A40800506060600007014
:101480008888888878050909060000808080F088AF
:10149000888888700506060600007088808088703D
:1014A00005090906000008080878888888887805F2
:1014B00006060600007088F8808870050909060095
:1014C00000304840E04040404040050A0A0600FC29
:1014D00070888888887808088870050909060000DF
:1014E000808080B0C888888888010909020000804F
:1014F0008000808080808080020D0D0300FC4040D1
:1015000000404040404040404040800509090600FE
:101510000080808090A0C0A090880109090200008E
:10152000808080808080808080070606080000B66A
:10153000DA92929292050606060000B0C888888862
:1015400088050606060000708888888870050A0AE3
:101550000600FC7088888888F080808080060A0AEF
:101560000700FC788888888878081C080804060624
:10157000050000B0C080808080050606060000706F
:101580008070088870040909050000404040F04060
:10159000404040400506060600008888888888701C
:1015A0000506060600008888505020200706060819
:1015B0000000828254542828050606060000885040
:1015C00020205088050A0A0600FC888888888878C8
:1015D000080888700506060600007888102040F884
:1015E0000609090801000C102020C02020100C0161
:1015F0000909030100808080808080808080060946
:1016000009080100C02010100C101020C0050202B3
:1016100006000AE8B8FFFFFFFFFFFFFFFFFFFFFF25
:10162000FFFFFFFFFFFFFFFFFFFFFFFFFFFFFFFFCA
:10163000FFFFFFFFFFFFFF0109090200008080009C
:101640008080808080800507070701002070A8A0A7
:10165000A870200509090701008080F0808080883B
:1016600088F805050507010188705070880509098B
:101670000701008888502020F820F820010909037C
:101680000100808080000000808080060A0A080136
:1016900000788078847804040484780501010701C7
:1016A00003880707070901007C82BAA2BA827C0678
:1016B000080808010070888888887400FC05030306
:1016C000070102489048050202070102F8080000DD
:1016D000000800000707070901007C82BAA2A28265
:1016E0007C050101060006F803030305010240A082
:1016F000400507070701002020F8202000F8FFFF21
:10170000FF000000080000FF000000080000FFFFCD
:10171000FF050303070102904890FFFFFFFF050C40
:101720000C060000402000708888F8888888888827
:10173000050C0C060000102000708888F888888846
:101740008888050C0C060000205000708888F888F6
:1017500088888888050C0C060000E8B80070888826
:10176000F88888888888050B0B0600005000708870
:1017700088F88888888888050D0D0600002050208C
:1017800000708888F888888888880909120A00000B
:101790007F8088008800FF0088008800880088001B
:1017A0008F800509090600FE70888080808870207F
:1017B00060050C0C060000402000F88080F080805E
:1017C0008080F8050C0C060000102000F88080F0E6
:1017D00080808080F8050C0C060000205000F88006
:1017E00080F080808080F8050B0B0600005000F828
:1017F0008080F080808080F8020C0C020000804025
:1018000000404040404040404040020C0C0200007C
:10181000408000808080808080808080030C0C026B
:10182000FF0040A000404040404040404040030B8B
:101830000B02FF00A00040404040404040404005B7
:101840000909060000F08888E888888888F0050C77
:101850000C060000E8B800888888C8A8988888889E
:10186000050C0C0600004020007088888888888855
:101870008870050C0C06000010200070888888888D
:1018800088888870050C0C0600002050007088883D
:10189000888888888870050C0C060000E8B80070FD
:1018A0008888888888888870050B0B06000050009F
:1018B000708888888888888870030303060102A0DE
:1018C00040A00709090800003A444C5454546444A9
:1018D000B8050C0C0600004020008888888888889D
:1018E000888870050C0C0600001020008888888805
:1018F0008888888870050C0C0600002050008888B5
:1019000088888888888870050B0B0600005000883E
:101910008888888888888870050C0C06000010204C
:10192000008888502020202020200509090600007A
:101930008080F088F080808080050B0B0600FEF030
:1019400088B0888888B080808080050909060000FA
:1019500040200070888888887805090906000010F2
:1019600020007088888888780509090600002050C2
:1019700000708888888878050909060000E8B800A2
:1019800070888888887805080806000050007088EC
:1019900088888878050A0A06000020502000708890
:1019A0008888887809060C0A0000770088808F8074
:1019B0008800888077000508080600FE708880800F
:1019C000887020400506060600007088F880887040
:1019D0000506060600007088F88088700506060671
:1019E00000007088F8808870050606060000708880
:1019F000F8808870020A0A0300008040000040401E
:101A000040404040020A0A030000408000008080FD
:101A100080808080030A0A04000040A0000040404B
:101A200040404040030909040000A000004040403D
:101A30004040400509090600000838087888888871
:101A40008878050909060000E8B800B0C8888888C9
:101A50008805090906000040200070888888887081
:101A60000509090600001020007088888888700524
:101A700009090600002050007088888888700509D0
:101A800009060000E8B80070888888887005080892
:101A900006000050007088888888700505050600DB
:101AA000012000F800200506060600007098A8A88E
:101AB000C8700509090600004020008888888888C9
:101AC0007005090906000010200088888888887041
:101AD000050909060000205000888888888870055C
:101AE00008080600005000888888888870050D0D59
:101AF0000600FC102000888888888878080888708C
:101B000005060605000080F088F08080050C0C06B4
:101B100000FC500088888888887808088870000051
:101B20002100240027002A002D003000330001018D
:101B30000000040107010A0100002200250028001E
:101B40002B002E00310034000201000005010801C5
:101B50000B01000020002300260029002C002F008C
:101B60003200000100000301060109010505050519
:101B7000070508080808020202020A0A0808040405
:101B80000404010101010101010103030303030333
:101B90000303040707070C0C0C0C0C0C0C0C0202C2
:101BA000020206060606060606060B0B0B0B0B0BBF
:101BB0000B0B01021020200808102040102040804C
:101BC0000201020108040201010204081020408001
:101BD000804020100804020180040201804020108F
:101BE00008040201080402010102040810204080D8
:101BF000010204081020408000000A0B02090C0DAD
:101C00000E080703040100000000000000000000AF
:101C100000000000000000000000000000000000C4
:101C20000000000012111000000000000000000081
:101C30000000000000000000000000000000EB1E9B
:101C400011241FBECFEFD1E2DEBFCDBF00E00CBF3D
:101C500027E0A0EBB4E001C01D92A438B207E1F781
:101C600014E0A0E0B2E0E4E5F8E400E00BBF02C05D
:101C700007900D92A03BB107D9F71EE0C0E2DEE06D
:101C800000E006C021970109802FFE010E94F72184
:101C9000CF31D10780E00807A9F70E940B1C0C94F4
:101CA00028240C94000080E090E0892B19F0F4D7F0
:101CB00081111BC080E090E0892B41F080E090E032
:101CC000892B21F00E940000811112C080E090E079
:101CD000892B19F0D8D781110EC080E090E0892BB4
:101CE00079F0C8D781110AC008950E940000E2CFA0
:101CF0000E940000EBCF0E940000EFCF0C94000088
:101D000008950895DC011696ED91FC9117971296AF
:101D10008C91481B477081E090E001C0880F4A9584
:101D2000EAF7E60FF11D3081222311F0832B02C068
:101D30008095832380830895FB014181DC01129605
:101D40002C911297421760F013962C911397241739
:101D500038F0608115962C91621710F42481D2CF4F
:101D60000895FC0130819281930F92832181921713
:101D700060F494819F5F94838381830F821710F0B6
:101D80008FEF820F838381E0089580E00895FC0146
:101D900012828081815083831482089580E00895A7
:101DA0000B96FC01849108950A96FC018491089594
:101DB000FC0184910895FCDF882321F0823011F02A
:101DC00083E0089586E00895FC01E60FF11D8491FB
:101DD00090E0982F88273196E4918E0F911D0895F9
:101DE00068E0F2CF66E0F0CF2EE93FE0009729F0FF
:101DF000F9013197F1F70197F9CF08955091BC049B
:101E00006091BB044091BA043091B904A091B70429
:101E1000B091B804E091B504F091B6049FB79093E7
:101E2000B404F89498E02C9187FF02C0252B01C0E0
:101E300026232C932081242B2083880F2081232389
:101E40002083915081F78091B4048FBF089590E072
:101E5000FC01E459F44EE491F0E0EE0FFF1FE85C62
:101E6000F44E259134913093B8042093B70470E078
:101E7000FB01E459F44EE491F0E0EE0FFF1FE85C43
:101E8000F44E259134913093B6042093B504FC01AF
:101E9000EE54F44E84918093BC04FB01EE54F44E56
:101EA00064916093BA0460956093B90480958093BF
:101EB000BB040895DB011496ED91FC91159720E089
:101EC00030E065E01994CF92DF92EF92FF920F938A
:101ED0001F93CF93DF938C017B016A0180E0F601B1
:101EE000C49181110AC0CF3F09F454C04C2FB701EF
:101EF000C801E0DF81114CC052C0CF3F11F44FEF59
:101F0000F6CFCE3F09F44DC0C03F08F041C0C03EFF
:101F100058F04C2F4F70D7011496ED91FC91159706
:101F200020E030E062E00CC0C03D68F04C2F4F7004
:101F3000D7011496ED91FC91159720E030E063E015
:101F4000C801199525C0C03CF0F0D7011496ED9159
:101F5000FC91159720E030E040E064E0C80119955D
:101F6000C295C07FCE5FD0E0CE013EDFD701149690
:101F7000ED91FC91159720E030E041E064E0C8016C
:101F80001995CE0104C0C7FD03C08C2F90E02CDF53
:101F900080E001C081E0BFEFCB1ADB0AA0CF80E078
:101FA00001C081E0DF91CF911F910F91FF90EF90E1
:101FB000DF90CF900895AF92BF92CF92DF92FF92C1
:101FC0000F931F93CF93DF936C018B01F42EE901E4
:101FD00020E1421709F453C0241798F03AE0431364
:101FE00057C0DB011496ED91FC91159720E030E08D
:101FF00042E061E0199542E351E0B801C60163DFB8
:1020000047C081E1481709F43DC0A5E14A1340C02B
:10201000FB01A280B3804AE251E0C60154DFD50142
:1020200014964C91406BB801C60144DFD801149658
:10203000ED91FC91159720E030E041E062E0C601AF
:102040001995F50126813781D8011496ED91FC91FF
:102050001597D50115964C9166E0C6011995811129
:1020600002C080E0C2C0D8011496ED91FC91159792
:1020700020E030E040E063E0C601199509C041E28C
:1020800051E002C046E151E0B801C6011CDFACC01E
:10209000F80102811381F2E3FF1609F46FC0FF1506
:1020A000B8F025E1F21609F474C037E1F31609F42B
:1020B00085C084E1F81298C0D8011696ED91FC9184
:1020C000179715968C919F01280F311DC9015AC091
:1020D000A6E4FA1609F481C0B7E4FB1609F480C03F
:1020E000EBE3FE1281C089819B81913029F093300E
:1020F00031F4482F885004C048E0480F01C0482FF1
:1021000051E0D80113962C91281708F450E031E0E3
:10211000F8012281421708F430E021E0481708F066
:1021200020E0822F852B382319F4252309F45CC085
:10213000CA80913061F038F0923061F0933071F4E0
:10214000FF24FA940CC0F12CDD24D39409C0FF24A1
:10215000F39405C0F12CDD24DA9402C0F12CD12CCB
:10216000C7FE03C0BE01C801E7DD88818D0D8883ED
:1021700089818F0D8983CC0C99F736C0BE01C801C7
:10218000DBDD32C011928E179F07E1F7C801FFDD3A
:102190002BC0C801E6DD882309F463CFD801169669
:1021A000ED91FC91179715968C919F01280F311D89
:1021B000C90111928E179F07E1F716C01882D80146
:1021C00012968C911297898315968C911597815050
:1021D0008A8313968C918B8307C0F801858103C095
:1021E000D80111968C91888381E0DF91CF911F9166
:1021F0000F91FF90DF90CF90BF90AF90089508951A
:1022000080E090E00895860F911DFC0183A18F3F2F
:1022100019F0642F0C94691B0895EF92FF920F93AD
:102220001F93CF93DF93EC01142F7901862F90E059
:10223000FC013197E730F10508F051C08827EE58CE
:10224000FF4F8F4F0C94F721E90136C07E018E01BC
:10225000035F1F4FF70183A18F3F41F061E00E94B0
:10226000971B61E0F70183A10E94691BFFEFEF1A42
:10227000FF0A0E151F0571F740E064E0CE01C3DFD1
:1022800040E065E010C08BA18F3F49F160E025C0C0
:10229000411103C041E062E020C040E064E0CE01B3
:1022A000B2DF40E062E0CE01AEDF6FA188A5CFDDF6
:1022B00016C0842FA3DD13C0112389F089919EDD00
:1022C0001150FACF112359F0F701849197DDFFEFF8
:1022D000EF1AFF0A1150F6CF61E0CE0194DF81E0E2
:1022E000DF91CF911F910F91FF90EF900895FF9292
:1022F0000F931F93CF93DF93C1E082E0F82E02E0AB
:1023000010E0DFE58FE20E94411B892BB9F46AE0FF
:1023100070E080E090E00E94D31B8FE20E94411B9E
:10232000892B61F48FE20E94411B892BD9F389E349
:1023300092E0C7D7C0930202C093B00481E30E9429
:10234000411B892BB9F46AE070E080E090E00E94C4
:10235000D31B81E30E94411B892B61F481E30E941E
:10236000411B892BD9F389E392E0ABD7F0920202AB
:10237000C093B0048CE00E94411B892BB9F46AE041
:1023800070E080E090E00E94D31B8CE00E94411B33
:10239000892B61F48CE00E94411B892BD9F384E4E2
:1023A00092E08FD710920202C093B0048BE00E949B
:1023B000411B892BD9F46AE070E080E090E00E9434
:1023C000D31B8BE00E94411B892B81F48BE00E9480
:1023D000411B892BD9F31092B00480910002909197
:1023E0000102019690930102809300028091B00453
:1023F000811102C12091000290910102822FB80147
:102400000E94C2210197F1F40E948F1A81EF90E19E
:102410000E94421A4FE452E06FE080E08ED74FE511
:1024200052E06EE180E089D741E752E06DE280E062
:1024300084D744E852E06CE380E07FD746D781112F
:10244000E5CF60CF20FD5ECF81E20E94411B892B4A
:10245000E1F46AE070E080E090E00E94D31B81E24A
:102460000E94411B892B89F481E20E94411B892B28
:10247000D9F387E992E025D78091D8049091D904C7
:1024800005979093D9048093D80489E20E94411B58
:10249000892BE1F46AE070E080E090E00E94D31BB9
:1024A00089E20E94411B892B89F489E20E94411B29
:1024B000892BD9F385EA92E004D78091D8049091D2
:1024C000D90405969093D9048093D80480E20E94A1
:1024D000411B892BE1F46AE070E080E090E00E940B
:1024E000D31B80E20E94411B892B89F480E20E9469
:1024F000411B892BD9F385EB92E0E3D68091D4047C
:102500009091D50405979093D5048093D40485E2E7
:102510000E94411B892BE1F46AE070E080E090E0CA
:102520000E94D31B85E20E94411B892B89F485E21E
:102530000E94411B892BD9F385EC92E0C2D6809191
:10254000D4049091D50405969093D5048093D40437
:1025500088E20E94411B892B99F46AE070E080E0D8
:1025600090E00E94D31B88E20E94411B892B41F41A
:1025700088E20E94411B892BD9F386ED92E0A1D617
:10258000CED781EF90E17ED748EE52E06FE08AE04F
:10259000D4D648EF52E06EE180E0CFD6D093FD066E
:1025A0008EE18093FE064091D8045091D904052E07
:1025B000000C660B770B82EC96E0E7D644E053E024
:1025C0006DE280E0BAD6D093FD068DE28093FE06E0
:1025D0004091D4045091D504052E000C660B770B66
:1025E00082EC96E0D2D640E153E06CE38AE0A5D6D7
:1025F0006CD68111C6CF86CE81E0DF91CF911F913D
:102600000F91FF900895FC01848DDF01A80FB11D8B
:10261000A35ABF4F2C91848D90E001968F73992718
:10262000848FA689B7892C93A089B1898C918370F6
:1026300080648C93938D848D981306C00288F389EF
:10264000E02D80818F7D80830895DB01ED91FC91E9
:1026500019945F926F927F928F929F92AF92BF92E6
:10266000CF92DF92EF92FF920F931F93CF93DF935E
:10267000EC01E62EF42EC22E0C811D81C80198DBE0
:10268000D82E8C819D8197DB982E21E0D21203C039
:102690002FE0A22E02C0AA24AA948C819D8184DB03
:1026A000D82E8C819D817CDBB82E8C819D8198DB1E
:1026B000E0E6EC1538F4009729F0080F191F91E6B1
:1026C000D92E0FC08C819D818DDBF0E4FC1538F490
:1026D000009729F0080F191F81E4D82E02C00F5E61
:1026E0001F4FBC1430F4188A1B8A1C8A198A1A8A54
:1026F00075C0BD14C0F3892D90E0F80124912F3FDF
:1027000019F40F5F1F4F3FC0CD1034C08C819D81E5
:102710004FDB98012F5F3F4FF801882311F0823083
:1027200091F484918B8BF90124912C8BF8013396D1
:10273000E491E88BF8013496E491E98BF801359641
:10274000E491EA8B25C08491982F9F7092509A8BC8
:1027500082958F70898BF9012491822F8F708C8BD9
:1027600022952F702B8BF8013296E491E295EF7051
:10277000E88B0EC0F8013296E491EA219C012E0FFD
:10278000311D020F131FBD1409F4ADCFD394B5CF83
:102790000115110519F18C819D810DDB2C899A8918
:1027A000920FF91A9FEF920F9F0D3CA94EA94F155A
:1027B00018F0931728F402C0931770F09F1560F477
:1027C0003B899989E90E9FEF930F9E0D4BA95DA957
:1027D0005E1530F4941730F4888933C080E031C03E
:1027E000941710F49E15C0F7080F111D395F732E52
:1027F000769476947694622E6F0C5E01FCE1AF0EB7
:10280000B11C872C912C6F1439F35E2C68018C2D30
:10281000801B871590F4F60184916A817B815C8E20
:10282000FD8E1F8E8E8F95014BE3CE010EDFFFEFE5
:10283000CF1ADF0A28E0520EEACF080D191DF394D3
:10284000E2CFDF91CF911F910F91FF90EF90DF903A
:10285000CF90BF90AF909F908F907F906F905F9040
:102860000895DF92EF92FF920F931F93CF93DF9320
:10287000EC01D62E1CAD0BAD7C0184E0E80EF11C02
:10288000E98DFA8DC7011995412F480F2D2D602F25
:10289000C701DFDE9BAD890F8BAF81E090E0DF9158
:1028A000CF911F910F91FF90EF90DF900895CF93FC
:1028B00036D6CBE481EF90E1E5D544E253E06FE01A
:1028C0008AE03BD546E353E06EE18EE136D5C09316
:1028D000FD068EE18093FE064091050250910602AE
:1028E000052E000C660B770B82EC96E04ED54CE380
:1028F00053E06DE28EE121D5C093FD068DE2809319
:10290000FE064091030250910402052E000C660B56
:10291000770B82EC96E039D540E153E06CE380E040
:102920000CD5D3D48111C6CFCF910895611571050F
:1029300079F0FB0101900020E9F73197AF01461BC8
:10294000570BDC01ED91FC910280F381E02D19948D
:1029500080E090E008950F931F93CF93DF938BEE69
:1029600094E07CD1181619060CF087C08BEE94E029
:1029700053D1EC019093B3048093B2048091D204BC
:102980009091D3049C012F5F3F4F3093D304209349
:10299000D204FC01E254FB4FC083BE0185E296E005
:1029A00026D68091BE04833779F48091D204909129
:1029B000D304019749F481E08093BD041092E004B0
:1029C00082E493E003D696C02A9709F056C080911E
:1029D000BF04883709F051C081E08093BD04809323
:1029E000E00467E473E085E296E0A0DFA0ECB4E0E9
:1029F00020E030E06AE0FD01EE5BF4408D91629FE3
:102A0000A001639F500D1124082E000C990BC09754
:102A10009A01280F391F8C9180538A3060F33093CC
:102A2000D7042093D6046091D2047091D304E0546B
:102A3000FB4F20E030E0CAE041E050E04E5B544004
:102A40008191C29FD001C39FB00D1124082E000CAC
:102A5000990BC0979D01280F391FCA018E0F9F1F28
:102A6000861797076CF33093DB042093DA041092F7
:102A7000D3041092D20481E03EC0ABD10091DC04BB
:102A80001091DD042091DE043091DF04DC01CB01E4
:102A9000801B910BA20BB30B81319742A105B105AD
:102AA00048F18091E104813029F58BEE94E0D6D095
:102AB0001816190644F48BEE94E0AED09093B3044C
:102AC0008093B204F2CF1092D3041092D20481D139
:102AD0006093DC047093DD048093DE049093DF0444
:102AE0001092E10481E68093BE0468E573E085E21C
:102AF00096E01CDF80E0DF91CF911F910F91089548
:102B000083E492E08093B1048091B1048B36A9F004
:102B100088E895E0A3D018161906B4F788E895E080
:102B20007BD08093B104682F85E296E0C0D061E449
:102B300072E085E296E0FADEE7CF82E693E046C5F2
:102B400080910202813039F0823041F081110BC056
:102B500069E770E005C062E770E002C067E670E018
:102B60008BEE94E044D563E570E08BEE94E03FD5C6
:102B700066E673E085E296E0D9DE2BD16093DC0453
:102B80007093DD048093DE049093DF04089562E087
:102B90008FE2CDD562E081E3CAD562E08CE0C7D593
:102BA00062E08BE0C4C5CF92DF92EF92FF920F9369
:102BB0001F93CF93DF936C017A018B01C0E0D0E0CB
:102BC000CE15DF0581F0D8016D918D01D601ED9113
:102BD000FC910190F081E02DC6011995892B11F02F
:102BE0002196EECF7E01C701DF91CF911F910F910A
:102BF000FF90EF90DF90CF900895FC01538D448DAE
:102C0000252F30E0842F90E0821B930B541710F097
:102C1000CF96089501970895FC01918D828D9817A4
:102C200061F0828DDF01A80FB11D5D968C91928DB0
:102C30009F5F9F73928F90E008958FEF9FEF0895AD
:102C4000FC01918D828D981731F0828DE80FF11D76
:102C5000858D90E008958FEF9FEF0895FC01918D91
:102C6000228D892F90E0805C9F4F821B91098F738A
:102C7000992708958BEE94E0F1DF21E0892B09F488
:102C800020E0822F089588E895E0E8DF21E0892B95
:102C900009F420E0822F089585E296E0DFDF21E04D
:102CA000892B09F420E0822F08950E941424EF92CA
:102CB000FF920F931F93CF93DF93EC0181E0888FF6
:102CC0009B8D8C8D981305C0E889F989808185FDDD
:102CD00025C0F62E0B8D10E00F5F1F4F0F731127CD
:102CE000E02E8C8DE8120BC00FB607FCFACFE889F6
:102CF000F989808185FFF5CFCE0185DCF2CF8B8D00
:102D0000FE01E80FF11DE35AFF4FF0829FB7F894E0
:102D10000B8FEA89FB89808180620AC09FB7F89493
:102D2000EE89FF896083E889F989808183708064F6
:102D300080839FBF81E090E0DF91CF911F910F9141
:102D4000FF90EF900895CF93DF93EC01888D882357
:102D5000C1F0EA89FB89808185FD05C0A889B98910
:102D60008C9186FD0EC00FB607FCF5CF808185FFE4
:102D7000F2CFA889B9898C9185FFEDCFCE0143DCD4
:102D8000E8CFDF91CF9108953FB7F8948091E704A1
:102D90009091E804A091E904B091EA0426B5A89BBB
:102DA00005C02F3F19F00196A11DB11D3FBFBA2FDD
:102DB000A92F982F8827820F911DA11DB11DBC013D
:102DC000CD0142E0660F771F881F991F4A95D1F702
:102DD00008952FB7F8946091E3047091E404809112
:102DE000E5049091E6042FBF08951F920F920FB64D
:102DF0000F9211242F933F938F939F93AF93BF9381
:102E00008091E3049091E404A091E504B091E6047C
:102E10003091E20423E0230F2D3720F40196A11D09
:102E2000B11D05C026E8230F0296A11DB11D2093F8
:102E3000E2048093E3049093E404A093E504B09348
:102E4000E6048091E7049091E804A091E904B09130
:102E5000EA040196A11DB11D8093E7049093E80454
:102E6000A093E904B093EA04BF91AF919F918F9131
:102E70003F912F910F900FBE0F901F9018950F93B9
:102E80001F93CF93DF93EC0188819981009729F0FC
:102E90002A813B812617370788F48B016F5F7F4FAC
:102EA0000E943423009761F0998388831B830A83EF
:102EB0002C813D81232B11F4FC01108281E001C0A3
:102EC00080E0DF91CF911F910F910895CF92DF9213
:102ED000EF92FF920F931F93CF93DF93CDB7DEB79F
:102EE00028970FB6F894DEBF0FBECDBF8C01CB0183
:102EF0004AE09E012F5F3F4F7901B9010E940820EF
:102F0000F70101900020E9F73197EE19FF09D9F098
:102F1000D8011496CD90DC901597CE0EDF1EB60129
:102F2000C801ADDF882381F0F801208131818481DF
:102F30009581B701820F931F0E942124D801159615
:102F4000DC92CE92149781E028960FB6F894DEBFFB
:102F50000FBECDBFDF91CF911F910F91FF90EF90EA
:102F6000DF90CF9008951F920F920FB60F92112409
:102F70000BB60F922F933F934F935F936F937F9373
:102F80008F939F93AF93BF93EF93FF938BEE94E058
:102F90003ADBFF91EF91BF91AF919F918F917F911C
:102FA0006F915F914F913F912F910F900BBE0F90BA
:102FB0000FBE0F901F9018951F920F920FB60F9291
:102FC00011240BB60F922F933F934F935F936F9300
:102FD0007F938F939F93AF93BF93EF93FF938BEE6A
:102FE00094E036D3FF91EF91BF91AF919F918F9174
:102FF0007F916F915F914F913F912F910F900BBEF9
:103000000F900FBE0F901F9018951F920F920FB642
:103010000F9211240BB60F922F933F934F935F9310
:103020006F937F938F939F93AF93BF93EF93FF9390
:1030300088E895E0E8DAFF91EF91BF91AF919F9119
:103040008F917F916F915F914F913F912F910F9051
:103050000BBE0F900FBE0F901F9018951F920F92EE
:103060000FB60F9211240BB60F922F933F934F93ED
:103070005F936F937F938F939F93AF93BF93EF93E0
:10308000FF9388E895E0E4D2FF91EF91BF91AF9173
:103090009F918F917F916F915F914F913F912F9170
:1030A0000F900BBE0F900FBE0F901F9018951F92A0
:1030B0000F920FB60F9211240BB60F922F933F93DE
:1030C0004F935F936F937F938F939F93AF93BF9330
:1030D000EF93FF9385E296E096DAFF91EF91BF912F
:1030E000AF919F918F917F916F915F914F913F91A0
:1030F0002F910F900BBE0F900FBE0F901F90189541
:103100001F920F920FB60F9211240BB60F922F93AE
:103110003F934F935F936F937F938F939F93AF935F
:10312000BF93EF93FF9385E296E092D2FF91EF91E8
:10313000BF91AF919F918F917F916F915F914F91CF
:103140003F912F910F900BBE0F900FBE0F901F90CD
:10315000189590E0FC013197E231F10508F04EC07E
:103160008827E758FF4F8F4F0C94F72180918000FC
:103170008F7703C0809180008F7D809380000895B9
:1031800080918000877FF9CF84B58F7702C084B5A6
:103190008F7D84BD08958091B0008F7703C08091AA
:1031A000B0008F7D8093B0000895809190008F775C
:1031B00007C0809190008F7D03C080919000877F31
:1031C0008093900008958091A0008F7707C0809130
:1031D000A0008F7D03C08091A000877F8093A00016
:1031E0000895809120018F7707C0809120018F7D05
:1031F00003C080912001877F8093200108950F9361
:103200001F93CF93DF931F92CDB7DEB70091C8060F
:103210001091C906E091F706F091F80682E0199541
:1032200020E030E04AE0B80186EC96E00EDA182F94
:10323000E091F706F091F80683E01995E091F70622
:10324000F091F80680E019951123A1F16091C8066C
:103250007091C9069E012F5F3F4F46E486EC96E0D1
:10326000F4D989818093C6066091C8067091C90619
:103270009E012F5F3F4F47E486EC96E0E6D98981B7
:103280008093C7066091C8067091C90620E030E0BF
:1032900048E486EC96E0D9D98093D1066091C806BF
:1032A0007091C90629EF36E047E186EC96E0CDD96A
:1032B00081E001C080E00F90DF91CF911F910F91CD
:1032C0000895BC0185E296E031CB0F931F93CF9315
:1032D000E091D406F091D506309719F086EC96E08F
:1032E00019950091C8061091C906E091F706F09172
:1032F000F80682E01995E091F706F091F80681E072
:10330000199520E030E045E1B80186EC96E09DD9C2
:10331000C82F882339F029EF36E047E1B80186EC61
:1033200096E093D9E091F706F091F80680E01995C0
:103330008C2FCF911F910F910895EF92FF920F93D1
:103340001F93CF93DF93F82E062FE42E152FE091D5
:10335000DB06F091DC0686EC96E01995080FCE2D81
:10336000D12F10E02991222341F0402F6F2D86ECC0
:1033700096E06FD9F80E180FF5CF812FDF91CF911E
:103380001F910F91FF90EF9008954F925F926F926F
:103390007F928F929F92AF92BF92CF92DF92EF92E5
:1033A000FF920F931F93CF93DF93CDB7DEB7A19713
:1033B0000FB6F894DEBF0FBECDBF8C016A017B0152
:1033C00077FF2DC0DC01ED91FC910190F081E02DA3
:1033D0006DE219955C0122273327A9012C193D09BB
:1033E0004E095F0919A2FE01B1967F019AE0492EAC
:1033F000512C612C712CCA01B901A3019201D5D7BE
:10340000605DD7016E937D012115310541055105A0
:1034100091F7BD01C8018ADA8A0D9B1D1CC09A0173
:10342000AB0119A2FE01B1967F018AE0882E912C92
:10343000A12CB12CCA01B901A5019401B6D7605DD8
:10344000D7016E937D01211531054105510591F795
:10345000BD01C8016BDAA1960FB6F894DEBF0FBEAE
:10346000CDBFDF91CF911F910F91FF90EF90DF9033
:10347000CF90BF90AF909F908F907F906F905F9014
:103480004F9008952091CA063091CB06281739072E
:1034900009F444C09093CB068093CA06009709F4C0
:1034A00037C02091DD06FC01211107C03596E4915B
:1034B000E093DE06FC013C960FC0213039F43F96C4
:1034C000E491E093DE06FC01709606C03D96E4911F
:1034D000E093DE06FC013E9684918093DF068091A6
:1034E000DE06082E000C990B2091DF06821B910945
:1034F00027FD93952091E006203441F0829FC00182
:10350000112426E0969587952A95E1F78093E106A8
:103510008EEC9EE09093DC068093DB060895CF93BB
:10352000DF938091FF06811104C081E08093FF0644
:1035300066DEC091C806D091C906E091F706F09109
:10354000F80682E01995E091F706F091F80681E01F
:10355000199520E030E044E1BE0186EC96E075D894
:1035600029EF36E047E1BE0186EC96E06ED8E091A7
:10357000F706F091F80680E0DF91CF911994FC01F5
:10358000A089B18982E08C93A485B5851C92A6851B
:10359000B78580E18C93108EA489B58986E08C93E1
:1035A000A289B3898C9180618C93A289B3898C9113
:1035B00088608C93A289B3898C9180688C930288EF
:1035C000F389E02D80818F7D80830895CF93DF93F1
:1035D000BC0185E296E0AAD9EC0161E472E085E2E3
:1035E00096E0A4D98C0F9D1FDF91CF9108955FCBFA
:1035F000EF92FF920F931F93CF93DF9361157105A5
:1036000011F480E01EC0FB0101900020E9F7319722
:10361000E61BF70BA9F07B01EC010C811D810E0F5D
:103620001F1FB8012CDC882361F3288139818C812C
:103630009D81B701820F931F0E9421241D830C835B
:1036400081E0DF91CF911F910F91FF90EF9008954E
:10365000FC01A089B1898C91A689B78982FD0FC030
:103660009C91818D8F5F8F73228D821749F0218D00
:10367000DF01A20FB11D5D969C93818F08958C91FF
:103680000895CF93DF93282F30E0F901E850F44EEE
:103690008491F901EE54F44ED491F901E459F44EB9
:1036A000C491CC2389F0811154DDEC2FF0E0EE0FB2
:1036B000FF1FEE5AF44EA591B491EC91ED2381E0F9
:1036C00090E021F480E002C080E090E0DF91CF91B3
:1036D00008951F93CF93DF93282F30E0F901E8502E
:1036E000F44E8491F901EE54F44ED491F901E45969
:1036F000F44EC491CC23B9F0162F81112ADDEC2FA2
:10370000F0E0EE0FFF1FE85CF44EA591B4919FB777
:10371000F894111104C08C91D095D82302C0EC917B
:10372000DE2BDC939FBFDF91CF911F910895CF9344
:10373000DF9390E0FC01EE54F44E2491FC01E45937
:10374000F44E8491882361F190E0880F991FFC0169
:10375000E25EF44EC591D491FC01E85CF44EA59173
:10376000B491611109C09FB7F89488812095822394
:103770008883EC912E230BC0623061F49FB7F894DC
:103780008881322F309583238883EC912E2B2C93C4
:103790009FBF06C08FB7F894E8812E2B28838FBF78
:1037A000DF91CF9108958F929F92AF92BF92CF9267
:1037B000DF92EF92FF926B017C01E6DA4B015C0134
:1037C000C114D104E104F104E9F0DEDADC01CB013B
:1037D00088199909AA09BB09883E9340A105B1053A
:1037E00078F321E0C21AD108E108F10888EE880ECA
:1037F00083E0981EA11CB11CC114D104E104F104A2
:1038000021F7DECFFF90EF90DF90CF90BF90AF9089
:103810009F908F900895CF93DF9300D000D0CDB7C5
:10382000DEB7789484B5826084BD84B5816084BD40
:1038300085B5826085BD85B5816085BD80916E004E
:10384000816080936E00109281008091810082607F
:1038500080938100809181008160809381008091BC
:1038600080008160809380008091B10084608093AB
:10387000B1008091B00081608093B0008091910090
:10388000826080939100809191008160809391008B
:10389000809190008160809390008091A10082606F
:1038A0008093A1008091A10081608093A10080910C
:1038B000A00081608093A0008091210182608093AC
:1038C000210180912101816080932101809120015B
:1038D00081608093200180917A00846080937A00D7
:1038E00080917A00826080937A0080917A00816072
:1038F00080937A0080917A00806880937A00109299
:10390000C10045D961E082E012DF61E082E0E1DEE2
:1039100061E08BE20CDF61E08BE2DBDE62E081E202
:1039200006DF62E089E203DF62E080E200DF62E05E
:1039300085E2FDDE62E088E2FADE29D985E296E0E2
:103940001EDE88E895E01BDE8BEE94E018DE69E869
:1039500073E088E895E00E949614E1DD88E591E047
:1039600091DD41EA53E064E18EE1E7DC4DEA53E0AA
:1039700068E284E1E2DC4CEB53E06CE383E2DDDC03
:10398000A4DC8111EBCF8FE27CDE0197E1F360E0F4
:1039900082E09FDE65EC73E085E296E00E9496147B
:1039A00060ED73E088E895E00E94961460EA7FE09D
:1039B00080E090E0F8DE60ED73E088E895E00E943A
:1039C00096146AED73E088E895E00E94961401DA97
:1039D0006093DC047093DD048093DE049093DF0435
:1039E0001092E00407E711E168EB7BE080E090E0F3
:1039F000DADE0130110509F0EBC18091E10481119B
:103A000032C08091E00481112EC060E082E061DE6E
:103A100069E873E088E895E00E94961471D860E642
:103A200079E080E090E0BFDE69E873E088E895E047
:103A30000E94961464EF71E080E090E0B4DE88E8C4
:103A400095E09DDD5DD88BEE94E099DD81E080937B
:103A5000E10476D8BED96093DC047093DD048093D2
:103A6000DE049093DF0461E082E033DE0E94AB1459
:103A7000813009F04CC164EE73E085E296E00E946B
:103A800096148BEE94E05FD9E091FD04F091FE0472
:103A900080818F7E8083E091FD04F091FE0480811F
:103AA000877F8083E091FD04F091FE0480818F7711
:103AB0008083E091FD04F091FE0480818F7D8083FE
:103AC0008091050580930405C090DA04D090DB0452
:103AD0000D2C000CEE08FF08C701B601CED223E979
:103AE00038E144E35FEB04D327ED33EA48E650E4E2
:103AF000B3D320E030E040EB52E4AFD320E030E03D
:103B00004CE852E4AAD320E030E048E453E4A5D3E3
:103B10004B015C016091D8047091D904072E000C10
:103B2000880B990BAAD29B01AC01C501B40195D3B6
:103B3000F8D370930602609305026091D6047091E9
:103B4000D704072E000C880B990B97D22BE531EB8D
:103B50004FE35FEBCDD229E831E446E451E47DD375
:103B600020E030E047ED52E478D320E030E040E759
:103B700051E473D320E030E0A9016FD34B015C0125
:103B80006091D4047091D504072E000C880B990B1A
:103B900074D29B01AC01C501B4015FD3C2D3709351
:103BA000040260930302B701A60185E296E0EDDB13
:103BB00061E472E085E296E00E9496144091D6049A
:103BC0005091D704052E000C660B770B85E296E02A
:103BD000DCDB61E472E085E296E00E9496140E94CC
:103BE00057141A8219821C821B821E821D8264E075
:103BF00070E0CE01019643D929813A8181110CC030
:103C00002115310511F0C901A6D41A8219821E822C
:103C10001D821C821B8208C084E090E09E838D83FD
:103C20006AEE73E0C9010DD660910502709106023B
:103C3000CE0101964BD96FEE73E0CE010196D8DC30
:103C40006091030270910402CE0101963FD962EFA8
:103C500073E0CE010196CCDC4D815E8169817A8171
:103C600088E895E00E94D3154D815E8169817A8153
:103C700085E296E00E94D31560E074E088E895E064
:103C80000E9496146FE074E088E895E00E94961414
:103C900069E174E088E895E00E94961464EF71E0B1
:103CA00080E090E080DD69E274E088E895E00E94C1
:103CB000961467E374E088E895E00E9496140E94E9
:103CC000801566E474E088E895E00E94961460E54B
:103CD00074E088E895E00E9496140E9480156FE5D4
:103CE00074E088E895E00E94961460E177E280E055
:103CF00090E059DD0E9480151092E0041092D304E8
:103D00001092D2041092E10489819A8124D4809186
:103D1000BE048337B1F08091E004811112C010928B
:103D2000D3041092D2048DE694E050DC1092BD04CE
:103D30000E94A01564EC79E080E090E034DD0E9400
:103D4000AB148091BD04882329F08091BD048111BA
:103D50001CC035C08091E0048111F7CFE0DB88E51D
:103D600091E090DB41E754E064E18AE0E6DA44E880
:103D700054E068E28AE0E1DA43E452E06CE38AE08E
:103D8000DCDAA3DA8111EBCFE0CF8091E00481117E
:103D900016C0C5DB81EF90E175DB42E954E064E1D8
:103DA0008AE0CBDA44EA54E068E28AE0C6DA40E12D
:103DB00053E06CE380E0C1DA88DA8111EBCF8091C7
:103DC000BD04882329F08091E00481110E945714DA
:103DD0000E94530E09CE1092EE041092ED0448EEAC
:103DE00053E060E070E04093EF045093F004609380
:103DF000F1047093F2048FE192E09093EC048093CD
:103E0000EB0425E331E03093F8042093F70424E336
:103E100031E03093FA042093F90420E331E0309349
:103E2000FC042093FB0421E331E03093FE04209353
:103E3000FD0422E331E0309300052093FF0426E3E4
:103E400031E0309302052093010510920405109291
:103E50000505109206051092070510928B05109229
:103E60008A0540938C0550938D0560938E05709361
:103E70008F05909389058093880525ED30E0309378
:103E800095052093940524ED30E030939705209319
:103E9000960520ED30E0309399052093980521EDAB
:103EA00030E030939B0520939A0522ED30E030936B
:103EB0009D0520939C0526ED30E030939F052093CF
:103EC0009E051092A1051092A2051092A3051092D2
:103ED000A4051092280610922706409329065093B5
:103EE0002A0660932B0670932C06909326068093E7
:103EF000250685EC90E0909332068093310684ECA1
:103F000090E0909334068093330680EC90E0909399
:103F100036068093350681EC90E0909338068093C6
:103F2000370682EC90E090933A068093390686EC4F
:103F300090E090933C0680933B0610923E061092D0
:103F40003F0610924006109241061092C50610924C
:103F5000C40681E392E09093C3068093C206109258
:103F6000FD061092FE061092FF061092CB061092EC
:103F7000CA061092CD061092CC061092CF0681E0B0
:103F80008093CE0682E28093D0061092D5061092DE
:103F9000D406E9EEF6E08FEF819396E0E73FF9076C
:103FA000D9F781E08093E6062EEC3EE03093DC0604
:103FB0002093DB068093DD061092DE061092DF066A
:103FC00080E48093E0061092E10681E89EE0909301
:103FD000F8068093F7068FE092E09093C9068093ED
:103FE000C8068EE18093ED0683E28093EE068AE2B6
:103FF0008093EB068CE28093EA068FEF8093E906CC
:10400000FED881E392E09093C3068093C2060895A0
:10401000BB274A3031F4992322F4BDE29095819573
:104020009F4F01C0BB27FB015527AA27880F991F67
:10403000AA1FA41710F0A41B83955051B9F7A05DD7
:10404000AA3308F0A95DA193009779F7B111B19354
:104050001192CB0100C0DC01FC01672F7191772325
:10406000E1F7329704C07C916D9370836291AE1733
:10407000BF07C8F30895E89409C097FB3EF49095F4
:104080008095709561957F4F8F4F9F4F9923A9F031
:10409000F92F96E9BB279395F695879577956795C0
:1040A000B795F111F8CFFAF4BB0F11F460FF1BC004
:1040B0006F5F7F4F8F4F9F4F16C0882311F096E997
:1040C00011C0772321F09EE8872F762F05C0662345
:1040D00071F096E8862F70E060E02AF09A95660FFE
:1040E000771F881FDAF7880F9695879597F90895B7
:1040F0000BD078C069D028F06ED018F0952309F065
:104100005AC05FC01124A2C07ED0A0F3959FD1F306
:10411000950F50E0551F629FF001729FBB27F00D75
:10412000B11D639FAA27F00DB11DAA1F649F6627CA
:10413000B00DA11D661F829F2227B00DA11D621F19
:10414000739FB00DA11D621F839FA00D611D221FD3
:10415000749F3327A00D611D231F849F600D211DB7
:10416000822F762F6A2F11249F5750408AF0E1F05A
:1041700088234AF0EE0FFF1FBB1F661F771F881FA3
:1041800091505040A9F79E3F510570F014C05EC099
:104190005F3FECF3983EDCF3869577956795B7958E
:1041A000F795E7959F5FC1F7FE2B880F911D9695B8
:1041B000879597F9089597F99F6780E870E060E028
:1041C00008959FEF80EC089500240A9416161706B0
:1041D00018060906089500240A94121613061406F8
:1041E00005060895092E0394000C11F4882352F05B
:1041F000BB0F40F4BF2B11F460FF04C06F5F7F4F13
:104200008F4F9F4F089557FD9058440F551F59F0F9
:104210005F3F71F04795880F97FB991F61F09F3FB3
:1042200079F087950895121613061406551FF2CFDC
:104230004695F1DF08C0161617061806991FF1CF2C
:1042400086957105610508940895E894BB27662753
:104250007727CB0197F908955058BB27AA270ED08E
:10426000C1CFB2DF30F0B7DF20F031F49F3F11F45F
:104270001EF4A7CF0EF4E095E7FB9DCFE92FC3DF37
:1042800080F3BA17620773078407950718F071F473
:104290009EF5DBCF0EF4E0950B2EBA2FA02D0B016F
:1042A000B90190010C01CA01A0011124FF27591B7B
:1042B00099F0593F50F4503E68F11A16F040A22F81
:1042C000232F342F4427585FF3CF469537952795F2
:1042D000A795F0405395C9F77EF41F16BA0B620BF1
:1042E000730B840BBAF09150A1F0FF0FBB1F661F38
:1042F000771F881FC2F70EC0BA0F621F731F841F7B
:1043000048F4879577956795B795F7959E3F08F0A0
:10431000B3CF9395880F08F09927EE0F979587955F
:10432000089504D06894B11191CF089574DF88F096
:104330009F5790F0B92F9927B751A0F0D1F0660F91
:10434000771F881F991F1AF0BA95C9F712C0B130AC
:1043500081F07BDFB1E0089578CF672F782F882731
:10436000B85F39F0B93FCCF3869577956795B395EB
:10437000D9F73EF490958095709561957F4F8F4F5A
:104380009F4F089597FB072E16F4009406D077FDF3
:1043900008D035D007FC05D03EF4909581959F4F0D
:1043A0000895709561957F4F0895A1E21A2EAA1B7A
:1043B000BB1BFD010DC0AA1FBB1FEE1FFF1FA217D5
:1043C000B307E407F50720F0A21BB30BE40BF50BD2
:1043D000661F771F881F991F1A9469F7609570955B
:1043E000809590959B01AC01BD01CF010895EE0F22
:1043F000FF1F881F8BBF0790F691E02D1994AA1B11
:10440000BB1B51E107C0AA1FBB1FA617B70710F0BF
:10441000A61BB70B881F991F5A95A9F780959095F1
:10442000BC01CD0108950F931F93CF93DF9382308A
:10443000910510F482E090E0E0918207F09183070B
:1044400020E030E0A0E0B0E0309719F140815181E8
:104450000281138148175907C8F08417950769F43A
:10446000109731F012960C93129713961C9327C055
:10447000009382071093830722C02115310519F09C
:104480004217530718F49A01BD01EF01DF01F8014B
:10449000DBCF21153105F9F0281B390B243031050C
:1044A00080F48A819B816115710521F0FB01938362
:1044B000828304C09093830780938207FE01329623
:1044C00044C0FE01E20FF31F819391932250310902
:1044D000398328833AC02091800730918107232BAC
:1044E00041F42091170230911802309381072093F4
:1044F000800720911502309116022115310541F4F3
:104500002DB73EB74091190250911A02241B350B6A
:10451000E0918007F0918107E217F307A0F42E1BCA
:104520003F0B2817390778F0AC014E5F5F4F241717
:10453000350748F04E0F5F1F509381074093800767
:104540008193919302C0E0E0F0E0CF01DF91CF9141
:104550001F910F910895CF93DF93009709F481C0C5
:10456000FC01329713821282A0918207B0918307D7
:10457000109781F420813181820F931F2091800751
:10458000309181072817390751F5F0938107E0939F
:10459000800767C0ED0120E030E0CE17DF0740F470
:1045A0004A815B819E0141155105F1F0EA01F5CF89
:1045B000D383C28340815181840F951FC817D907C7
:1045C00059F488819981840F951F02969183808385
:1045D0008A819B81938382832115310529F4F0938D
:1045E0008307E09382073DC0E901FB83EA83499199
:1045F0005991C40FD51FEC17FD0761F4808191819B
:10460000840F951F0296E9019983888382819381A3
:104610009B838A83E0E0F0E012968D919C91139742
:10462000009719F0FD01DC01F7CF8D919C91119756
:104630009D012E5F3F4F820F931F20918007309185
:1046400081072817390769F4309729F410928307F6
:104650001092820702C013821282B0938107A09346
:104660008007DF91CF9108956F927F928F929F92F2
:10467000AF92BF92CF92DF92EF92FF920F931F9370
:10468000CF93DF93009781F4CB01DF91CF911F91FE
:104690000F91FF90EF90DF90CF90BF90AF909F90E1
:1046A0008F907F906F90BFCEFC01E60FF71F9C01AB
:1046B00022503109E217F30708F4A5C0EC01D90133
:1046C0000D911C91119706171707A8F005301105D9
:1046D00008F497C0C80104978617970708F491C09B
:1046E00002501109061B170B019311936D937C93D4
:1046F000CF0131DF86C05B01A01AB10A4C01800EE8
:10470000911EA0918207B0918307612C712CE12C3E
:10471000F12C109709F446C08D919C911197A81522
:10472000B905B1F56C0142E0C40ED11CCA14DB041A
:1047300078F14C018A189B08640142E0C40ED11C38
:104740001296BC9012971396AC91B5E0CB16D1049B
:1047500040F0B282A38391828082D9016D937C93D1
:1047600009C00E5F1F4F800F911FF9019183808355
:10477000EB2DFA2FE114F10431F0D7011396FC93DD
:10478000EE9312973EC0F0938307E093820739C0FF
:104790006816790608F43C017D0112960D90BC91D3
:1047A000A02DB7CF80918007909181078816990638
:1047B000E1F466167706C8F480911502909116020E
:1047C000009741F48DB79EB74091190250911A029B
:1047D000841B950BE817F907B0F4F0938107E09379
:1047E0008007F901718360830CC0CB011CDE7C0162
:1047F000009749F0A801BE011BD0CE01ACDEC70175
:1048000004C0CE0102C080E090E0DF91CF911F9103
:104810000F91FF90EF90DF90CF90BF90AF909F905F
:104820008F907F906F90089581E090E0F89410C091
:10483000FB01DC0102C001900D9241505040D8F7BD
:104840000895FB01DC0101900D920020E1F708952D
:04485000F894FFCF0A
:10485400010004410086000840000000800007DBDE
:104864000F07020D110000840780000000000057AC
:1048740016D315FD15A3162E160C162016000000CF
:10488400003114D3150011FF10627574746F6E201B
:10489400620D0A00627574746F6E20630D0A006203
:1048A4007574746F6E413A72656463756265006213
:1048B4007574746F6E423A677265656E637562658E
:1048C40000627574746F6E433A79656C6C6F7763CC
:1048D40075626500627574746F6E443A6F666665DE
:1048E40073746D6F6465006A6F79737469636B20A8
:1048F40075700D0A006A6F79737469636B20646F55
:10490400776E0D0A006A6F79737469636B206C6546
:1049140066740D0A006A6F79737469636B20726937
:104924006768740D0A006A6F79737469636B206336
:10493400656E7465720D0A002020206F66666573CB
:1049440074206D6F646520002020785F6F66666553
:1049540073743A002020795F6F66666573743A0059
:10496400627574746F6E443A63686F6F7365206325
:104974007562650020202068616E64696E6720633B
:10498400756265202000202020783A0020202079BC
:104994003A0073746F7000676574206F70656E6D94
:1049A4007620646174610A007374617475732031D4
:1049B4000A004F555400766973696F6E20737461F1
:1049C400727420666F722066696E64696E67207403
:1049D400686520637562650A0047302058323030BC
:1049E400205930205A313630204631303030300AA8
:1049F40000766973696F6E2064656D6F00636C691E
:104A0400636B20627574746F6E412000746F207341
:104A140074617274005632205354415254210A0076
:104A24004D323430302053300A004D32313232208E
:104A340056310A006D6F76650A0047302058002011
:104A44005900205A313030204631303030300A009D
:104A54004730205A3233204631303030300A004D4E
:104A6400323233312056310A004730205A31323045
:104A7400204631303030300A004732323032204E56
:104A840030205631350A004730205A35302046311F
:104A9400303030300A004D323233312056300A0083
:104AA4004730205A3830204631303030300A004701
:104AB40032323032204E30205639300A006A736B5D
:104AC400006572726F723A646973636F6E6E6563C8
:104AD400742020002077697468206F70656E6D768D
:104AE40020006572726F723A206375626520697383
:104AF400202020006E6F7420657869747320000094
:00000001FF
