:100000000C940A090C943B090C943B090C943B0991
:100010000C943B090C943B090C943B090C943B0950
:100020000C943B090C943B090C943B090C943B0940
:100030000C943B090C943B090C943B090C943B0930
:100040000C943B090C943B090C943B090C943B0920
:100050000C943B090C943B090C943B090C9401183B
:100060000C943B090C94FB0E0C94D20E0C943B099F
:100070000C943B090C943B090C943B090C943B09F0
:100080000C943B090C943B090C943B090C943B09E0
:100090000C943B090C943B090C943B090C94240FE1
:1000A0000C943B090C943B090C9487110C943B096C
:1000B0000C943B090C943B090C943B090C943B09B0
:1000C0000C943B090C943B090C943B090C94A90E2D
:1000D0000C94800E0C943B090C94570E0C942E0E2D
:1000E0000C943B09DD0D230EFF0DFA0D100EDB0DF8
:1000F000190E2A162D161C162016261664163116F1
:1001000035163B163F16431649164D165116641602
:1001100057165B165F16FFE0FFD1AFFF32FFD0FF2F
:10012000FEFFE0FFD1AEFFD0FFFEFFE0FFD11002E7
:10013000FFFEFFD0FFE0FFC1FFD1AED580A83FD3C7
:1001400000408D142002A1C8DA1281CFD9F1DB4022
:100150002EA4A6AFFFD0FFFE00281EF7F60B025A12
:10016000055E20FFFC10FC0CFC00000005000002F6
:100170000C0C050100C0C0C0C0C0C0C0000000C061
:10018000C004050507020790909090900A0F1E0C7E
:1001900001FD04800480090009000900FFC012006D
:1001A00012001200FFC02400240024004800480070
:1001B000050E0E0801FF2070A8A8A8A0603028A88E
:1001C000A8A870200B0D1A0E01FF60409880978040
:1001D000910092006200040008C009201120212033
:1001E000212040C00A0C180D010018002400240032
:1001F0002400280033C0310051008A008A00C44026
:100200007B800105050402078080808080040F0F39
:100210000602FD1020404080808080808080404029
:100220002010040F0F0601FD804020201010101038
:100230001010102020408007070707000510925477
:10024000385492100909120B02FF08000800080038
:100250000800FF80080008000800080002050505E6
:1002600001FDC0C0404080040101070203F002020A
:1002700002050100C0C00510100802FC080810109B
:10028000101020202020404040408080050B0B07AC
:1002900001007050888888888888885070050B0B0A
:1002A00007010020E02020202020202020F8050B3E
:1002B0000B07010070888888081010204848F8054E
:1002C0000B0B0701007088880808300808888870C0
:1002D000070B0B0901001818282848C8FE08080851
:1002E0003E050B0B07010088F08080F0C8080888E5
:1002F0009060050B0B07010030484080F08888882B
:10030000885070060C0C08010080FC8488101010C6
:100310002020202020050B0B0701007088888850C2
:10032000708888888870050B0B07010070508888DA
:1003300088887808109060020707070300C0C00093
:100340000000C0C0020A0A0501FDC0C0000000C0D4
:10035000C040408005090906010108102040804086
:100360002010080A050A0D0202FFC000000000006C
:1003700000FFC00509090601018040201008102077
:100380004080050C0C080100708888102020600057
:10039000000060600A0C180C01001E0021004C8057
:1003A0009340A140A140A140A14093404D8020C076
:1003B0001F000B0B160B0000040004000A000A00CB
:1003C0000A00110011001F0020802080F1E00A0BBC
:1003D000160A0000FF0020802040204020803F00BF
:1003E0002080204020402080FF00090B160A0100D9
:1003F0001E8021804080808080008000800080807E
:10040000408021001E000A0B160A0000FE00218019
:10041000208020402040204020402040208021801B
:10042000FE000A0B160A0100FF8020802080228037
:1004300022003E002240224020802080FF80090BC5
:1004400016090100FF8020802080228022003E00CB
:100450002200220020002000F8000A0B160A0100EA
:100460001E802180408080808000800083C080804A
:10047000408020801F800B0B160B0100FBE02080CA
:100480002080208020803F8020802080208020804D
:10049000FBE0050B0B050100F82020202020202088
:1004A0002020F8060B0B0601007C10101010101015
:1004B000101090E00B0B160B0100F9E020802100DA
:1004C000220024002E003200210021002080F9E0CB
:1004D000080B0B080000F8202020202021212123D8
:1004E000FF0E0B160E0100F03C3030303028502843
:1004F0005028902490249023102310FB7C0B0B1683
:100500000B0100E3E03080308028802880248022A6
:1005100080228021802180F8800A0B160A01001EAB
:1005200000210040808040804080408040804040EA
:100530008021001E00090B16090100FF0021802008
:1005400080208021803F002000200020002000F833
:10055000000A0E1C0A01FD1E002100408080408020
:10056000408040804080405C8033001E00020002DA
:100570004001800B0B160B0100FE002100208020A3
:100580008021003E002300210021002100F8E00628
:100590000B0B0701007C848480403008048484F8BD
:1005A000090B16090100FF80888088808880080078
:1005B000080008000800080008003E000B0B160B9E
:1005C0000100FBE02080208020802080208020808F
:1005D0002080208011000E000B0B160B0100F1E0B3
:1005E000208020801100110011000A000A000A007A
:1005F00004000400100B16100100F1CF21842184A7
:10060000224412481248124814280C300C300810AA
:100610000B0B160B0100F3C0110012000A000C00B6
:1006200004000A001A0011002080F1E00B0B160BE9
:100630000100F1E02080110011000A000E0004000A
:100640000400040004001F00070B0B070100FEC498
:100650008488081022224246FE0310100501FCE0A7
:100660008080808080808080808080808080E005A5
:1006700010100802FC8080404040402020202010C4
:1006800010101008080310100500FCE020202020A6
:1006900020202020202020202020E0050303060128
:1006A000092070880B01020C01FEFFE00304040620
:1006B000030880C0402006070707010070880878FB
:1006C00088887C060C0C070100C0404040407844FC
:1006D0004444444478050707060100708880808000
:1006E0008870060C0C07010018080808087888882C
:1006F0008888887C0507070601007088F880808854
:1007000070050C0C0601003848404040F040404065
:100710004040E0070B0B0801FC3E44444478407C19
:100720008282827C070C0C080100C0404040407867
:100730004444444444EE030B0B040100C0C00000D9
:10074000C04040404040E0040E0E0500FD30300047
:1007500000301010101010101090E0070C0C080161
:1007600000C0404040405E4850705848EE030C0CBA
:10077000040100C040404040404040404040E00B49
:10078000070E0C0100FB8044404440444044404478
:1007900040EEE0070707080100F84444444444EEF3
:1007A00005070706010070888888888870060A0A8D
:1007B0000701FDF84444444444784040E0060A0AF6
:1007C0000701FD7888888888887808081C0507074D
:1007D000060100D06840404040F0050707060100D0
:1007E000788880700888F0060A0A07010020202017
:1007F000F8202020242418070707080100CC4444CF
:100800004444443E080707090100E724242418183B
:10081000180B070E0B0000EEE024802A802A802AA5
:10082000801B001100080707090100E724181818A9
:1008300024E7080A0A0801FDE724242418181810E0
:1008400090E0050707060100F89090204848F80559
:1008500010100601FC18202020202020C02020207D
:1008600020202020180110100302FC80808080804E
:1008700080808080808080808080800510100500CE
:10088000FCC02020202020201820202020202020F4
:10089000C005030308010948A890FFFFFFFFFFFF01
:1008A000FFFFFFFFFFFFFFFFFFFFFFFFFFFFFFFF58
:1008B000FFFFFFFFFFFFFFFFFFFFFF00000005003E
:1008C00000020C0C0501FDC0C0000000C0C0C0C08B
:1008D000C0C0C0050B0B0701FE101070A8A0A0A09F
:1008E000C8704040080C0C09010006091110107C6A
:1008F00010101051B2CC070707090103827C444451
:10090000447C820B0B160C0000F1E0208011000AE1
:10091000007FC00E0004007FC0040004001F00011F
:1009200010100302FC808080808080800000808026
:100930008080808080040D0D0601006090808060C2
:10094000909090601010906005020206010BD8D8BC
:10095000090A140A01033E0041009E80A280A28081
:10096000A080A2809C8041003E000406060501078D
:100970006010709070F007070709010012246CD80E
:100980006C2412060404080102FC0404040301019F
:10099000050003E0090A140A01033E004100BC807F
:1009A000928092809C809280BA8041003E00050136
:1009B0000107010BF8040404060208609090600728
:1009C0000909090201101010FE10101000FE0407A2
:1009D00007050106609010102040F004070705018C
:1009E000066090102010906003040406030B206042
:1009F0004080070A0A0801FD8888888888DAA48070
:100A00008080070F0F0801FC3E74F4F4F474341472
:100A100014141414141414020202040205C0C003B6
:100A200003030702FD4020E003070704010640C05E
:100A300040404040E0040606050107609090906049
:100A4000F007070708010090486C366C48900B0BC4
:100A5000160C01004000C400440044004440E8C0BB
:100A600009400A400BE0104010E00B0B160C01008F
:100A70004000C400440044004400E8C009200820AD
:100A80000840108011E00C0B160D01006000920070
:100A9000120022001220946064A0052005F00820B6
:100AA0000870050C0C0801FD3030000000302020DB
:100AB000408088700B10200B000008000C00040020
:100AC00002000000040004000A000A000A001100ED
:100AD00011001F0020802080F1E00B10200B00008F
:100AE00002000600040008000000040004000A00E0
:100AF0000A000A00110011001F0020802080F1E090
:100B00000B0F1E0B000004000E001100000004007B
:100B100004000A000A000A00110011001F002080D2
:100B20002080F1E00B0F1E0B0000090015001200E1
:100B30000000040004000A000A000A00110011006D
:100B40001F0020802080F1E00B0E1C0B00001B001A
:100B50001B000000040004000A000A000A00110043
:100B600011001F0020802080F1E00B0F1E0B000001
:100B70000600090009000600040004000A000A003B
:100B80000A00110011001F0020802080F1E00E0BF0
:100B9000160F00000FF80A180A080A2812201FE092
:100BA0001224122422082208F7F8090E1C0A01FD5B
:100BB0001E802180408080808000800080008080B6
:100BC000408021001E00080004001C000A10200BB9
:100BD000000010001800080004000000FF802080C2
:100BE0002080228022003E0022402240208020805F
:100BF000FF800A10200B000004000C000800100009
:100C00000000FF8020802080228022003E002240C1
:100C1000224020802080FF800A0F1E0B0000080069
:100C20001C0022000000FF80208020802280220003
:100C30003E002240224020802080FF800A0E1C0BB4
:100C40000000360036000000FF80208020802280D7
:100C500022003E002240224020802080FF8005109C
:100C6000100601004060201000F8202020202020E5
:100C7000202020F80510100601001030204000F858
:100C8000202020202020202020F8050F0F06010022
:100C900020708800F8202020202020202020F80527
:100CA0000E0E060100D8D800F82020202020202099
:100CB0002020F80A0B160B0000FE00218020802067
:100CC000402040F8402040204020802180FE000B42
:100CD0000F1E0C00000900150012000000E3E030B8
:100CE00080308028802880248022802280218021DA
:100CF00080F8800A10200C01001000180008000481
:100D00000000001E00210040808040804080408024
:100D1000408040408021001E000A10200C0100028B
:100D20000006000400080000001E00210040808032
:100D3000408040804080408040408021001E000A6A
:100D40000F1E0C010008001C00220000001E0021E4
:100D50000040808040804080408040804040802132
:100D6000001E000A0F1E0C010012002A00240000C1
:100D7000001E0021004080804080408040804080F4
:100D800040408021001E000A0E1C0C010036003677
:100D90000000001E00210040808040804080408094
:100DA000408040408021001E0007070709010082A3
:100DB0004428102844820A0D1A0C01FF00801F00ED
:100DC00021004280824084408C4088409040508086
:100DD00021003E0040000B10200C010008000C0018
:100DE000040002000000FBE02080208020802080A2
:100DF000208020802080208011000E000B10200C0D
:100E0000010002000600040008000000FBE0208052
:100E10002080208020802080208020802080110061
:100E20000E000B0F1E0C010004000E00110000004C
:100E3000FBE0208020802080208020802080208077
:100E4000208011000E000B0E1C0C01001B001B006B
:100E50000000FBE0208020802080208020802080F7
:100E60002080208011000E000B10200C00000200DA
:100E70000600040008000000F1E0208011001100CD
:100E80000A000E0004000400040004001F00090B07
:100E9000160A0000F80020003E002100208020807B
:100EA000208021003E002000F800060C0C07010005
:100EB0003048484848D84844444444D8060C0C07B5
:100EC000010040602010007088087888887C060C3B
:100ED0000C07010010302040007088087888887C5A
:100EE000060B0B070100207088007088087888883E
:100EF0007C060B0B07010048A890007088087888D2
:100F0000887C060A0A070100D8D80070880878880B
:100F1000887C060B0B070100304848307088087841
:100F200088887C0A070E0B010073808C400FC07804
:100F30000088008C407380050A0A0601FD708880D5
:100F400080808870201070050C0C06010040602025
:100F500010007088F880808870050C0C0601001065
:100F6000302040007088F880808870050B0B0601E7
:100F700000207088007088F880808870050A0A0652
:100F80000100D8D8007088F880808870040C0C04A8
:100F9000000080C040200060202020202070040C31
:100FA0000C0401001030204000C04040404040E0B0
:100FB000050B0B05000020708800602020202020F9
:100FC00070050A0A060000D8D800602020202020E2
:100FD00070050C0C0601005070E0101078888888AD
:100FE000888870070B0B08010048A89000F844445B
:100FF000444444EE050C0C060100406020100070D3
:10100000888888888870050C0C0601001030204004
:101010000070888888888870050B0B060100207096
:10102000880070888888888870050B0B0601004846
:10103000A8900070888888888870050A0A060100D0
:10104000D8D8007088888888887009070E0B01003E
:10105000080008000000FF80000008000800050BE1
:101060000B0601FE08107098A8A8A8C87040800759
:101070000C0C0801004060201000CC44444444445F
:101080003E070C0C0801000818102000CC44444412
:1010900044443E070B0B08010010384400CC444484
:1010A0004444443E070A0A0801006C6C00CC4444E6
:1010B0004444443E080F0F0801FD040C081000E7EB
:1010C0002424241818181090E0060F0F0701FDC003
:1010D00040404040784444444444784040E0080D57
:1010E0000D0801FD363600E7242424181818109046
:1010F000E0000020002300260029002C002F0032F1
:101100000000010000030106010901000021002484
:101110000027002A002D00300033000101000004E8
:101120000107010A0100002200250028002B002EE3
:10113000003100340002010000050108010B010527
:10114000050505070508080808020202020A0A0840
:101150000804040404010101010101010103030366
:101160000303030303040707070C0C0C0C0C0C0C03
:101170000C0202020206060606060606060B0B0B0A
:101180000B0B0B0B0B010210202008081020401045
:10119000204080020102010804020101020408103B
:1011A0002040808040201008040201800402018059
:1011B0004020100804020108040201010204081082
:1011C000204080010204081020408000000A0B0229
:1011D000090C0D0E080703040100000000000000C8
:1011E00000000000000000000000000000000000FF
:1011F00000000000000000121110000000000000BC
:1012000000000000000000000000000000000000DE
:101210000000C71D11241FBECFEFD1E2DEBFCDBF3E
:1012200000E00CBF15E0A0E0B2E0E2E2FFE300E086
:101230000BBF02C007900D92AE31B107D9F728E07D
:10124000AEE1B5E001C01D92AA3CB207E1F719E09A
:10125000CAE0D9E000E006C021970109802FFE0115
:101260000E946A1FC930D10780E00807A9F70E94D1
:1012700090180C948F1F0C940000CF92DF92EF9285
:10128000FF920F931F93CF93DF936C017A018B0131
:10129000C0E0D0E0CE15DF0581F0D8016D918D0161
:1012A000D601ED91FC910190F081E02DC6011995D8
:1012B000892B11F02196EECF7E01C701DF91CF91EE
:1012C0001F910F91FF90EF90DF90CF900895FC0158
:1012D000538D448D252F30E0842F90E0821B930B9B
:1012E000541710F0CF96089501970895FC01918D41
:1012F000828D981761F0828DDF01A80FB11D5D9678
:101300008C91928D9F5F9F73928F90E008958FEFE5
:101310009FEF0895FC01918D828D981731F0828D99
:10132000E80FF11D858D90E008958FEF9FEF0895F0
:10133000FC01918D228D892F90E0805C9F4F821B54
:1013400091098F739927089588E196E0F1DF21E0F4
:10135000892B09F420E0822F089585EB96E0E8DFE1
:1013600021E0892B09F420E0822F089582E597E09F
:10137000DFDF21E0892B09F420E0822F0895FC01B2
:10138000848DDF01A80FB11DA35ABF4F2C91848D0E
:1013900090E001968F739927848FA689B7892C9343
:1013A000A089B1898C91837080648C93938D848D96
:1013B000981306C00288F389E02D80818F7D808399
:1013C0000895EF92FF920F931F93CF93DF93EC0159
:1013D00081E0888F9B8D8C8D981305C0E889F989F1
:1013E000808185FD25C0F62E0B8D10E00F5F1F4F0D
:1013F0000F731127E02E8C8DE8120BC00FB607FC7F
:10140000FACFE889F989808185FFF5CFCE01B7DF72
:10141000F2CF8B8DFE01E80FF11DE35AFF4FF082F2
:101420009FB7F8940B8FEA89FB89808180620AC09C
:101430009FB7F894EE89FF896083E889F9898081F4
:101440008370806480839FBF81E090E0DF91CF91C3
:101450001F910F91FF90EF900895CF93DF93EC01D0
:10146000888D8823C1F0EA89FB89808185FD05C0CC
:10147000A889B9898C9186FD0EC00FB607FCF5CFFF
:10148000808185FFF2CFA889B9898C9185FFEDCF46
:10149000CE0175DFE8CFDF91CF91089580E090E035
:1014A000892B19F063DF81111BC080E090E0892B4C
:1014B00041F080E090E0892B21F00E940000811132
:1014C00012C080E090E0892B19F047DF81110EC037
:1014D00080E090E0892B79F037DF81110AC0089510
:1014E0000E940000E2CF0E940000EBCF0E940000AB
:1014F000EFCF0C940000089585ED8093BC0080919F
:10150000BC0084FDFCCF1092F4050895409147057E
:10151000262F30E0240F311D21323105DCF42091DB
:10152000F4052430C9F4FC0180E090E0861758F4FB
:10153000309147052191DC01A95DBA4FA30FB11D80
:101540002C930196F3CF80914705680F6093470570
:1015500080E0089581E0089582E008950895089557
:101560000895E091AD058091AC05E81730F4F0E006
:10157000E255FA4F808190E008958FEF9FEF089534
:101580009091AD058091AC05981750F4E92FF0E0EB
:10159000E255FA4F208130E09F5F9093AD0502C085
:1015A0002FEF3FEFC90108958091AC0590E02091A5
:1015B000AD05821B91090895CF92DF92EF92FF92C1
:1015C0000F931F93CF93DF937C01CB018A0120916E
:1015D000F505222389F0EB016B01C40ED51ECC1555
:1015E000DD0561F06991D701ED91FC910190F081E9
:1015F000E02DC7011995F3CF642F88DFC801DF9173
:10160000CF911F910F91FF90EF90DF90CF900895B1
:10161000CF93DF931F92CDB7DEB769832091F50595
:101620002223D1F020911706203240F021E030E053
:10163000FC013383228380E090E014C08091F605A2
:10164000E82FF0E0E950FA4F998190838F5F809303
:10165000F6058093170604C061E0CE01019656DFBF
:1016600081E090E00F90DF91CF9108950895DC0123
:101670001696ED91FC91179712968C91481B477026
:1016800081E090E001C0880F4A95EAF7E60FF11D6E
:101690003081222311F0832B02C080958323808325
:1016A0000895FB014181DC0112962C91129742179B
:1016B00060F013962C911397241738F060811596DB
:1016C0002C91621710F42481D2CF0895FC0130814F
:1016D0009281930F92832181921760F494819F5F8E
:1016E00094838381830F821710F08FEF820F83839F
:1016F00081E0089580E00895FC011282808181508C
:1017000083831482089580E008950B96FC018491F0
:1017100008950A96FC0184910895FC01849108952E
:10172000FCDF882321F0823011F083E0089586E009
:101730000895FC01E60FF11D849190E0982F882711
:101740003196E4918E0F911D089568E0F2CF66E026
:10175000F0CF2EE93FE0009729F0F9013197F1F73A
:101760000197F9CF08955091260560912505409184
:10177000240530912305A0912105B0912205E09127
:101780001F05F09120059FB790931E05F89498E0EF
:101790002C9187FF02C0252B01C026232C9320818A
:1017A000242B2083880F208123232083915081F7CD
:1017B00080911E058FBF089590E0FC01E15CFE4E14
:1017C000E491F0E0EE0FFF1FEB5DFE4E25913491AA
:1017D000309322052093210570E0FB01E15CFE4E71
:1017E000E491F0E0EE0FFF1FEB5DFE4E259134918A
:1017F0003093200520931F05FC01EB57FE4E84918A
:1018000080932605FB01EB57FE4E649160932405FF
:101810006095609323058095809325050895DB01ED
:101820001496ED91FC91159720E030E065E0199455
:10183000CF92DF92EF92FF920F931F93CF93DF939C
:101840008C017B016A0180E0F601C49181110AC01C
:10185000CF3F09F454C04C2FB701C801E0DF81111C
:101860004CC052C0CF3F11F44FEFF6CFCE3F09F43A
:101870004DC0C03F08F041C0C03E58F04C2F4F70E3
:10188000D7011496ED91FC91159720E030E062E0CD
:101890000CC0C03D68F04C2F4F70D7011496ED91ED
:1018A000FC91159720E030E063E0C801199525C050
:1018B000C03CF0F0D7011496ED91FC91159720E013
:1018C00030E040E064E0C8011995C295C07FCE5F6A
:1018D000D0E0CE013EDFD7011496ED91FC91159733
:1018E00020E030E041E064E0C8011995CE0104C079
:1018F000C7FD03C08C2F90E02CDF80E001C081E0A9
:10190000BFEFCB1ADB0AA0CF80E001C081E0DF91FE
:10191000CF911F910F91FF90EF90DF90CF9008959E
:10192000AF92BF92CF92DF92FF920F931F93CF930C
:10193000DF936C018B01F42EE90120E1421709F4D9
:1019400053C0241798F03AE0431357C0DB011496B4
:10195000ED91FC91159720E030E042E061E01995AF
:1019600042E351E0B801C60163DF47C081E1481797
:1019700009F43DC0A5E14A1340C0FB01A280B38039
:101980004AE251E0C60154DFD50114964C91406BF8
:10199000B801C60144DFD8011496ED91FC9115976A
:1019A00020E030E041E062E0C6011995F5012681B2
:1019B0003781D8011496ED91FC911597D5011596B4
:1019C0004C9166E0C6011995811102C080E0C2C049
:1019D000D8011496ED91FC91159720E030E040E09D
:1019E00063E0C601199509C041E251E002C046E139
:1019F00051E0B801C6011CDFACC0F80102811381BF
:101A0000F2E3FF1609F46FC0FF15B8F025E1F216F6
:101A100009F474C037E1F31609F485C084E1F812C3
:101A200098C0D8011696ED91FC91179715968C9158
:101A30009F01280F311DC9015AC0A6E4FA1609F406
:101A400081C0B7E4FB1609F480C0EBE3FE1281C04D
:101A500089819B81913029F0933031F4482F88504F
:101A600004C048E0480F01C0482F51E0D801139648
:101A70002C91281708F450E031E0F8012281421738
:101A800008F430E021E0481708F020E0822F852B91
:101A9000382319F4252309F45CC0CA80913061F021
:101AA00038F0923061F0933071F4FF24FA940CC056
:101AB000F12CDD24D39409C0FF24F39405C0F12C4C
:101AC000DD24DA9402C0F12CD12CC7FE03C0BE0184
:101AD000C801E7DD88818D0D888389818F0D898319
:101AE000CC0C99F736C0BE01C801DBDD32C01192C3
:101AF0008E179F07E1F7C801FFDD2BC0C801E6DDA7
:101B0000882309F463CFD8011696ED91FC911797BD
:101B100015968C919F01280F311DC90111928E17C6
:101B20009F07E1F716C01882D80112968C91129780
:101B3000898315968C91159781508A8313968C9181
:101B40008B8307C0F801858103C0D80111968C9161
:101B5000888381E0DF91CF911F910F91FF90DF90FB
:101B6000CF90BF90AF900895089580E090E00895E1
:101B70000E948B1F860F911DFC0183A18F3F19F0DE
:101B8000642F0C9465160895EF92FF920F931F93A4
:101B9000CF93DF93EC01142F7901862F90E0FC01A5
:101BA0003197E730F10508F051C08827EE58FF4F14
:101BB0008F4F0C946A1FE90136C07E018E01035FCE
:101BC0001F4FF70183A18F3F41F061E00E94931600
:101BD00061E0F70183A10E946516FFEFEF1AFF0A8B
:101BE0000E151F0571F740E064E0CE01C3DF40E051
:101BF00065E010C08BA18F3F49F160E025C0411125
:101C000003C041E062E020C040E064E0CE01B2DF0A
:101C100040E062E0CE01AEDF6FA188A5CDDD16C049
:101C2000842FA1DD13C0112389F089919CDD11500F
:101C3000FACF112359F0F701849195DDFFEFEF1AE8
:101C4000FF0A1150F6CF61E0CE0194DF81E0DF9111
:101C5000CF911F910F91FF90EF9008951F920F92D7
:101C60000FB60F9211240BB60F922F933F934F9301
:101C70005F936F937F938F939F93AF93BF93EF93F4
:101C8000FF9388E196E07BDBFF91EF91BF91AF91ED
:101C90009F918F917F916F915F914F913F912F9184
:101CA0000F900BBE0F900FBE0F901F9018951F92B4
:101CB0000F920FB60F9211240BB60F922F933F93F2
:101CC0004F935F936F937F938F939F93AF93BF9344
:101CD000EF93FF9388E196E089D7FF91EF91BF9151
:101CE000AF919F918F917F916F915F914F913F91B4
:101CF0002F910F900BBE0F900FBE0F901F90189555
:101D00001F920F920FB60F9211240BB60F922F93C2
:101D10003F934F935F936F937F938F939F93AF9373
:101D2000BF93EF93FF9385EB96E029DBFF91EF9153
:101D3000BF91AF919F918F917F916F915F914F91E3
:101D40003F912F910F900BBE0F900FBE0F901F90E1
:101D500018951F920F920FB60F9211240BB60F9287
:101D60002F933F934F935F936F937F938F939F93A3
:101D7000AF93BF93EF93FF9385EB96E037D7FF9137
:101D8000EF91BF91AF919F918F917F916F915F91F3
:101D90004F913F912F910F900BBE0F900FBE0F9060
:101DA0001F9018951F920F920FB60F9211240BB629
:101DB0000F922F933F934F935F936F937F938F93E4
:101DC0009F93AF93BF93EF93FF9382E597E0D7DAAA
:101DD000FF91EF91BF91AF919F918F917F916F9103
:101DE0005F914F913F912F910F900BBE0F900FBEBF
:101DF0000F901F9018951F920F920FB60F921124FB
:101E00000BB60F922F933F934F935F936F937F93F4
:101E10008F939F93AF93BF93EF93FF9382E597E0E8
:101E2000E5D6FF91EF91BF91AF919F918F917F91F7
:101E30006F915F914F913F912F910F900BBE0F903B
:101E40000FBE0F901F9018951F920F920FB60F9212
:101E500011240BB60F922F933F934F935F936F9381
:101E60007F938F939F93AF93BF93EF93FF93809153
:101E7000B900887F803609F49CC068F5883209F47F
:101E80005BC090F4803109F454C038F4882309F41D
:101E9000F6C0883009F44DC0F5C0883109F44CC053
:101EA000803209F45DC0EEC0803409F468C048F4A3
:101EB000803309F455C0883309F0E4C08093F205FB
:101EC000D8C0803509F44FC0883509F45DC0883426
:101ED00009F0D8C0D6C0883909F4C7C0A8F488373B
:101EE00009F467C038F4883609F463C0803709F410
:101EF00060C0C8C0883809F4B8C0803909F45FC030
:101F0000803809F0BFC05BC0803B09F486C038F45C
:101F1000803A09F466C0883A09F47FC0B3C0803CB7
:101F200009F4A7C0883C09F4A4C0883B09F48AC01E
:101F3000A9C08091CF0510C09091F1058091F00566
:101F4000981770F5E091F10581E08E0F8093F1050F
:101F5000F0E0E053FA4F80818093BB0085EC86C0AF
:101F60008093F2058EC0E091F10581E08E0F8093A1
:101F7000F1058091BB00F0E0E053FA4F808390912F
:101F8000F1058091F0056EC0E091F10581E08E0FC2
:101F90008093F1058091BB00F0E0E053FA4F80831D
:101FA0008091F30581116DC081E08093CE0584EAB4
:101FB00061C083E08093F40510926905CFCF8091D2
:101FC0006905803208F051C0E091690581E08E0F0B
:101FD000809369058091BB00F0E0E75BFA4F808356
:101FE000BDCF85EC8093BC001092F405809169050B
:101FF000803230F4E0916905F0E0E75BFA4F10823F
:102000006091690570E0E091A805F091A90589E467
:1020100095E019951092690535C084E08093F40528
:102020001092480510924705E091AA05F091AB0582
:10203000199580914705811105C081E0809347057E
:1020400010922705E091480581E08E0F80934805A6
:10205000F0E0E95DFA4F80818093BB0090914805E4
:1020600080914705981708F479CF85E88093BC00E4
:1020700009C085EC8093BC001092F40503C0109257
:10208000F2053ADAFF91EF91BF91AF919F918F9155
:102090007F916F915F914F913F912F910F900BBE68
:1020A0000F900FBE0F901F901895DB01ED91FC91E2
:1020B00019945F926F927F928F929F92AF92BF928C
:1020C000CF92DF92EF92FF920F931F93CF93DF9304
:1020D000EC01E62EF42EC22E0C811D81C8011DDB01
:1020E000D82E8C819D811CDB982E21E0D21203C05A
:1020F0002FE0A22E02C0AA24AA948C819D8109DB24
:10210000D82E8C819D8101DBB82E8C819D811DDBB9
:10211000E0E6EC1538F4009729F0080F191F91E656
:10212000D92E0FC08C819D8112DBF0E4FC1538F4B0
:10213000009729F0080F191F81E4D82E02C00F5E06
:102140001F4FBC1430F4188A1B8A1C8A198A1A8AF9
:1021500075C0BD14C0F3892D90E0F80124912F3F84
:1021600019F40F5F1F4F3FC0CD1034C08C819D818B
:10217000D4DA98012F5F3F4FF801882311F08230A5
:1021800091F484918B8BF90124912C8BF801339677
:10219000E491E88BF8013496E491E98BF8013596E7
:1021A000E491EA8B25C08491982F9F7092509A8B6E
:1021B00082958F70898BF9012491822F8F708C8B7F
:1021C00022952F702B8BF8013296E491E295EF70F7
:1021D000E88B0EC0F8013296E491EA219C012E0FA3
:1021E000311D020F131FBD1409F4ADCFD394B5CF29
:1021F0000115110519F18C819D8192DA2C899A893A
:10220000920FF91A9FEF920F9F0D3CA94EA94F15FF
:1022100018F0931728F402C0931770F09F1560F41C
:102220003B899989E90E9FEF930F9E0D4BA95DA9FC
:102230005E1530F4941730F4888933C080E031C0E3
:10224000941710F49E15C0F7080F111D395F732EF7
:10225000769476947694622E6F0C5E01FCE1AF0E5C
:10226000B11C872C912C6F1439F35E2C68018C2DD6
:10227000801B871590F4F60184916A817B815C8EC6
:10228000FD8E1F8E8E8F95014BE3CE010EDFFFEF8B
:10229000CF1ADF0A28E0520EEACF080D191DF39479
:1022A000E2CFDF91CF911F910F91FF90EF90DF90E0
:1022B000CF90BF90AF909F908F907F906F905F90E6
:1022C0000895DF92EF92FF920F931F93CF93DF93C6
:1022D000EC01D62E1CAD0BAD7C0184E0E80EF11CA8
:1022E000E98DFA8DC7011995412F480F2D2D602FCB
:1022F000C701DFDE9BAD890F8BAF81E090E0DF91FE
:10230000CF911F910F91FF90EF90DF9008951F9252
:102310000F920FB60F9211240BB60F92CF92DF924D
:10232000EF92FF920F931F932F933F934F935F93DF
:102330006F937F938F939F93AF93BF93EF93FF938D
:102340008091890590918A05009721F0019709F401
:102350002DC121C280918B0590918C05A0918D0596
:10236000B0918E05AC01BD0141505109610971095F
:1023700040938B0550938C0560938D0570938E056B
:10238000892B8A2B8B2B19F0889A88980FC0E091A3
:10239000A405F091A505309709F019958091720078
:1023A0008D7F8093720081E08093A30580918705E3
:1023B000909188058130910509F4B4C020F002970E
:1023C00009F4D3C0DCC1C0908B05D0908C05E0909F
:1023D0008D05F0908E0560918F057091900580912C
:1023E00091059091920522E030E040E050E00E949B
:1023F0004E1FC216D306E406F5060CF4AFC080915A
:102400009F059091A005A091A105B091A20501960C
:10241000A11DB11D80939F059093A005A093A105D8
:10242000B093A205C0909705D0909805E0909905CB
:10243000F0909A058091970590919805A091990543
:10244000B0919A0500919F051091A0052091A105DA
:102450003091A205BC01CD01660F771F881F991F1F
:1024600052E0000F111F221F331F5A95D1F7A90107
:1024700098012F5F3F4F4F4F5F4F0E944E1FC21A70
:10248000D30AE40AF50AC0929705D0929805E09223
:102490009905F0929A0540919705509198056091A1
:1024A000990570919A0580919B0590919C05A0914A
:1024B0009D05B0919E05481759076A077B070CF0E8
:1024C0005EC180918B0590918C05A0918D05B09196
:1024D0008E0540918F055091900560919105709106
:1024E0009205880F991FAA1FBB1F841B950BA60B73
:1024F000B70B8093930590939405A0939505B093A3
:10250000960580919B0590919C05A0919D05B091A9
:102510009E058093970590939805A0939905B09395
:102520009A05BEC08091930590919405A091950560
:10253000B0919605AC01BD01415051096109710985
:102540004093930550939405609395057093960579
:10255000181619061A061B060CF411C182E090E049
:1025600090938805809387050AC180918B0590918F
:102570008C05A0918D05B0918E05892B8A2B8B2B14
:1025800009F4FDC080919F059091A005A091A1053F
:10259000B091A2050197A109B10980939F0590937D
:1025A000A005A093A105B093A20598C0889A889829
:1025B0008091870590918805009721F0029709F492
:1025C00072C0DDC0409197055091980560919905C2
:1025D00070919A0580919B0590919C05A0919D0515
:1025E000B0919E0584179507A607B7070CF04DC05C
:1025F00080919F059091A005A091A105B091A205A1
:102600000196A11DB11D80939F059093A005A093F5
:10261000A105B093A205C0909705D0909805E090D1
:102620009905F0909A058091970590919805A09151
:102630009905B0919A0500919F051091A0052091F0
:10264000A1053091A205BC01CD01660F771F881F3F
:10265000991FF2E0000F111F221F331FFA95D1F7C7
:10266000A90198012F5F3F4F4F4F5F4F0E944E1FB0
:10267000C21AD30AE40AF50AC0929705D0929805C7
:10268000E0929905F0929A057AC0E091A605F09142
:10269000A705309729F019951092A7051092A60565
:1026A00081E090E05DCF80919F059091A005A09181
:1026B000A105B091A205AC01BD01415051096109CC
:1026C000710940939F055093A0056093A1057093F5
:1026D000A205892B8A2B8B2B09F441C060919705A9
:1026E000709198058091990590919A0500919F05A8
:1026F0001091A0052091A1053091A205C0909F05E1
:10270000D090A005E090A105F090A20542E0000F56
:10271000111F221F331F4A95D1F7A90198012F5F7E
:102720003F4F4F4F5F4F0E94091F9701860152E0B4
:10273000000F111F221F331F5A95D1F7A9019801CD
:1027400021503109410951090E944E1F20939705DC
:10275000309398054093990550939A0510C0809145
:1027600072008D7F80937200E091A605F091A7051D
:10277000309729F019951092A7051092A60580911F
:10278000970590919805A0919905B0919A0590931D
:10279000A9008093A800FF91EF91BF91AF919F9105
:1027A0008F917F916F915F914F913F912F911F91E9
:1027B0000F91FF90EF90DF90CF900F900BBE0F9096
:1027C0000FBE0F901F9018956115710579F0FB01F0
:1027D00001900020E9F73197AF01461B570BDC0150
:1027E000ED91FC910280F381E02D199480E090E05E
:1027F00008958F929F92AF92BF92EF92FF920F93A4
:102800001F93CF93DF93CDB7DEB7A1970FB6F894A0
:10281000DEBF0FBECDBF7C01FA01CB0119A2223071
:1028200008F42AE08E010F5D1F4F822E912CA12CFF
:10283000B12CBF01A50194010E942C1FF901CA010E
:10284000015011096A3014F4605D01C0695CD8015F
:102850006C93232B242B252B61F7B801C701B4DF20
:10286000A1960FB6F894DEBF0FBECDBFDF91CF911A
:102870001F910F91FF90EF90BF90AF909F908F901E
:1028800008956817790718F4861B970B08959B0124
:10289000281B390BC9010895282F309117063132B2
:1028A00008F04AC08091F4058111FCCF9091B408E2
:1028B00042E04093F4052093F3052FEF2093F205B7
:1028C0001092F1053093F005E7EFF5E0A0EDB5E0EB
:1028D00020E0321721F041914D932F5FFACF1092F3
:1028E000CF052091CF05990F922B9093CF05909112
:1028F000CE05913061F41092CE059091CF05909362
:10290000BB009091BC0093FDF8CF95EC01C095EE13
:102910009093BC009091F4059230E1F39091F20510
:102920009F3F79F08091F205803241F08091F2056D
:10293000803331F084E005C081E003C082E001C053
:1029400083E01092F605109217061092F50508958F
:10295000CF93C42F91E09093F50599E29093B4083A
:102960001092F60510921706682F606885EB98E0C4
:102970000E94080B6C2F85EB98E00E94080B81E009
:10298000CF918ACF9091F4059111FCCF982F81328D
:1029900008F090E281E08093F4058093F3052FEF37
:1029A0002093F2051092F105290F2093F0058093F2
:1029B000CF058091CF0582658093CF058091CE05AC
:1029C000813061F41092CE058091CF058093BB00D9
:1029D0008091BC0083FDF8CF85EC01C085EE80932B
:1029E000BC008091F4058130E1F38091F1058917F5
:1029F00010F49091F105E0EDF5E0AEEAB5E080E08D
:102A0000891721F021912D938F5FFACF1092AD0598
:102A10008093AC050895CF93DF9391E09093F505F3
:102A200099E29093B4081092F60510921706682F59
:102A3000606885EB98E00E94080B81E02DDF82E062
:102A400090E0A0DF85EB98E00E94C00AEC0185EBE6
:102A500098E00E94C00A20E030E0382FCE01822B9F
:102A6000932BDF91CF910895CF93DF93BC0182E543
:102A700097E0AADEEC0160E872E082E597E0A4DE70
:102A80008C0F9D1FDF91CF910895FC01A089B18922
:102A900082E08C93A485B5851C92A685B78580E1DC
:102AA0008C93108EA489B58986E08C93A289B38912
:102AB0008C9180618C93A289B3898C9188608C936E
:102AC000A289B3898C9180688C930288F389E02D68
:102AD00080818F7D80830895EF92FF920F931F93E3
:102AE000CF93DF93F82E062FE42E152FE0910808E0
:102AF000F091090883EF97E01995080FCE2DD12F9B
:102B000010E02991222341F0402F6F2D83EF97E0B1
:102B1000D0DAF80E180FF5CF812FDF91CF911F91EA
:102B20000F91FF90EF9008950F931F93CF93DF9332
:102B30001F92CDB7DEB70091F5071091F607E0912F
:102B40002408F091250882E0199520E030E04AE061
:102B5000B80183EF97E0A9DA182FE0912408F091EB
:102B6000250883E01995E0912408F091250880E07C
:102B700019951123A1F16091F5077091F6079E0157
:102B80002F5F3F4F46E483EF97E08FDA8981809390
:102B9000F3076091F5077091F6079E012F5F3F4F95
:102BA00047E483EF97E081DA89818093F4076091AD
:102BB000F5077091F60720E030E048E483EF97E0F6
:102BC00074DA8093FE076091F5077091F60726E2AC
:102BD00038E047E183EF97E068DA81E001C080E008
:102BE0000F90DF91CF911F910F910895FC01A08963
:102BF000B1898C91A689B78982FD0FC09C91818D86
:102C00008F5F8F73228D821749F0218DDF01A20F14
:102C1000B11D5D969C93818F08958C91089590E0ED
:102C2000FC013197E231F10508F04EC08827E758E2
:102C3000FF4F8F4F0C946A1F809180008F7703C0E5
:102C4000809180008F7D8093800008958091800026
:102C5000877FF9CF84B58F7702C084B58F7D84BD1F
:102C600008958091B0008F7703C08091B0008F7D70
:102C70008093B0000895809190008F7707C0809175
:102C800090008F7D03C080919000877F809390009B
:102C900008958091A0008F7707C08091A0008F7D5C
:102CA00003C08091A000877F8093A0000895809149
:102CB00020018F7707C0809120018F7D03C0809114
:102CC0002001877F8093200108951F93CF93DF9386
:102CD000282F30E0F901E553FE4E8491F901EB57BE
:102CE000FE4ED491F901E15CFE4EC491CC23B9F0C3
:102CF000162F811194DFEC2FF0E0EE0FFF1FEB5D3C
:102D0000FE4EA591B4919FB7F894111104C08C9117
:102D1000D095D82302C0EC91DE2BDC939FBFDF91CE
:102D2000CF911F910895CF93DF9390E0FC01EB5773
:102D3000FE4E2491FC01E15CFE4E8491882361F1FA
:102D400090E0880F991FFC01E55FFE4EC591D4917C
:102D5000FC01EB5DFE4EA591B491611109C09FB7D6
:102D6000F8948881209582238883EC912E230BC0D0
:102D7000623061F49FB7F8948881322F30958323B5
:102D80008883EC912E2B2C939FBF06C08FB7F894AD
:102D9000E8812E2B28838FBFDF91CF9108958F92EA
:102DA0009F92AF92BF92CF92DF92EF92FF926B0110
:102DB0007C0102D14B015C01C114D104E104F10496
:102DC000E9F0FAD0DC01CB0188199909AA09BB09FD
:102DD000883E9340A105B10578F321E0C21AD108DD
:102DE000E108F10888EE880E83E0981EA11CB11C52
:102DF000C114D104E104F10421F7DECFFF90EF907C
:102E0000DF90CF90BF90AF909F908F900895CF9319
:102E1000DF931092AD051092AC051092F60510925A
:102E200017061092F405C1E0C093F3051092CE0589
:102E300061E084E14ADF61E085E147DF8091B9002C
:102E40008E7F8093B9008091B9008D7F8093B90007
:102E500088E48093B80085E48093BC008EEA9AE011
:102E60009093AB058093AA058FEA9AE09093A90509
:102E70008093A805C093F50589E28093B408109269
:102E8000F6051092170662E985EB98E00E94080BA0
:102E900081E002DD81E090E075DD85EB98E00E9445
:102EA000C00A843411F08031A1F581E080932F08AD
:102EB000C0913208D0913308AE0160E070E048DD87
:102EC000D0933308C0933208C0913008D0913108B4
:102ED00080912F08811101C09ADFAE0160E070E09F
:102EE0008FE036DDD0933108C093300841E050E0E8
:102EF00060E070E080E02CDD63E070E080E090E076
:102F00004EDF43E050E060E070E080E021DD81E0F2
:102F100001C080E0DF91CF91089521E2E7E8F5E07C
:102F2000DF011D922A95E9F721E030E030938A0510
:102F300020938905899810928805109287056093DF
:102F40009B0570939C0580939D0590939E0580E45E
:102F500096E0A0E0B0E08093970590939805A09349
:102F60009905B0939A0510929F051092A0051092B2
:102F7000A1051092A2058091970590919805A091C6
:102F80009905B0919A059093A9008093A80080912B
:102F90007200826080937200442361F08091870503
:102FA00090918805019731F061E070E080E090E059
:102FB000F6DEF4CF81E008953FB7F8948091C6081B
:102FC0009091C708A091C808B091C90826B5A89BE0
:102FD00005C02F3F19F00196A11DB11D3FBFBA2FAB
:102FE000A92F982F8827820F911DA11DB11DBC010B
:102FF000CD0142E0660F771F881F991F4A95D1F7D0
:1030000008951F920F920FB60F9211242F933F93A2
:103010008F939F93AF93BF938091C2089091C30801
:10302000A091C408B091C5083091C10823E0230FD6
:103030002D3720F40196A11DB11D05C026E8230FF0
:103040000296A11DB11D2093C1088093C2089093E0
:10305000C308A093C408B093C5088091C608909196
:10306000C708A091C808B091C9080196A11DB11D5B
:103070008093C6089093C708A093C808B093C90866
:10308000BF91AF919F918F913F912F910F900FBE64
:103090000F901F901895CF92DF92EF92FF920F93AF
:1030A0001F93E82FF92F05C001501109210931099B
:1030B00061F1908196239417B9F305C0015011096D
:1030C0002109310911F1908196239413F7CFC12C76
:1030D000D12CE12CF12C0AC08FEFC81AD80AE80ACB
:1030E000F80A0C151D052E053F0579F08081862311
:1030F000841791F36C2D7D2D8E2D9F2D1F910F9197
:10310000FF90EF90DF90CF90089560E070E080E056
:1031100090E01F910F91FF90EF90DF90CF90089576
:10312000789484B5826084BD84B5816084BD85B5A2
:10313000826085BD85B5816085BD80916E008160AE
:1031400080936E0010928100809181008260809354
:103150008100809181008160809381008091800056
:103160008160809380008091B10084608093B10081
:103170008091B00081608093B00080919100826066
:103180008093910080919100816080939100809163
:1031900090008160809390008091A1008260809374
:1031A000A1008091A10081608093A1008091A00086
:1031B00081608093A0008091210182608093210131
:1031C00080912101816080932101809120018160A3
:1031D0008093200180917A00846080937A008091AE
:1031E0007A00826080937A0080917A008160809377
:1031F0007A0080917A00806880937A001092C100F2
:1032000082E597E042DC8EE392E02EDC85EB96E0EF
:103210003CDC88E196E039DC62E089E184DD61E054
:1032200082E481DD61E081E47EDD61E080E47BDDDC
:1032300061E087E078DD60E080E447DD61E081E423
:1032400044DD60E082E441DD61E087E03EDD61E095
:103250008BE269DD61E08BE238DD88E390E09093FA
:103260007B0580937A0524E630E03093790520933E
:10327000780527E330E030937705209376052FEF2C
:1032800030E03093750520937405309373052093D7
:10329000720528E730E0309371052093700522EB2A
:1032A00030E030936F0520936E052DE330E03093CE
:1032B0006D0520936C0590936B0580936A05819A48
:1032C000809A579A899A88985F9881E2E7E8F5E0B2
:1032D000DF011D928A95E9F7F8941092A0001092F0
:1032E000A1001092A5001092A40080E496E09093B3
:1032F000A9008093A8008091A10088608093A1001C
:103300008091A10083608093A100789466E472E0CC
:1033100088E196E059DA66E472E085EB96E054DAEB
:1033200060E572E085EB96E04FDA68EE73E080E0EE
:1033300090E035DD60E572E088E196E045DA68EE20
:1033400073E080E090E02BDD62DD10928505109245
:10335000840583E090E0909382058093810568EE78
:1033600073E080E090E01BDD48E6242E41E0342E3F
:1033700058E5852E51E0952E63E8A62E6BE0B62E1B
:10338000CC24CA94D12C80912C08811104C081E0F6
:1033900080932C08C9DBC091F507D091F607E09126
:1033A0002408F091250882E01995E0912408F09115
:1033B000250881E0199520E030E044E1BE0183EF6B
:1033C00097E00E94551026E238E047E1BE0183EF06
:1033D00097E00E945510E0912408F091250880E0C4
:1033E0001995CDE5D1E004E611E08091F7079091C1
:1033F000F8078855914009F43EC09092F8078092F2
:10340000F70780910A08811106C0FE01849180931C
:103410000B08F80110C0813039F4E7E6F1E084913F
:1034200080930B08F10107C0E5E6F1E084918093F9
:103430000B08E6E6F1E0849180930C0880910B087C
:10344000082E000C990B20910C08821B910927FD76
:10345000939520910D08203441F0829FC0011124E2
:1034600036E0969587953A95E1F780930E08B092ED
:103470000908A092080846E652E064E18CE02CDBE3
:1034800044E752E068E28EE127DBFBE4F0932A0890
:1034900088E280932B084090840550908505052C88
:1034A000000C6608770877FE0EC06DE28FEE97E09D
:1034B0000E94611144275527BA014419550966092C
:1034C00077092AE003C02AE0B301A2018FEE97E05A
:1034D00090D9E0910108F0910208309719F083EF3C
:1034E00097E01995E090F507F090F607E091240831
:1034F000F091250882E01995E0912408F0912508C3
:1035000081E0199520E030E045E1B70183EF97E0D5
:103510000E945510782E882341F026E238E047E1DA
:10352000B70183EF97E00E945510E0912408F091D5
:10353000250880E01995711058CF86E16CDAEC010E
:1035400088E169DA8C018AE166DA9C01CE01B60174
:103550006FD4EB016F3F710519F010F0CFEFD0E0A1
:10356000D0937F05C0937E05C901B60161D47B016C
:103570006F3F710521F018F0EE24EA94F12CC80198
:10358000B60156D48B016F3F710519F010F00FEFA3
:1035900010E010937D0500937C05BE0180917A05B3
:1035A00090917B056ED94A97CCF4B801809178054B
:1035B0009091790566D94A978CF4B7018091760588
:1035C000909177055ED94A974CF481E090E0909312
:1035D00082058093810581E195E0D6C2BE0180918C
:1035E0007405909175054DD94A97CCF4B801809136
:1035F00072059091730545D94A978CF4B701809173
:103600007005909171053DD94A974CF482E090E0A5
:10361000909382058093810587E195E0B5C2BE0154
:1036200080916E0590916F052CD94A978CF4B80162
:1036300080916C0590916D0524D94A974CF4B7019F
:1036400080916A0590916B051CD94A970CF496C23B
:1036500083E090E09093820580938105E4EEF1E1B0
:103660008491EEE9F1E1C491E8E5F1E1D491DD2343
:1036700071F08111D4DAED2FF0E0EE0FFF1FEF5063
:10368000FF4EA591B491EC91CE2309F0A2C0809198
:1036900086058111A3C06BE772E082E597E094D8BC
:1036A00081E08093860563E872E085EB96E08CD834
:1036B0006DEE73E080E090E072DB65EA72E085EB2E
:1036C00096E082D860ED77E080E090E068DB65EC22
:1036D00072E085EB96E078D864E670E080E090E0F8
:1036E0005EDB6FEC72E085EB96E06ED860ED77E024
:1036F00080E090E054DB60EF72E085EB96E064D808
:1037000064E670E080E090E04ADB64E073E085EB23
:1037100096E05AD864E670E080E090E040DB6BE130
:1037200073E085EB96E050D860ED77E080E090E0C4
:1037300036DB66E472E085EB96E046D86CE271E039
:1037400080E090E02CDB61E373E085EB96E03CD811
:1037500064E670E080E090E022DB68E473E085EBF3
:1037600096E032D864E670E080E090E018DB60E537
:1037700072E085EB96E028D868EE73E080E090E098
:103780000EDB6FE573E085EB96E01ED864E670E033
:1037900080E090E004DB80919F059091A005A091CE
:1037A000A105B091A2050297A105B10534F440E04E
:1037B00068EC70E080E090E0B0DB8091840590914F
:1037C00085050196909385058093840581E080931B
:1037D000830580918605882309F4CDC14090810539
:1037E0005090820583E04816510409F438C1052C35
:1037F000000C6608770877FE0EC06DE282E597E060
:103800000E94E10944275527BA0144195509660960
:1038100077092AE003C02AE0B301A20182E597E01C
:103820000E94F91360E872E082E597E00E94E413D9
:1038300080918705909188050297C1F082E090E021
:10384000909388058093870580919F059091A005AE
:10385000A091A105B091A2050297A105B10534F090
:1038600061E070E080E090E09ADAEECF62E773E02A
:1038700088E196E00E94E41364EF71E080E090E05C
:103880008EDA68E873E088E196E00E94E4136CED5C
:1038900075E080E090E083DA65EC72E088E196E024
:1038A0000E94E4136CED75E080E090E078DA6DE959
:1038B00073E088E196E00E94E41360E971E080E043
:1038C00090E06DDA63EB73E085EB96E00E94E41321
:1038D00064EF71E080E090E062DA80918105909180
:1038E00082058130910509F478C008F43EC0029742
:1038F00009F0A8C088E994E0B7D86FE974E088E1DE
:1039000096E00E94E41368EE73E080E090E047DA0E
:1039100067EB74E088E196E00E94E41360E971E0EF
:1039200080E090E03CDA6EEC74E088E196E00E9482
:10393000E41364E175E080E090E031DA66E472E07F
:1039400088E196E00E94E41364EE74E088E196E07A
:103950000E94E4136AEF74E088E196E00E94E413A9
:103960006CEB72E080E090E06CC081EC93E07CD87E
:1039700065EC73E088E196E00E94E41368EE73E082
:1039800080E090E00CDA6DED73E088E196E00E9453
:10399000E41368EE73E080E090E001DA64EF73E036
:1039A00088E196E00E94E41368EE73E080E090E026
:1039B000F6D966E472E088E196E00E94E4136AE0DA
:1039C00074E088E196E00E94E41368EE73E080E022
:1039D00090E0E5D960E274E02CC087E394E044D83D
:1039E0006DE374E088E196E00E94E41368EE73E012
:1039F00080E090E0D4D965E574E088E196E00E942B
:103A0000E41364EA76E080E090E0C9D966E472E00D
:103A100088E196E00E94E4136BE674E088E196E0AA
:103A20000E94E41368EE73E080E090E0B8D961E8AA
:103A300074E088E196E00E94E41364E670E080E0C0
:103A400090E0ADD960E572E088E196E00E94E41371
:103A500060E971E080E090E0A2D910928605809143
:103A60008305882309F487C061E080912D085BD924
:103A700060E080912D0829D983E090E00197F1F76B
:103A800061E080912D0821D98FE090E00197F1F756
:103A900060E080912D0819D960E080912D0843D90C
:103AA00080912D0890912E089927FC01EB57FE4E2E
:103AB0006491FC01E15CFE4EE491F0E0EE0FFF1F2B
:103AC000EF50FF4E8591949100E412E42FE030E036
:103AD000462FE1DA611571058105910561F0DC0180
:103AE000CB010196A11DB11DBF7084349240A10588
:103AF000B10508F03EC080918005811136C010925A
:103B0000830580918705909188050297C1F082E036
:103B100090E0909388058093870580919F05909110
:103B2000A005A091A105B091A2050297A105B1053C
:103B300034F061E070E080E090E031D9EECF809128
:103B40009F059091A005A091A105B091A2050297B3
:103B5000A105B10534F441E06AEA70E080E090E04C
:103B6000DCD984E195E00E94341581E080938005E2
:103B700002C0109280050E944E0A05CC1092820568
:103B80001092810581EC93E00E94341567CD10926C
:103B90001B0610921A0688EE93E0A0E0B0E0809336
:103BA0001C0690931D06A0931E06B0931F0622E1EB
:103BB00032E0309319062093180645E351E0509304
:103BC00025064093240644E351E050932706409392
:103BD000260640E351E0509329064093280641E32E
:103BE00051E050932B0640932A0642E351E0509354
:103BF0002D0640932C0646E351E050932F06409348
:103C00002E06109231061092320610923306109250
:103C100034061092B8061092B7068093B9069093B6
:103C2000BA06A093BB06B093BC063093B6062093A9
:103C3000B50645ED50E05093C2064093C10644EDF1
:103C400050E05093C4064093C30640ED50E05093BB
:103C5000C6064093C50641ED50E05093C806409318
:103C6000C70642ED50E05093CA064093C90646EDA0
:103C700050E05093CC064093CB061092CE061092A3
:103C8000CF061092D0061092D106109255071092CE
:103C900054078093560790935707A0935807B09303
:103CA0005907309353072093520725EC30E03093A7
:103CB0005F0720935E0724EC30E030936107209388
:103CC000600720EC30E0309363072093620721EC1B
:103CD00030E0309365072093640722EC30E03093A6
:103CE00067072093660726EC30E03093690720933E
:103CF000680710926B0710926C0710926D07109274
:103D00006E071092B8081092B7088093B908909384
:103D1000BA08A093BB08B093BC0884E292E09093E9
:103D2000B6088093B5081092F2071092F10786E367
:103D300092E09093F0078093EF0710922A08109278
:103D40002B0810922C081092F8071092F707109287
:103D5000FA071092F9071092FC0781E08093FB07A5
:103D600082E28093FD071092020810920108E6E1BA
:103D7000F8E08FEF819398E0E432F907D9F781E01A
:103D80008093130823E83BE0309309082093080848
:103D900080930A0810920B0810920C0880E480931C
:103DA0000D0810920E0886E39BE0909325088093FF
:103DB000240888E092E09093F6078093F5078EE15F
:103DC00080931A0883E280931B088AE28093180884
:103DD0008CE2809317088FEF809316080E94941549
:103DE00086E392E09093F0078093EF0787E190E0FD
:103DF00090932E0880932D0810922F08109233086C
:103E00001092320882E090E090933108809330085D
:103E10000895DB018F939F9365D0BF91AF91A29FCF
:103E2000800D911DA39F900DB29F900D11240895B8
:103E3000AA1BBB1B51E107C0AA1FBB1FA617B707D0
:103E400010F0A61BB70B881F991F5A95A9F78095EC
:103E50009095BC01CD010895A1E21A2EAA1BBB1BAF
:103E6000FD010DC0AA1FBB1FEE1FFF1FA217B30746
:103E7000E407F50720F0A21BB30BE40BF50B661F5C
:103E8000771F881F991F1A9469F760957095809520
:103E900090959B01AC01BD01CF010895052E97FBC4
:103EA00016F400940FD057FD05D0D6DF07FC02D0E2
:103EB00046F408C050954095309521953F4F4F4F9F
:103EC0005F4F089590958095709561957F4F8F4FC6
:103ED0009F4F0895EE0FFF1F881F8BBF0790F6912D
:103EE000E02D199409D0A59F900DB49F900DA49F2B
:103EF000800D911D11240895A29FB001B39FC001B0
:103F0000A39F700D811D1124911DB29F700D811D05
:103F10001124911D089581E090E0F89400C0F89478
:023F2000FFCFD1
:103F22000840000000803408900C0002C40D00001C
:103F32000000E1093D0967092D0A980976098A09F5
:103F420000000000080BDC0AB50DB00AD40AC00A52
:103F5200B10A0000000061113D09B50DB40D5631E2
:103F62002E322E350A004D323233312056300A00BD
:103F720047302058313830205930205A31363020DD
:103F8200463130300A00636F6E7665796F725F6218
:103F9200656C7400636F756E743A00737461727449
:103FA2000D0A004730205836362E3133313320592E
:103FB2002D3232312E31373630205A3130302046D0
:103FC2003130300A004731205836362E3133313302
:103FD20020592D3232312E31373630205A333220A9
:103FE2004634300A004D323233312056310A00470E
:103FF20031205836362E3133313320592D32323179
:104002002E31373630205A313030204631300A00D6
:104012004732323032204E3320563130382046314A
:1040220030300A004730205831363220593138209A
:104032005A31303020463130300A00473120583171
:10404200363220593138205A363120463130300A42
:10405200004731205831383020593138205A313018
:104062003020463130300A00473020583138302075
:10407200593138205A31363020463130300A004723
:1040820032323032204E33205639302046313030F1
:104092000A004730205831353420593636205A38F4
:1040A2003020463130300A00473120583135342033
:1040B200593636205A3533204634300A00473120EB
:1040C2005831353420593636205A3136302046346C
:1040D200300A004732323032204E33205639300A0D
:1040E200005245440047302058313630205931388B
:1040F20030205A31363020463130300A00473120E4
:10410200583136302059313830205A363020463135
:1041120030300A004731205831363020593138309A
:10412200205A3130204634300A0047312058313687
:10413200302059313830205A3630204634300A0087
:10414200473020583136302059313830205A3136F4
:1041520030204635300A00475245454E0047302050
:10416200583136302059323330205A3136302046D9
:104172003130300A0047312058313630205932333D
:1041820030205A3130204634300A0047312058312D
:1041920036302059323330205A3530204634300AF6
:1041A20000473020583136302059323330205A31CE
:1041B2003630204635300A0059454C4C4F5700479F
:1041C2003020583136302059323730205A3136308B
:1041D20020463130300A00473120583136302059DC
:1041E200323830205A363020463130300A004731DA
:1041F20020583136302059323830205A313020465A
:1042020034300A00473120583136302059323830A4
:10421200205A3530204634300A0047302058313693
:10422200302059323830205A313630204635300A63
:0E42320000477265656E0059656C6C6F770011
:00000001FF
