:100000000C940A090C943B090C943B090C943B0991
:100010000C943B090C943B090C943B090C943B0950
:100020000C943B090C943B090C943B090C943B0940
:100030000C943B090C943B090C943B090C943B0930
:100040000C943B090C943B090C943B090C943B0920
:100050000C943B090C943B090C943B090C943A1802
:100060000C943B090C94B00E0C94870E0C943B0935
:100070000C943B090C943B090C943B090C943B09F0
:100080000C943B090C943B090C943B090C943B09E0
:100090000C943B090C943B090C943B090C94E60E20
:1000A0000C943B090C943B090C9449110C943B09AA
:1000B0000C943B090C943B090C943B090C943B09B0
:1000C0000C943B090C943B090C943B090C94510E85
:1000D0000C94280E0C943B090C943B090C943B099E
:1000E0000C943B09D70D1D0EF90DF40D0A0ED50D1C
:1000F000130EE615E915D815DC15E2152016ED15D9
:10010000F115F715FB15FF15051609160D16201626
:10011000131617161B16FFE0FFD1AFFF32FFD0FFFB
:10012000FEFFE0FFD1AEFFD0FFFEFFE0FFD11002E7
:10013000FFFEFFD0FFE0FFC1FFD1AED580A83FD3C7
:1001400000408D142002A1C8DA1281CFD9F1DB4022
:100150002EA4A6AFFFD0FFFE00281EF7F60B025A12
:10016000055E20FFFC10FC0CFC00000005000002F6
:100170000C0C050100C0C0C0C0C0C0C0000000C061
:10018000C004050507020790909090900A0F1E0C7E
:1001900001FD04800480090009000900FFC012006D
:1001A00012001200FFC02400240024004800480070
:1001B000050E0E0801FF2070A8A8A8A0603028A88E
:1001C000A8A870200B0D1A0E01FF60409880978040
:1001D000910092006200040008C009201120212033
:1001E000212040C00A0C180D010018002400240032
:1001F0002400280033C0310051008A008A00C44026
:100200007B800105050402078080808080040F0F39
:100210000602FD1020404080808080808080404029
:100220002010040F0F0601FD804020201010101038
:100230001010102020408007070707000510925477
:10024000385492100909120B02FF08000800080038
:100250000800FF80080008000800080002050505E6
:1002600001FDC0C0404080040101070203F002020A
:1002700002050100C0C00510100802FC080810109B
:10028000101020202020404040408080050B0B07AC
:1002900001007050888888888888885070050B0B0A
:1002A00007010020E02020202020202020F8050B3E
:1002B0000B07010070888888081010204848F8054E
:1002C0000B0B0701007088880808300808888870C0
:1002D000070B0B0901001818282848C8FE08080851
:1002E0003E050B0B07010088F08080F0C8080888E5
:1002F0009060050B0B07010030484080F08888882B
:10030000885070060C0C08010080FC8488101010C6
:100310002020202020050B0B0701007088888850C2
:10032000708888888870050B0B07010070508888DA
:1003300088887808109060020707070300C0C00093
:100340000000C0C0020A0A0501FDC0C0000000C0D4
:10035000C040408005090906010108102040804086
:100360002010080A050A0D0202FFC000000000006C
:1003700000FFC00509090601018040201008102077
:100380004080050C0C080100708888102020600057
:10039000000060600A0C180C01001E0021004C8057
:1003A0009340A140A140A140A14093404D8020C076
:1003B0001F000B0B160B0000040004000A000A00CB
:1003C0000A00110011001F0020802080F1E00A0BBC
:1003D000160A0000FF0020802040204020803F00BF
:1003E0002080204020402080FF00090B160A0100D9
:1003F0001E8021804080808080008000800080807E
:10040000408021001E000A0B160A0000FE00218019
:10041000208020402040204020402040208021801B
:10042000FE000A0B160A0100FF8020802080228037
:1004300022003E002240224020802080FF80090BC5
:1004400016090100FF8020802080228022003E00CB
:100450002200220020002000F8000A0B160A0100EA
:100460001E802180408080808000800083C080804A
:10047000408020801F800B0B160B0100FBE02080CA
:100480002080208020803F8020802080208020804D
:10049000FBE0050B0B050100F82020202020202088
:1004A0002020F8060B0B0601007C10101010101015
:1004B000101090E00B0B160B0100F9E020802100DA
:1004C000220024002E003200210021002080F9E0CB
:1004D000080B0B080000F8202020202021212123D8
:1004E000FF0E0B160E0100F03C3030303028502843
:1004F0005028902490249023102310FB7C0B0B1683
:100500000B0100E3E03080308028802880248022A6
:1005100080228021802180F8800A0B160A01001EAB
:1005200000210040808040804080408040804040EA
:100530008021001E00090B16090100FF0021802008
:1005400080208021803F002000200020002000F833
:10055000000A0E1C0A01FD1E002100408080408020
:10056000408040804080405C8033001E00020002DA
:100570004001800B0B160B0100FE002100208020A3
:100580008021003E002300210021002100F8E00628
:100590000B0B0701007C848480403008048484F8BD
:1005A000090B16090100FF80888088808880080078
:1005B000080008000800080008003E000B0B160B9E
:1005C0000100FBE02080208020802080208020808F
:1005D0002080208011000E000B0B160B0100F1E0B3
:1005E000208020801100110011000A000A000A007A
:1005F00004000400100B16100100F1CF21842184A7
:10060000224412481248124814280C300C300810AA
:100610000B0B160B0100F3C0110012000A000C00B6
:1006200004000A001A0011002080F1E00B0B160BE9
:100630000100F1E02080110011000A000E0004000A
:100640000400040004001F00070B0B070100FEC498
:100650008488081022224246FE0310100501FCE0A7
:100660008080808080808080808080808080E005A5
:1006700010100802FC8080404040402020202010C4
:1006800010101008080310100500FCE020202020A6
:1006900020202020202020202020E0050303060128
:1006A000092070880B01020C01FEFFE00304040620
:1006B000030880C0402006070707010070880878FB
:1006C00088887C060C0C070100C0404040407844FC
:1006D0004444444478050707060100708880808000
:1006E0008870060C0C07010018080808087888882C
:1006F0008888887C0507070601007088F880808854
:1007000070050C0C0601003848404040F040404065
:100710004040E0070B0B0801FC3E44444478407C19
:100720008282827C070C0C080100C0404040407867
:100730004444444444EE030B0B040100C0C00000D9
:10074000C04040404040E0040E0E0500FD30300047
:1007500000301010101010101090E0070C0C080161
:1007600000C0404040405E4850705848EE030C0CBA
:10077000040100C040404040404040404040E00B49
:10078000070E0C0100FB8044404440444044404478
:1007900040EEE0070707080100F84444444444EEF3
:1007A00005070706010070888888888870060A0A8D
:1007B0000701FDF84444444444784040E0060A0AF6
:1007C0000701FD7888888888887808081C0507074D
:1007D000060100D06840404040F0050707060100D0
:1007E000788880700888F0060A0A07010020202017
:1007F000F8202020242418070707080100CC4444CF
:100800004444443E080707090100E724242418183B
:10081000180B070E0B0000EEE024802A802A802AA5
:10082000801B001100080707090100E724181818A9
:1008300024E7080A0A0801FDE724242418181810E0
:1008400090E0050707060100F89090204848F80559
:1008500010100601FC18202020202020C02020207D
:1008600020202020180110100302FC80808080804E
:1008700080808080808080808080800510100500CE
:10088000FCC02020202020201820202020202020F4
:10089000C005030308010948A890FFFFFFFFFFFF01
:1008A000FFFFFFFFFFFFFFFFFFFFFFFFFFFFFFFF58
:1008B000FFFFFFFFFFFFFFFFFFFFFF00000005003E
:1008C00000020C0C0501FDC0C0000000C0C0C0C08B
:1008D000C0C0C0050B0B0701FE101070A8A0A0A09F
:1008E000C8704040080C0C09010006091110107C6A
:1008F00010101051B2CC070707090103827C444451
:10090000447C820B0B160C0000F1E0208011000AE1
:10091000007FC00E0004007FC0040004001F00011F
:1009200010100302FC808080808080800000808026
:100930008080808080040D0D0601006090808060C2
:10094000909090601010906005020206010BD8D8BC
:10095000090A140A01033E0041009E80A280A28081
:10096000A080A2809C8041003E000406060501078D
:100970006010709070F007070709010012246CD80E
:100980006C2412060404080102FC0404040301019F
:10099000050003E0090A140A01033E004100BC807F
:1009A000928092809C809280BA8041003E00050136
:1009B0000107010BF8040404060208609090600728
:1009C0000909090201101010FE10101000FE0407A2
:1009D00007050106609010102040F004070705018C
:1009E000066090102010906003040406030B206042
:1009F0004080070A0A0801FD8888888888DAA48070
:100A00008080070F0F0801FC3E74F4F4F474341472
:100A100014141414141414020202040205C0C003B6
:100A200003030702FD4020E003070704010640C05E
:100A300040404040E0040606050107609090906049
:100A4000F007070708010090486C366C48900B0BC4
:100A5000160C01004000C400440044004440E8C0BB
:100A600009400A400BE0104010E00B0B160C01008F
:100A70004000C400440044004400E8C009200820AD
:100A80000840108011E00C0B160D01006000920070
:100A9000120022001220946064A0052005F00820B6
:100AA0000870050C0C0801FD3030000000302020DB
:100AB000408088700B10200B000008000C00040020
:100AC00002000000040004000A000A000A001100ED
:100AD00011001F0020802080F1E00B10200B00008F
:100AE00002000600040008000000040004000A00E0
:100AF0000A000A00110011001F0020802080F1E090
:100B00000B0F1E0B000004000E001100000004007B
:100B100004000A000A000A00110011001F002080D2
:100B20002080F1E00B0F1E0B0000090015001200E1
:100B30000000040004000A000A000A00110011006D
:100B40001F0020802080F1E00B0E1C0B00001B001A
:100B50001B000000040004000A000A000A00110043
:100B600011001F0020802080F1E00B0F1E0B000001
:100B70000600090009000600040004000A000A003B
:100B80000A00110011001F0020802080F1E00E0BF0
:100B9000160F00000FF80A180A080A2812201FE092
:100BA0001224122422082208F7F8090E1C0A01FD5B
:100BB0001E802180408080808000800080008080B6
:100BC000408021001E00080004001C000A10200BB9
:100BD000000010001800080004000000FF802080C2
:100BE0002080228022003E0022402240208020805F
:100BF000FF800A10200B000004000C000800100009
:100C00000000FF8020802080228022003E002240C1
:100C1000224020802080FF800A0F1E0B0000080069
:100C20001C0022000000FF80208020802280220003
:100C30003E002240224020802080FF800A0E1C0BB4
:100C40000000360036000000FF80208020802280D7
:100C500022003E002240224020802080FF8005109C
:100C6000100601004060201000F8202020202020E5
:100C7000202020F80510100601001030204000F858
:100C8000202020202020202020F8050F0F06010022
:100C900020708800F8202020202020202020F80527
:100CA0000E0E060100D8D800F82020202020202099
:100CB0002020F80A0B160B0000FE00218020802067
:100CC000402040F8402040204020802180FE000B42
:100CD0000F1E0C00000900150012000000E3E030B8
:100CE00080308028802880248022802280218021DA
:100CF00080F8800A10200C01001000180008000481
:100D00000000001E00210040808040804080408024
:100D1000408040408021001E000A10200C0100028B
:100D20000006000400080000001E00210040808032
:100D3000408040804080408040408021001E000A6A
:100D40000F1E0C010008001C00220000001E0021E4
:100D50000040808040804080408040804040802132
:100D6000001E000A0F1E0C010012002A00240000C1
:100D7000001E0021004080804080408040804080F4
:100D800040408021001E000A0E1C0C010036003677
:100D90000000001E00210040808040804080408094
:100DA000408040408021001E0007070709010082A3
:100DB0004428102844820A0D1A0C01FF00801F00ED
:100DC00021004280824084408C4088409040508086
:100DD00021003E0040000B10200C010008000C0018
:100DE000040002000000FBE02080208020802080A2
:100DF000208020802080208011000E000B10200C0D
:100E0000010002000600040008000000FBE0208052
:100E10002080208020802080208020802080110061
:100E20000E000B0F1E0C010004000E00110000004C
:100E3000FBE0208020802080208020802080208077
:100E4000208011000E000B0E1C0C01001B001B006B
:100E50000000FBE0208020802080208020802080F7
:100E60002080208011000E000B10200C00000200DA
:100E70000600040008000000F1E0208011001100CD
:100E80000A000E0004000400040004001F00090B07
:100E9000160A0000F80020003E002100208020807B
:100EA000208021003E002000F800060C0C07010005
:100EB0003048484848D84844444444D8060C0C07B5
:100EC000010040602010007088087888887C060C3B
:100ED0000C07010010302040007088087888887C5A
:100EE000060B0B070100207088007088087888883E
:100EF0007C060B0B07010048A890007088087888D2
:100F0000887C060A0A070100D8D80070880878880B
:100F1000887C060B0B070100304848307088087841
:100F200088887C0A070E0B010073808C400FC07804
:100F30000088008C407380050A0A0601FD708880D5
:100F400080808870201070050C0C06010040602025
:100F500010007088F880808870050C0C0601001065
:100F6000302040007088F880808870050B0B0601E7
:100F700000207088007088F880808870050A0A0652
:100F80000100D8D8007088F880808870040C0C04A8
:100F9000000080C040200060202020202070040C31
:100FA0000C0401001030204000C04040404040E0B0
:100FB000050B0B05000020708800602020202020F9
:100FC00070050A0A060000D8D800602020202020E2
:100FD00070050C0C0601005070E0101078888888AD
:100FE000888870070B0B08010048A89000F844445B
:100FF000444444EE050C0C060100406020100070D3
:10100000888888888870050C0C0601001030204004
:101010000070888888888870050B0B060100207096
:10102000880070888888888870050B0B0601004846
:10103000A8900070888888888870050A0A060100D0
:10104000D8D8007088888888887009070E0B01003E
:10105000080008000000FF80000008000800050BE1
:101060000B0601FE08107098A8A8A8C87040800759
:101070000C0C0801004060201000CC44444444445F
:101080003E070C0C0801000818102000CC44444412
:1010900044443E070B0B08010010384400CC444484
:1010A0004444443E070A0A0801006C6C00CC4444E6
:1010B0004444443E080F0F0801FD040C081000E7EB
:1010C0002424241818181090E0060F0F0701FDC003
:1010D00040404040784444444444784040E0080D57
:1010E0000D0801FD363600E7242424181818109046
:1010F000E000002100240027002A002D00300033EA
:101100000001010000040107010A0100002200257E
:101110000028002B002E00310034000201000005E1
:101120000108010B01000020002300260029002CEB
:10113000002F003200000100000301060109010533
:10114000050505070508080808020202020A0A0840
:101150000804040404010101010101010103030366
:101160000303030303040707070C0C0C0C0C0C0C03
:101170000C0202020206060606060606060B0B0B0A
:101180000B0B0B0B0B010210202008081020401045
:10119000204080020102010804020101020408103B
:1011A0002040808040201008040201800402018059
:1011B0004020100804020108040201010204081082
:1011C000204080010204081020408000000A0B0229
:1011D000090C0D0E080703040100000000000000C8
:1011E00000000000000000000000000000000000FF
:1011F00000000000000000121110000000000000BC
:1012000000000000000000000000000000000000DE
:101210000000301E11241FBECFEFD1E2DEBFCDBFD4
:1012200000E00CBF13E0A0E0B2E0E4E7FFE300E081
:101230000BBF02C007900D92A63CB107D9F726E07C
:10124000A6ECB3E001C01D92A73DB207E1F719E09B
:10125000CAE0D9E000E006C021970109802FFE0115
:101260000E94971FC930D10780E00807A9F70E94A4
:10127000C9180C94B81F0C940000CF92DF92EF9223
:10128000FF920F931F93CF93DF936C017A018B0131
:10129000C0E0D0E0CE15DF0581F0D8016D918D0161
:1012A000D601ED91FC910190F081E02DC6011995D8
:1012B000892B11F02196EECF7E01C701DF91CF91EE
:1012C0001F910F91FF90EF90DF90CF900895FC0158
:1012D000538D448D252F30E0842F90E0821B930B9B
:1012E000541710F0CF96089501970895FC01918D41
:1012F000828D981761F0828DDF01A80FB11D5D9678
:101300008C91928D9F5F9F73928F90E008958FEFE5
:101310009FEF0895FC01918D828D981731F0828D99
:10132000E80FF11D858D90E008958FEF9FEF0895F0
:10133000FC01918D228D892F90E0805C9F4F821B54
:1013400091098F73992708958EE994E0F1DF21E0E8
:10135000892B09F420E0822F08958BE395E0E8DFE4
:1013600021E0892B09F420E0822F0895FC01848D6F
:10137000DF01A80FB11DA35ABF4F2C91848D90E0BF
:1013800001968F739927848FA689B7892C93A0899A
:10139000B1898C91837080648C93938D848D981324
:1013A00006C00288F389E02D80818F7D80830895B7
:1013B000EF92FF920F931F93CF93DF93EC0181E0A5
:1013C000888F9B8D8C8D981305C0E889F989808161
:1013D00085FD25C0F62E0B8D10E00F5F1F4F0F739C
:1013E0001127E02E8C8DE8120BC00FB607FCFACF48
:1013F000E889F989808185FFF5CFCE01B7DFF2CF8B
:101400008B8DFE01E80FF11DE35AFF4FF0829FB76D
:10141000F8940B8FEA89FB89808180620AC09FB7AC
:10142000F894EE89FF896083E889F9898081837067
:10143000806480839FBF81E090E0DF91CF911F9116
:101440000F91FF90EF900895CF93DF93EC01888D7B
:101450008823C1F0EA89FB89808185FD05C0A889C0
:10146000B9898C9186FD0EC00FB607FCF5CF80813F
:1014700085FFF2CFA889B9898C9185FFEDCFCE0188
:1014800075DFE8CFDF91CF91089580E090E0892B60
:1014900019F063DF811120C080E090E0892B41F0DA
:1014A00080E090E0892B21F00E940000811117C09C
:1014B00080E090E0892B19F047DF811113C080E0B4
:1014C00090E0892BA1F080E090E0892B81F00E94D0
:1014D000000081110AC008950E940000DDCF0E9423
:1014E0000000E6CF0E940000EACF0C9400000895AF
:1014F00085ED8093BC008091BC0084FDFCCF1092F0
:10150000790408954091EF03262F30E0240F311D18
:1015100021323105DCF4209179042430C9F4FC0136
:1015200080E090E0861758F43091EF032191DC01C0
:10153000A153BC4FA30FB11D2C930196F3CF809103
:10154000EF03680F6093EF0380E0089581E0089552
:1015500082E00895089508950895E09132048091FD
:101560003104E81730F4F0E0ED5CFB4F808190E04F
:1015700008958FEF9FEF0895909132048091310488
:10158000981750F4E92FF0E0ED5CFB4F208130E03C
:101590009F5F9093320402C02FEF3FEFC90108957F
:1015A0008091310490E020913204821B91090895CA
:1015B000CF92DF92EF92FF920F931F93CF93DF931F
:1015C0007C01CB018A0120917A04222389F0EB016E
:1015D0006B01C40ED51ECC15DD0561F06991D701F4
:1015E000ED91FC910190F081E02DC7011995F3CFA9
:1015F000642F88DFC801DF91CF911F910F91FF9079
:10160000EF90DF90CF900895CF93DF931F92CDB7E7
:10161000DEB7698320917A042223D1F020919D04C2
:10162000203240F021E030E0FC013383228380E06F
:1016300090E014C080917B04E82FF0E0E458FB4F69
:10164000998190838F5F80937B0480939D0404C075
:1016500061E0CE01019656DF81E090E00F90DF91CE
:10166000CF9108950895DC011696ED91FC9117979E
:1016700012968C91481B477081E090E001C0880F62
:101680004A95EAF7E60FF11D3081222311F0832BF2
:1016900002C08095832380830895FB014181DC0192
:1016A00012962C911297421760F013962C91139773
:1016B000241738F0608115962C91621710F424815C
:1016C000D2CF0895FC0130819281930F92832181C2
:1016D000921760F494819F5F94838381830F8217B4
:1016E00010F08FEF820F838381E0089580E00895EA
:1016F000FC0112828081815083831482089580E0EE
:1017000008950B96FC01849108950A96FC0184913A
:101710000895FC0184910895FCDF882321F0823034
:1017200011F083E0089586E00895FC01E60FF11DB5
:10173000849190E0982F88273196E4918E0F911D27
:10174000089568E0F2CF66E0F0CF2EE93FE0009721
:1017500029F0F9013197F1F70197F9CF08955091E8
:10176000CE036091CD034091CC033091CB03A09187
:10177000C903B091CA03E091C703F091C8039FB7B2
:101780009093C603F89498E02C9187FF02C0252B14
:1017900001C026232C932081242B2083880F2081B5
:1017A00023232083915081F78091C6038FBF089532
:1017B00090E0FC01E15CFE4EE491F0E0EE0FFF1FD3
:1017C000E55FFE4E259134913093CA032093C903FF
:1017D00070E0FB01E15CFE4EE491F0E0EE0FFF1FD4
:1017E000E55FFE4E259134913093C8032093C703E3
:1017F000FC01EB57FE4E84918093CE03FB01EB5727
:10180000FE4E64916093CC0360956093CB0380950A
:101810008093CD030895DB011496ED91FC9115970B
:1018200020E030E065E01994CF92DF92EF92FF92D2
:101830000F931F93CF93DF938C017B016A0180E0AC
:10184000F601C49181110AC0CF3F09F454C04C2F56
:10185000B701C801E0DF81114CC052C0CF3F11F485
:101860004FEFF6CFCE3F09F44DC0C03F08F041C066
:10187000C03E58F04C2F4F70D7011496ED91FC915B
:10188000159720E030E062E00CC0C03D68F04C2FBE
:101890004F70D7011496ED91FC91159720E030E040
:1018A00063E0C801199525C0C03CF0F0D70114963B
:1018B000ED91FC91159720E030E040E064E0C80134
:1018C0001995C295C07FCE5FD0E0CE013EDFD70133
:1018D0001496ED91FC91159720E030E041E064E032
:1018E000C8011995CE0104C0C7FD03C08C2F90E03C
:1018F0002CDF80E001C081E0BFEFCB1ADB0AA0CF74
:1019000080E001C081E0DF91CF911F910F91FF90A6
:10191000EF90DF90CF900895AF92BF92CF92DF9279
:10192000FF920F931F93CF93DF936C018B01F42EE3
:10193000E90120E1421709F453C0241798F03AE076
:10194000431357C0DB011496ED91FC91159720E0ED
:1019500030E042E061E0199542E351E0B801C60190
:1019600063DF47C081E1481709F43DC0A5E14A1390
:1019700040C0FB01A280B3804AE251E0C60154DFBF
:10198000D50114964C91406BB801C60144DFD801D3
:101990001496ED91FC91159720E030E041E062E073
:1019A000C6011995F50126813781D8011496ED916C
:1019B000FC911597D50115964C9166E0C6011995D5
:1019C000811102C080E0C2C0D8011496ED91FC9153
:1019D000159720E030E040E063E0C601199509C0AA
:1019E00041E251E002C046E151E0B801C6011CDF0E
:1019F000ACC0F80102811381F2E3FF1609F46FC055
:101A0000FF15B8F025E1F21609F474C037E1F316BA
:101A100009F485C084E1F81298C0D8011696ED91BA
:101A2000FC91179715968C919F01280F311DC901C4
:101A30005AC0A6E4FA1609F481C0B7E4FB1609F40B
:101A400080C0EBE3FE1281C089819B81913029F037
:101A5000933031F4482F885004C048E0480F01C04B
:101A6000482F51E0D80113962C91281708F450E024
:101A700031E0F8012281421708F430E021E04817F4
:101A800008F020E0822F852B382319F4252309F450
:101A90005CC0CA80913061F038F0923061F09330D0
:101AA00071F4FF24FA940CC0F12CDD24D39409C006
:101AB000FF24F39405C0F12CDD24DA9402C0F12C4C
:101AC000D12CC7FE03C0BE01C801E7DD88818D0DA2
:101AD000888389818F0D8983CC0C99F736C0BE012C
:101AE000C801DBDD32C011928E179F07E1F7C801F4
:101AF000FFDD2BC0C801E6DD882309F463CFD801E0
:101B00001696ED91FC91179715968C919F01280FD1
:101B1000311DC90111928E179F07E1F716C0188277
:101B2000D80112968C911297898315968C911597EE
:101B300081508A8313968C918B8307C0F80185812D
:101B400003C0D80111968C91888381E0DF91CF91F9
:101B50001F910F91FF90DF90CF90BF90AF900895AD
:101B6000089580E090E00895860F911DFC0183A107
:101B70008F3F19F0642F0C9469160895EF92FF922D
:101B80000F931F93CF93DF93EC01142F7901862FCE
:101B900090E0FC013197E730F10508F051C088274B
:101BA000EE58FF4F8F4F0C94971FE90136C07E010E
:101BB0008E01035F1F4FF70183A18F3F41F061E06A
:101BC0000E94971661E0F70183A10E946916FFEF5A
:101BD000EF1AFF0A0E151F0571F740E064E0CE0111
:101BE000C3DF40E065E010C08BA18F3F49F160E0AA
:101BF00025C0411103C041E062E020C040E064E044
:101C0000CE01B2DF40E062E0CE01AEDF6FA188A579
:101C1000CFDD16C0842FA3DD13C0112389F0899175
:101C20009EDD1150FACF112359F0F701849197DD11
:101C3000FFEFEF1AFF0A1150F6CF61E0CE0194DFFB
:101C400081E0DF91CF911F910F91FF90EF90089568
:101C50001F920F920FB60F9211240BB60F922F9373
:101C60003F934F935F936F937F938F939F93AF9324
:101C7000BF93EF93FF938EE994E078DBFF91EF91B0
:101C8000BF91AF919F918F917F916F915F914F9194
:101C90003F912F910F900BBE0F900FBE0F901F9092
:101CA00018951F920F920FB60F9211240BB60F9238
:101CB0002F938F939F93EF93FF93E091AE04F09156
:101CC000AF048081E091B404F091B50482FD12C0AC
:101CD00090818091B7048F5F8F732091B804821731
:101CE00051F0E091B704F0E0E256FB4F958F8093FE
:101CF000B70401C08081FF91EF919F918F912F9147
:101D00000F900BBE0F900FBE0F901F9018951F9253
:101D10000F920FB60F9211240BB60F922F933F9391
:101D20004F935F936F937F938F939F93AF93BF93E3
:101D3000EF93FF938BE395E019DBFF91EF91BF9158
:101D4000AF919F918F917F916F915F914F913F9153
:101D50002F910F900BBE0F900FBE0F901F901895F4
:101D60001F920F920FB60F9211240BB60F922F9362
:101D70008F939F93EF93FF93E0914B05F0914C0568
:101D80008081E0915105F091520582FD12C0908151
:101D9000809154058F5F8F7320915505821751F004
:101DA000E0915405F0E0E55CFA4F958F809354057F
:101DB00001C08081FF91EF919F918F912F910F90A2
:101DC0000BBE0F900FBE0F901F9018951F920F9291
:101DD0000FB60F9211240BB60F922F933F934F9390
:101DE0005F936F937F938F939F93AF93BF93EF9383
:101DF000FF938091B900887F803609F49CC068F514
:101E0000883209F45BC090F4803109F454C038F48E
:101E1000882309F4F6C0883009F44DC0F5C0883134
:101E200009F44CC0803209F45DC0EEC0803409F47E
:101E300068C048F4803309F455C0883309F0E4C021
:101E400080937704D8C0803509F44FC0883509F4F1
:101E50005DC0883409F0D8C0D6C0883909F4C7C03D
:101E6000A8F4883709F467C038F4883609F463C0E9
:101E7000803709F460C0C8C0883809F4B8C0803918
:101E800009F45FC0803809F0BFC05BC0803B09F433
:101E900086C038F4803A09F466C0883A09F47FC0F5
:101EA000B3C0803C09F4A7C0883C09F4A4C0883BB7
:101EB00009F48AC0A9C08091540410C0909176049E
:101EC00080917504981770F5E091760481E08E0F8B
:101ED00080937604F0E0EB5AFB4F80818093BB0047
:101EE00085EC86C0809377048EC0E091760481E013
:101EF0008E0F809376048091BB00F0E0EB5AFB4F8D
:101F0000808390917604809175046EC0E091760490
:101F100081E08E0F809376048091BB00F0E0EB5A55
:101F2000FB4F80838091780481116DC081E08093A4
:101F3000530484EA61C083E0809379041092110411
:101F4000CFCF80911104803208F051C0E09111048C
:101F500081E08E0F809311048091BB00F0E0EF5080
:101F6000FC4F8083BDCF85EC8093BC001092790438
:101F700080911104803230F4E0911104F0E0EF50D0
:101F8000FC4F10826091110470E0E091CA06F0915C
:101F9000CB0681EF93E019951092110435C084E0CF
:101FA000809379041092F0031092EF03E091CC0635
:101FB000F091CD0619958091EF03811105C081E064
:101FC0008093EF031092CF03E091F00381E08E0F36
:101FD0008093F003F0E0E153FC4F80818093BB00DD
:101FE0009091F0038091EF03981708F479CF85E87A
:101FF0008093BC0009C085EC8093BC0010927904EA
:1020000003C01092770474DAFF91EF91BF91AF9102
:102010009F918F917F916F915F914F913F912F9100
:102020000F900BBE0F900FBE0F901F901895DB0105
:10203000ED91FC9119945F926F927F928F929F9293
:10204000AF92BF92CF92DF92EF92FF920F931F93C6
:10205000CF93DF93EC01E62EF42EC22E0C811D816E
:10206000C80157DBD82E8C819D8156DB982E21E04C
:10207000D21203C02FE0A22E02C0AA24AA948C81FF
:102080009D8143DBD82E8C819D813BDBB82E8C81DA
:102090009D8157DBE0E6EC1538F4009729F0080F36
:1020A000191F91E6D92E0FC08C819D814CDBF0E485
:1020B000FC1538F4009729F0080F191F81E4D82E79
:1020C00002C00F5E1F4FBC1430F4188A1B8A1C8A92
:1020D000198A1A8A75C0BD14C0F3892D90E0F801E1
:1020E00024912F3F19F40F5F1F4F3FC0CD1034C014
:1020F0008C819D810EDB98012F5F3F4FF801882373
:1021000011F0823091F484918B8BF90124912C8B06
:10211000F8013396E491E88BF8013496E491E98B69
:10212000F8013596E491EA8B25C08491982F9F7031
:1021300092509A8B82958F70898BF9012491822F0E
:102140008F708C8B22952F702B8BF8013296E49137
:10215000E295EF70E88B0EC0F8013296E491EA2127
:102160009C012E0F311D020F131FBD1409F4ADCFBA
:10217000D394B5CF0115110519F18C819D81CCDA6D
:102180002C899A89920FF91A9FEF920F9F0D3CA903
:102190004EA94F1518F0931728F402C0931770F04A
:1021A0009F1560F43B899989E90E9FEF930F9E0D6F
:1021B0004BA95DA95E1530F4941730F4888933C0BB
:1021C00080E031C0941710F49E15C0F7080F111D60
:1021D000395F732E769476947694622E6F0C5E013E
:1021E000FCE1AF0EB11C872C912C6F1439F35E2CDF
:1021F00068018C2D801B871590F4F60184916A810B
:102200007B815C8EFD8E1F8E8E8F95014BE3CE0100
:102210000EDFFFEFCF1ADF0A28E0520EEACF080DDB
:10222000191DF394E2CFDF91CF911F910F91FF9091
:10223000EF90DF90CF90BF90AF909F908F907F9066
:102240006F905F900895DF92EF92FF920F931F932C
:10225000CF93DF93EC01D62E1CAD0BAD7C0184E057
:10226000E80EF11CE98DFA8DC7011995412F480F31
:102270002D2D602FC701DFDE9BAD890F8BAF81E075
:1022800090E0DF91CF911F910F91FF90EF90DF9041
:1022900008951F920F920FB60F9211240BB60F9252
:1022A000CF92DF92EF92FF920F931F932F933F9362
:1022B0004F935F936F937F938F939F93AF93BF934E
:1022C000EF93FF938091AB069091AC06009721F0BD
:1022D000019709F42DC121C28091AD069091AE06FF
:1022E000A091AF06B091B006AC01BD0141505109BB
:1022F000610971094093AD065093AE066093AF0635
:102300007093B006892B8A2B8B2B19F0889A8898AA
:102310000FC0E091C606F091C706309709F01995F5
:10232000809172008D7F8093720081E08093C5065A
:102330008091A9069091AA068130910509F4B4C054
:1023400020F0029709F4D3C0DCC1C090AD06D09054
:10235000AE06E090AF06F090B0066091B1067091C5
:10236000B2068091B3069091B40622E030E040E0DE
:1023700050E00E947B1FC216D306E406F5060CF45B
:10238000AFC08091C1069091C206A091C306B091E2
:10239000C4060196A11DB11D8093C1069093C2068B
:1023A000A093C306B093C406C090B906D090BA06F5
:1023B000E090BB06F090BC068091B9069091BA06F9
:1023C000A091BB06B091BC060091C1061091C20657
:1023D0002091C3063091C406BC01CD01660F771F62
:1023E000881F991F52E0000F111F221F331F5A959B
:1023F000D1F7A90198012F5F3F4F4F4F5F4F0E94C8
:102400007B1FC21AD30AE40AF50AC092B906D09219
:10241000BA06E092BB06F092BC064091B906509114
:10242000BA066091BB067091BC068091BD06909182
:10243000BE06A091BF06B091C006481759076A07AB
:102440007B070CF05EC18091AD069091AE06A09125
:10245000AF06B091B0064091B1065091B2066091BE
:10246000B3067091B406880F991FAA1FBB1F841B67
:10247000950BA60BB70B8093B5069093B606A09369
:10248000B706B093B8068091BD069091BE06A091A4
:10249000BF06B091C0068093B9069093BA06A09388
:1024A000BB06B093BC06BEC08091B5069091B6063F
:1024B000A091B706B091B806AC01BD0141505109D9
:1024C000610971094093B5065093B6066093B7064B
:1024D0007093B806181619061A061B060CF411C1DB
:1024E00082E090E09093AA068093A9060AC18091A9
:1024F000AD069091AE06A091AF06B091B006892BC3
:102500008A2B8B2B09F4FDC08091C1069091C206E5
:10251000A091C306B091C4060197A109B1098093A7
:10252000C1069093C206A093C306B093C40698C098
:10253000889A88988091A9069091AA06009721F020
:10254000029709F472C0DDC04091B9065091BA06F5
:102550006091BB067091BC068091BD069091BE064D
:10256000A091BF06B091C00684179507A607B707CC
:102570000CF04DC08091C1069091C206A091C30697
:10258000B091C4060196A11DB11D8093C106909320
:10259000C206A093C306B093C406C090B906D090FB
:1025A000BA06E090BB06F090BC068091B906909107
:1025B000BA06A091BB06B091BC060091C10610916D
:1025C000C2062091C3063091C406BC01CD01660F3E
:1025D000771F881F991FF2E0000F111F221F331F62
:1025E000FA95D1F7A90198012F5F3F4F4F4F5F4FE9
:1025F0000E947B1FC21AD30AE40AF50AC092B906E8
:10260000D092BA06E092BB06F092BC067AC0E09186
:10261000C806F091C906309729F019951092C9069D
:102620001092C80681E090E05DCF8091C106909144
:10263000C206A091C306B091C406AC01BD014150D1
:102640005109610971094093C1065093C206609314
:10265000C3067093C406892B8A2B8B2B09F441C0C7
:102660006091B9067091BA068091BB069091BC0644
:102670000091C1061091C2062091C3063091C40694
:10268000C090C106D090C206E090C306F090C40688
:1026900042E0000F111F221F331F4A95D1F7A901F5
:1026A00098012F5F3F4F4F4F5F4F0E94361F97019A
:1026B000860152E0000F111F221F331F5A95D1F7D8
:1026C000A901980121503109410951090E947B1F3C
:1026D0002093B9063093BA064093BB065093BC06CC
:1026E00010C0809172008D7F80937200E091C806C7
:1026F000F091C906309729F019951092C9061092E9
:10270000C8068091B9069091BA06A091BB06B09117
:10271000BC069093A9008093A800FF91EF91BF9110
:10272000AF919F918F917F916F915F914F913F9169
:102730002F911F910F91FF90EF90DF90CF900F900E
:102740000BBE0F900FBE0F901F901895611571056D
:1027500079F0FB0101900020E9F73197AF01461BAA
:10276000570BDC01ED91FC910280F381E02D19946F
:1027700080E090E008958F929F92AF92BF92EF9287
:10278000FF920F931F93CF93DF93CDB7DEB7A1973F
:102790000FB6F894DEBF0FBECDBF7C01FA01CB01AE
:1027A00019A2223008F42AE08E010F5D1F4F822EFD
:1027B000912CA12CB12CBF01A50194010E94591F9D
:1027C000F901CA01015011096A3014F4605D01C0B9
:1027D000695CD8016C93232B242B252B61F7B8015E
:1027E000C701B4DFA1960FB6F894DEBF0FBECDBF10
:1027F000DF91CF911F910F91FF90EF90BF90AF901D
:102800009F908F9008956817790718F4861B970B8F
:1028100008959B01281B390BC9010895CF93DF93BD
:10282000BC018BE395E092DFEC0162EC73E08BE39B
:1028300095E08CDF8C0F9D1FDF91CF910895CF9392
:10284000DF93AC0160E070E02AE08BE395E093DF7A
:10285000EC0162EC73E08BE395E078DF8C0F9D1F59
:10286000DF91CF910895282F30919D04313208F0E7
:102870004AC0809179048111FCCF90919C0442E080
:1028800040937904209378042FEF209377041092DB
:10289000760430937504ECE7F4E0A5E5B4E020E0BD
:1028A000321721F041914D932F5FFACF10925404CB
:1028B00020915404990F922B9093540490915304B7
:1028C000913061F410925304909154049093BB00A2
:1028D0009091BC0093FDF8CF95EC01C095EE9093DC
:1028E000BC00909179049230E1F3909177049F3F7E
:1028F00079F080917704803241F0809177048033C1
:1029000031F084E005C081E003C082E001C083E0D3
:1029100010927B0410929D0410927A040895909175
:1029200079049111FCCF982F813208F090E281E078
:1029300080937904809378042FEF2093770410928A
:102940007604290F209375048093540480915404D5
:1029500082658093540480915304813061F4109215
:102960005304809154048093BB008091BC0083FD8C
:10297000F8CF85EC01C085EE8093BC00809179048E
:102980008130E1F380917604891710F490917604F8
:10299000E5E5F4E0A3E3B4E080E0891721F02191BC
:1029A0002D938F5FFACF10923204809331040895F3
:1029B000CF93DF9391E090937A0499E290939C04F3
:1029C00010927B0410929D04682F606888ED95E05A
:1029D0000E94040B81E047DF82E090E0A0DF88EDF9
:1029E00095E00E94BC0AEC0188ED95E00E94BC0ACB
:1029F00020E030E0382FCE01822B932BDF91CF9156
:102A000008950F931F93CF93DF931F92CDB7DEB737
:102A10000091EC051091ED05E0911B06F0911C066C
:102A200082E0199520E030E04AE0B8018AEE95E0B6
:102A3000FEDA182FE0911B06F0911C0683E0199531
:102A4000E0911B06F0911C0680E019951123A1F17D
:102A50006091EC057091ED059E012F5F3F4F46E4BC
:102A60008AEE95E0E4DA89818093EA056091EC05CD
:102A70007091ED059E012F5F3F4F47E48AEE95E090
:102A8000D6DA89818093EB056091EC057091ED05B4
:102A900020E030E048E48AEE95E0C9DA8093F5055D
:102AA0006091EC057091ED052DE136E047E18AEE8D
:102AB00095E0BDDA81E001C080E00F90DF91CF9119
:102AC0001F910F910895FF920F931F93CF93DF9360
:102AD000082FF62E172FE091FF05F09100068AEEE1
:102AE00095E01995080FCF2DD12F10E08EE1F82E2B
:102AF0002991222341F0402F6F2D8AEE95E09BDA39
:102B0000F80E180FF5CF812FDF91CF911F910F9104
:102B1000FF900895FC01A089B18982E08C93A4857F
:102B2000B5851C92A685B78580E18C93108EA4890B
:102B3000B58986E08C93A289B3898C9180618C934E
:102B4000A289B3898C9188608C93A289B3898C9176
:102B500080688C930288F389E02D80818F7D80834B
:102B60000895CF93C42F91E090937A0499E29093C3
:102B70009C0410927B0410929D04682F606888ED7D
:102B800095E00E94040B6C2F88ED95E00E94040BE9
:102B900081E0CF9168CE90E0FC013197E231F10500
:102BA00008F04EC08827E758FF4F8F4F0C94971FAF
:102BB000809180008F7703C0809180008F7D80930B
:102BC0008000089580918000877FF9CF84B58F774A
:102BD00002C084B58F7D84BD08958091B0008F7749
:102BE00003C08091B0008F7D8093B00008958091E4
:102BF00090008F7707C0809190008F7D03C08091F7
:102C00009000877F8093900008958091A0008F7737
:102C100007C08091A0008F7D03C08091A000877FB6
:102C20008093A0000895809120018F7707C0809144
:102C300020018F7D03C080912001877F8093200138
:102C400008953FB7F8948091D3069091D406A0914F
:102C5000D506B091D60626B5A89B05C02F3F19F022
:102C60000196A11DB11D3FBFBA2FA92F982F88270C
:102C7000820F911DA11DB11DBC01CD0142E0660F67
:102C8000771F881F991F4A95D1F70895CF93DF9337
:102C9000E4EEF1E18491EEE9F1E1D491E8E5F1E1CE
:102CA000C491CC2389F0811176DFEC2FF0E0EE0F98
:102CB000FF1FEB5DFE4EA591B491EC91ED2381E0F9
:102CC00090E021F480E002C080E090E0DF91CF91BD
:102CD00008951F93CF93DF93282F30E0F901E55338
:102CE000FE4E8491F901EB57FE4ED491F901E15C5F
:102CF000FE4EC491CC23B9F0162F81114CDFEC2F7E
:102D0000F0E0EE0FFF1FE55FFE4EA591B4919FB777
:102D1000F894111104C08C91D095D82302C0EC9185
:102D2000DE2BDC939FBFDF91CF911F910895CF934E
:102D3000DF9390E0FC01EB57FE4E2491FC01E15C37
:102D4000FE4E8491882361F190E0880F991FFC0169
:102D5000EF50FF4EC591D491FC01E55FFE4EA59169
:102D6000B491611109C09FB7F8948881209582239E
:102D70008883EC912E230BC0623061F49FB7F894E6
:102D80008881322F309583238883EC912E2B2C93CE
:102D90009FBF06C08FB7F894E8812E2B28838FBF82
:102DA000DF91CF9108958F929F92AF92BF92CF9271
:102DB000DF92EF92FF926B017C0143DF4B015C01DC
:102DC000C114D104E104F104E9F03BDFDC01CB01E3
:102DD00088199909AA09BB09883E9340A105B10544
:102DE00078F321E0C21AD108E108F10888EE880ED4
:102DF00083E0981EA11CB11CC114D104E104F104AC
:102E000021F7DECFFF90EF90DF90CF90BF90AF9093
:102E10009F908F900895CF93DF9310923204109279
:102E2000310410927B0410929D0410927904C1E049
:102E3000C09378041092530461E084E14ADF61E0BA
:102E400085E147DF8091B9008E7F8093B900809142
:102E5000B9008D7F8093B90088E48093B80085E441
:102E60008093BC008AEA9AE09093CD068093CC06CA
:102E70008BEA9AE09093CB068093CA06C0937A04BB
:102E800089E280939C0410927B0410929D0462E975
:102E900088ED95E00E94040B81E0E5DC81E090E0A4
:102EA0003EDD88ED95E00E94BC0A843411F080314B
:102EB000A1F581E080932406C0912706D0912806D1
:102EC000AE0160E070E04DDED0932806C093270687
:102ED000C0912506D091260680912406811101C05B
:102EE0009ADFAE0160E070E08FE03BDED093260613
:102EF000C093250641E050E060E070E080E031DE04
:102F000063E070E080E090E04EDF43E050E060E09E
:102F100070E080E026DE81E001C080E0DF91CF91AB
:102F200008958F929F92AF92BF92CF92DF92EF92CD
:102F3000FF924B015C01C090C106D090C206E090A8
:102F4000C306F090C406F7FE0EC06DE28BE395E079
:102F50000E94D80944275527BA014C195D096E090A
:102F60007F092AE003C02AE0B701A6018BE395E0C0
:102F700002DC62EC73E08BE395E0E8DB8091C10654
:102F80009091C206A091C306B091C4060297A10514
:102F9000B1050CF065C081E2E9EAF6E0DF011D92BF
:102FA0008A95E9F7D501C401B7FE07C0882799279C
:102FB000DC0188199909AA09BB098093AD06909391
:102FC000AE06A093AF06B093B0068093B10690937F
:102FD000B206A093B306B093B4068EE190E0A0E0F1
:102FE000B0E08093BD069093BE06A093BF06B09359
:102FF000C00680E496E0A0E0B0E08093B90690932C
:10300000BA06A093BB06B093BC06181419041A04A0
:103010001B0414F4899A01C089981092C106109279
:10302000C2061092C3061092C4068091B906909110
:10303000BA06A091BB06B091BC069093A9008093FC
:10304000A800809172008260809372008091C50612
:10305000811107C061E070E080E090E0A4DEF6CF6F
:1030600080E0FF90EF90DF90CF90BF90AF909F9067
:103070008F9008951F920F920FB60F9211242F93E5
:103080003F938F939F93AF93BF938091CF0690917F
:10309000D006A091D106B091D2063091CE0623E0A1
:1030A000230F2D3720F40196A11DB11D05C026E880
:1030B000230F0296A11DB11D2093CE068093CF064B
:1030C0009093D006A093D106B093D2068091D306F8
:1030D0009091D406A091D506B091D6060196A11D77
:1030E000B11D8093D3069093D406A093D506B093D8
:1030F000D606BF91AF919F918F913F912F910F90E5
:103100000FBE0F901F901895CF92DF92EF92FF9213
:103110000F931F93E82FF92F05C0015011092109C2
:10312000310961F1908196239417B9F305C00150DC
:1031300011092109310911F1908196239413F7CFD8
:10314000C12CD12CE12CF12C0AC08FEFC81AD80A5F
:10315000E80AF80A0C151D052E053F0579F0808157
:103160008623841791F36C2D7D2D8E2D9F2D1F911D
:103170000F91FF90EF90DF90CF90089560E070E0A6
:1031800080E090E01F910F91FF90EF90DF90CF9043
:103190000895789484B5826084BD84B5816084BDCF
:1031A00085B5826085BD85B5816085BD80916E00E5
:1031B000816080936E001092810080918100826016
:1031C0008093810080918100816080938100809153
:1031D00080008160809380008091B1008460809342
:1031E000B1008091B00081608093B0008091910027
:1031F0008260809391008091910081608093910022
:10320000809190008160809390008091A100826005
:103210008093A1008091A10081608093A1008091A2
:10322000A00081608093A000809121018260809342
:1032300021018091210181608093210180912001F1
:1032400081608093200180917A00846080937A006D
:1032500080917A00826080937A0080917A00816008
:1032600080937A0080917A00806880937A0010922F
:10327000C1008BE395E04EDC82E492E0CFDA8EE988
:1032800094E048DC62E089E152DD68E472E08EE9B6
:1032900094E05CDA61E08BE24ADD61E08BE219DD0B
:1032A00084E390E0909324048093230480E690E0EC
:1032B000909322048093210489E390E0909320046A
:1032C00080931F048FEF90E090931E0480931D0461
:1032D00090931C0480931B0484E690E090931A045E
:1032E0008093190481EB90E0909318048093170465
:1032F0008BE390E0909316048093150485E390E0AF
:10330000909314048093130461E082E010DD61E087
:1033100083E00DDD61E085E00ADD61E083E0D9DC7A
:1033200061E082E0D6DC61E085E0D3DC819A809ABE
:10333000579A61E082E4FBDC61E081E4F8DC61E063
:1033400080E4F5DC61E087E0F2DC60E080E4C1DC91
:1033500061E081E4BEDC60E082E4BBDC61E087E048
:10336000B8DC899A88985F9881E2E9EAF6E0DF01A3
:103370001D928A95E9F7F8941092A0001092A1008E
:103380001092A5001092A40080E496E09093A9000A
:103390008093A8008091A10088608093A100809113
:1033A000A10083608093A100789435DD81E090E0F6
:1033B000909303028093020210922C0410922B042B
:1033C00083E090E09093300480932F0448E5E42E4E
:1033D00041E0F42E5FE7C52E5BE0D52E68EC862E2B
:1033E000912CA12CB12C80912306811104C081E085
:1033F0008093230606DBC091EC05D091ED05E091AA
:103400001B06F0911C0682E01995E0911B06F091D5
:103410001C0681E0199520E030E044E1BE018AEE0F
:1034200095E00E9417102DE136E047E1BE018AEEDB
:1034300095E00E941710E0911B06F0911C0680E0B9
:1034400019953DE5232E31E0332E04E611E08091FD
:10345000EE059091EF058855914009F43FC0F09238
:10346000EF05E092EE0580910106811106C0F101A1
:10347000849180930206F80111C0813041F4E7E69F
:10348000F1E0849180930206E8E6F1E007C0E5E60A
:10349000F1E0849180930206E6E6F1E08491809366
:1034A000030680910206082E000C990B209103065A
:1034B000821B910927FD939520910406203441F049
:1034C000829FC001112426E0969587952A95E1F701
:1034D00080930506D0920006C092FF056EE572E06B
:1034E00084E1F1DA65E672E088E2EDDAFBE4F0937C
:1034F000210688E28093220640902B0450902C04F1
:10350000052C000C6608770877FE0EC06DE286EE8B
:1035100095E00E94231144275527BA014419550903
:10352000660977092AE003C02AE0B301A20186EE0A
:1035300095E021D9E091F805F091F905309719F05F
:103540008AEE95E01995C091EC05D091ED05E091DA
:103550001B06F0911C0682E01995E0911B06F09184
:103560001C0681E0199520E030E045E1BE018AEEBD
:1035700095E00E941710782E882341F02DE136E067
:1035800047E1BE018AEE95E00E941710E0911B060C
:10359000F0911C0680E01995711059CF77DB0197E7
:1035A00009F05CC180912E04811158C180911204F0
:1035B000811154C188EA93E031D968E474EF8FEF48
:1035C0009FEFAFDC81E08093120480911204882386
:1035D00009F454C080912E04811150C057DB892B0F
:1035E00009F04CC08091C1069091C206A091C3061B
:1035F000B091C4060297A105B1050CF03FC0E9EAFD
:10360000F6E081E2DF011D928A95E9F781E090E022
:103610009093AC068093AB06899A1092AA061092FA
:10362000A9068092BD069092BE06A092BF06B092F7
:10363000C00680E496E0A0E0B0E08093B9069093E5
:10364000BA06A093BB06B093BC061092C1061092B6
:10365000C2061092C3061092C4068091B9069091DA
:10366000BA06A091BB06B091BC069093A9008093C6
:10367000A8008091720082608093720007DB01973E
:10368000E1F4809112048823C1F080912E0481110D
:1036900014C084EB93E0C2D88091A9069091AA0649
:1036A000029731F082E090E09093AA068093A906F9
:1036B00081E080932E041092120480910202909176
:1036C0000302019709F0C7C086E172D98C0188E135
:1036D0006FD9EC018AE16CD99C01C8016FEF70E0F1
:1036E000D4D36F3F710519F010F06FEF70E0709355
:1036F0002A0460932904C9016FEF70E0C6D36F3FBD
:10370000710519F010F06FEF70E07093260460936C
:103710002504CE016FEF70E0B8D36F3F710519F04B
:1037200010F06FEF70E070932804609327046CE64C
:1037300072E08BE395E00AD88091290490912A04E5
:103740007ED86FE672E08BE395E000D88091250487
:103750009091260474D862E772E08BE395E00E94B2
:10376000A613809127049091280469D8C091290458
:10377000D0912A04BE01809123049091240443D85F
:103780000B9744F5609127047091280480912104DF
:103790009091220438D80B97ECF460912504709135
:1037A000260480911F04909120042DD80B9794F447
:1037B00081E090E09093300480932F0460E083E0F8
:1037C00088DA61E082E085DA61E085E082DA82E62B
:1037D00093E033C0BE0180911D0490911E0413D864
:1037E0000B970CF0FDC16091270470912804809123
:1037F0001B0490911C0407D80B970CF0F1C1609149
:103800002504709126048091190490911A040E9455
:1038100003140B970CF0E4C182E090E09093300425
:1038200080932F0460E085E054DA61E083E051DAB0
:1038300061E082E04EDA8DE993E00E940E148091FF
:103840002F0490913004039789F483E090E09093E3
:10385000300480932F040E94450AC5CD81E08093F7
:10386000120480EB93E00E940E14AFCE80912E04E0
:10387000882359F380912D04882361F180910002FF
:10388000909101028330910529F18130910599F0E1
:1038900050F00297C9F46CEF73E580E090E041DBF3
:1038A00085E792E00FC06CE07BE780E090E039DBD9
:1038B0008BE293E007C064E877E680E090E031DBDC
:1038C0008CE792E00E940E1483E090E09093010256
:1038D0008093000282E892E00E940E1468EE73E08A
:1038E00080E090E060DAD2D9019709F095C08DE8C8
:1038F00092E00E940E1465E972E08EE994E00E9465
:10390000A61368EE73E080E090E04DDA6BEA72E0B7
:103910008EE994E00E94A61368EE73E080E090E0E8
:1039200042DA6BEA72E08EE994E00E94A61364E644
:1039300070E080E090E037DA63EC72E08EE994E0CA
:103940000E94A61360ED77E080E090E02CDA6AED4B
:1039500072E08EE994E00E94A61368EE73E080E0C6
:1039600090E021DA68E472E08EE994E00E94A61308
:1039700068EE73E080E090E016DA61E08091E405A3
:10398000D6D960E08091E405A4D983E090E0019766
:10399000F1F761E08091E4059CD98FE090E0019718
:1039A000F1F760E08091E40594D960E08091E4054E
:1039B000BED98091E4059091E5059927FC01EB576C
:1039C000FE4E6491FC01E15CFE4EE491F0E0EE0FEE
:1039D000FF1FEB5DFE4E8591949100E412E42FE011
:1039E00030E0462F91DB611571058105910559F095
:1039F000DC01CB010196A11DB11DBF708434924042
:103A0000A105B10548F480912B0490912C040196F6
:103A100090932C0480932B0480912B0490912C0480
:103A200018161906BCF480910002909101020397C8
:103A300089F484EE92E00E940E146CE671E78FEF39
:103A40009FEF6FDA68EE73E080E090E0ACD981E040
:103A500080932D0480912F04909130048130910542
:103A600009F477C008F43CC0029709F0ACC068E6DE
:103A700073E08EE994E00E94A61364E670E080E0B3
:103A800090E091D96FE773E08EE994E00E94A6136D
:103A900064E670E080E090E086D968EE73E080E054
:103AA00090E081D96AE173E08EE994E00E94A61368
:103AB00068EE73E080E090E076D968E472E08EE929
:103AC00094E00E94A61360ED77E080E090E06BD96F
:103AD00068E97AE380E090E024DA86E993E071C057
:103AE0006AEE72E08EE994E00E94A61364E670E04C
:103AF00080E090E058D962E073E08EE994E00E94A3
:103B0000A61364E670E080E090E04DD968EE73E0C3
:103B100080E090E048D96AE173E08EE994E00E9489
:103B2000A61368EE73E080E090E03DD968E472E0AF
:103B30008EE994E00E94A61360ED77E080E090E0CB
:103B400032D968E873E180E090E0EBD984E293E059
:103B500038C06FE273E08EE994E00E94A61364E639
:103B600070E080E090E01FD965E473E08EE994E0B6
:103B70000E94A61364E670E080E090E014D968EE3D
:103B800073E080E090E00FD96AE173E08EE994E0A1
:103B90000E94A61368EE73E080E090E004D968E428
:103BA00072E08EE994E00E94A61360ED77E080E079
:103BB00090E0F9D860E177E280E090E0B2D98BE55F
:103BC00093E00E940E1480912F0490913004909302
:103BD00001028093000284EA93E00E940E1435CE25
:103BE000BE0180911704909118040E9403140B9752
:103BF00044F56091270470912804809115049091F8
:103C000016040E9403140B97E4F46091250470914C
:103C1000260480911304909114040E9403140B97BE
:103C200084F41092300410922F0460E082E051D8A6
:103C300061E083E04ED861E085E04BD88EEB93E005
:103C4000FCCD83E090E09093300480932F0461E0FA
:103C500040D861E082E03DD861E085E03AD8EFCD20
:103C60001092A1041092A00488EE93E0A0E0B0E0CE
:103C70008093A2049093A304A093A404B093A504FA
:103C800026E132E030939F0420939E0445ED50E0FE
:103C90005093AB044093AA0444ED50E05093AD041C
:103CA0004093AC0440ED50E05093AF044093AE0419
:103CB00041ED50E05093B1044093B00442ED50E028
:103CC0005093B3044093B20446ED50E05093B504D2
:103CD0004093B4041092B7041092B8041092B9043F
:103CE0001092BA0410923E0510923D0580933F0554
:103CF00090934005A0934105B093420530933C0555
:103D000020933B0525EC30E0309348052093470590
:103D100024EC30E030934A052093490520EC30E054
:103D200030934C0520934B0521EC30E030934E0549
:103D300020934D0522EC30E03093500520934F0541
:103D400026EC30E030935205209351051092540533
:103D50001092550510925605109257051092DB05EA
:103D60001092DA058093DC059093DD05A093DE05C3
:103D7000B093DF0588E292E09093D9058093D8054F
:103D800087E190E09093E5058093E4051092E905C2
:103D90001092E8058AE392E09093E7058093E605A8
:103DA0001092210610922206109223061092EF051F
:103DB0001092EE051092F1051092F0051092F305A5
:103DC00081E08093F20582E28093F4051092F90578
:103DD0001092F805EDE0F6E08FEF819396E0EB317D
:103DE000F907D9F781E080930A062FE73BE030938B
:103DF00000062093FF0580930106109202061092A0
:103E0000030680E4809304061092050682E39BE09B
:103E100090931C0680931B068CE092E09093ED0536
:103E20008093EC058EE18093110683E28093120665
:103E30008AE280930F068CE280930E068FEF8093C8
:103E40000D060E9401158AE392E09093E7058093A6
:103E5000E60510922406109228061092270682E0AA
:103E600090E090932606809325060895DB018F93BA
:103E70009F9365D0BF91AF91A29F800D911DA39F8D
:103E8000900DB29F900D11240895AA1BBB1B51E108
:103E900007C0AA1FBB1FA617B70710F0A61BB70BBA
:103EA000881F991F5A95A9F780959095BC01CD015F
:103EB0000895A1E21A2EAA1BBB1BFD010DC0AA1F6B
:103EC000BB1FEE1FFF1FA217B307E407F50720F083
:103ED000A21BB30BE40BF50B661F771F881F991FFE
:103EE0001A9469F760957095809590959B01AC0147
:103EF000BD01CF010895052E97FB16F400940FD055
:103F000057FD05D0D6DF07FC02D046F408C0509517
:103F10004095309521953F4F4F4F5F4F08959095B5
:103F20008095709561957F4F8F4F9F4F0895EE0F4D
:103F3000FF1F881F8BBF0790F691E02D199409D0C1
:103F4000A59F900DB49F900DA49F800D911D1124ED
:103F50000895A29FB001B39FC001A39F700D811D62
:103F60001124911DB29F700D811D1124911D089582
:043F7000F894FFCFF3
:103F74000300030008400000008029068C0C0402A2
:103F8400BE0D00000000D8093D096709240A9809FC
:103F940076098A0900000000040BD80AB10DAC0AA6
:103FA400D00ABC0AAD0A0000000023113D09B10D7E
:103FB400B00D56312E300A004730205831383020A9
:103FC4005930205A31363020463130300A00736C73
:103FD4006964657200636F756E743A00723A0062C8
:103FE4003A00673A0079656C6C6F770067726565B3
:103FF4006E0073746172745F776F726B00706963C3
:104004006B696E67004730205832353020593020B4
:104014005A31363020463130300A00473020583289
:1040240035302059313030205A313030204631304B
:10403400300A004731205832353020593130302091
:104044005A2D3235204634300A004D323233312075
:1040540056310A0066697273740047302058323052
:104064003020592D3830205A31303020463130300C
:104074000A004730205832303020592D3830205A29
:104084002D333520463130300A004D323233312061
:1040940056300A00536C696465725F726564004748
:1040A400302058323030205930205A3130302046B8
:1040B4003130300A00473020583230302059302017
:1040C4005A2D333520463130300A00536C6964650B
:1040D400725F477265656E00473020583230302079
:1040E400593830205A31303020463130300A0047B8
:1040F40030205832303020593830205A2D33352072
:10410400463130300A00536C696465725F59656CDE
:104114006C6F7700656E64006265747765656E0028
:104124006F7574007265736574206F6E6500524517
:0641340044000D0A00002A
:00000001FF
