:100000000C94E10F0C9412100C9412100C9412101A
:100010000C9412100C9412100C9412100C941210D8
:100020000C9412100C9412100C9412100C941210C8
:100030000C9412100C9412100C9412100C941210B8
:100040000C9412100C9412100C9412100C941210A8
:100050000C9412100C9412100C9412100C94A916FB
:100060000C9412100C9460140C9437140C9412100D
:100070000C9412100C9412100C9412100C94121078
:100080000C9412100C9412100C9412100C94121068
:100090000C9412100C9412100C9412100C94121058
:1000A0000C9412100C9412100C9412100C94121048
:1000B0000C9412100C9412100C9412100C94121038
:1000C0000C9412100C9412100C9412100C94121028
:1000D0000C9412100C9412100C9412100C94121018
:1000E0000C941210D3131714F313EE130414D1133A
:1000F0000D140E171117001704170A1748171517B4
:1001000019171F17231727172D17311735174817DA
:100110003B173F174317FFE0FFD1AFFF32FFD0FF80
:10012000FEFFE0FFD1AEFFD0FFFEFFE0FFD11002E7
:10013000FFFEFFD0FFE0FFC1FFD1AED580A83FD3C7
:1001400000408D142002A1C8DA1281CFD9F1DB4022
:100150002EA4A6AFFFD0FFFE00091200FC0A01E8A2
:1001600003D720FFFD0EFD0BFD00000009000E016E
:100170000B0B0904008080808080808000008080DC
:1001800004040409030790909090080A0A090000EB
:10019000242424FF2424FF242424070B0B0901FF1B
:1001A000107C929050381412927C10070A0A0901B0
:1001B0000042A4A4481010244A4A84070A0A0901EC
:1001C0000060909090606294889462010404090435
:1001D0000780808080030C0C0903FF204040808052
:1001E00080808080404020030C0C0903FF80404049
:1001F000202020202020404080070707090103100D
:10020000925438549210070707090101101010FE8C
:100210001010100204040904FEC0C0408007010150
:10022000090104FE020202090400C0C0070A0A090B
:10023000010002040408101020404080070A0A0947
:10024000010038448282828282824438070A0A0985
:100250000100103050901010101010FE070A0A090B
:100260000100384482020408102040FE070A0A09EF
:100270000100FE020408180402028478070A0A0931
:100280000100040C14244484FE040404070A0A092F
:100290000100FE808080F80402028478070A0A09BF
:1002A00001003C408080B8C482824438070A0A09B1
:1002B0000100FE020404080810101010070A0A09C1
:1002C000010038448244384482824438070A0A09CB
:1002D000010038448282463A020204780207070984
:1002E0000400C0C0000000C0C00209090904FEC02B
:1002F000C0000000C0C040800509090902000810C4
:1003000020408040201008070404090102FE00007C
:10031000FE050909090200804020100810204080D5
:10032000070A0A090100384482020408101000106C
:10033000070A0A09010038449AAAAAAAAA9C403CC2
:10034000070A0A09010010282828447C4482828276
:10035000070A0A090100F8848284F884828284F8FA
:10036000070A0A0901003C42808080808080423C6C
:10037000070A0A090100F88482828282828284F854
:10038000070A0A090100FE808080F880808080FED4
:10039000070A0A090100FE808080F8808080808042
:1003A000070A0A09010038448280808E828244381C
:1003B000070A0A09010082828282FE828282828288
:1003C000050A0A090200F82020202020202020F819
:1003D000070A0A0901003E0808080808088888700A
:1003E000070A0A09010082848890A0D0888482824A
:1003F000070A0A090100808080808080808080FE5A
:10040000070A0A0901008282C6AA92828282828237
:10041000070A0A0901008282C2A2928A8682828227
:10042000070A0A0901007C82828282828282827C9F
:10043000070A0A090100F884828284F8808080809B
:10044000080B0B0901FF384482828282828A443A77
:1004500001070A0A090100F884828284F8908884DE
:1004600082070A0A0901007C8280807C02020282E3
:100470007C070A0A090100FE10101010101010105D
:1004800010070A0A090100828282828282828244E3
:1004900038070A0A09010082828244444428282835
:1004A00010070A0A0901008282828292929292AA1D
:1004B00044070A0A09010082824428101028448255
:1004C00082070A0A090100828244281010101010C5
:1004D00010070A0A090100FE02040810204080806B
:1004E000FE040C0C0903FFF08080808080808080F7
:1004F0008080F0070A0A090100804040201010089F
:10050000040402040C0C0902FFF01010101010106B
:1005100010101010F0070404090106102844820886
:1005200001010900FFFF03030309030A80402007BC
:1005300007070901007C02027E82867A070A0A09FF
:100540000100808080BCC2828282C2BC070707098A
:1005500001007C82808080827C070A0A09010002F7
:1005600002027A86828282867A0707070901007C66
:100570008282FE80827C070A0A0901001C22222056
:1005800020F820202020070A0A0901FD7A848484AB
:1005900078807C82827C070A0A090100808080BC06
:1005A000C28282828282050A0A090200600000E09B
:1005B0002020202020F8050D0D0902FD180000382C
:1005C000080808080808888870070A0A09010080D6
:1005D0008080848890B0C88482050A0A090200E0FD
:1005E0002020202020202020F8070707090100EC08
:1005F000929292929282070707090100BCC28282FE
:100600008282820707070901007C82828282827CC3
:10061000070A0A0901FDB8C4828282C4B8808080BA
:10062000070A0A0901FD3A46828282463A0202021C
:100630000707070901009C62424040404007070746
:100640000901007C82807C02827C07090909010083
:100650002020FC20202020221C07070709010082FF
:1006600082828282867A07070709010082824444D7
:100670002828100707070901008282929292AA4453
:1006800007070709010082442810284482070A0A44
:100690000901FD424224242418181090600707071E
:1006A000090100FE0408102040FE060B0B090200A1
:1006B0001C20202020C0202020201C010C0C09041C
:1006C000FF808080808080808080808080060B0B0F
:1006D000090100E0101010100C10101010E00703BA
:1006E0000309010762928CFFFFFFFFFFFFFFFFFF7F
:1006F000FFFFFFFFFFFFFFFFFFFFFFFFFFFFFFFF0A
:10070000FFFFFFFFFFFFFFFF00000009000E010BCE
:100710000B0904008080000080808080808080063B
:10072000080809010008789490A0A47840070A0AF4
:100730000901001C222020F8202060A25C07060688
:10074000090103827C44447C82070A0A0901008271
:100750008244287C107C101010010B0B0904FF80D0
:1007600080808080008080808080040B0B0902FFE5
:100770006090806090909060109060030202090386
:100780000BA0A00809090900013C4299A5A1A5995F
:10079000423C050707090103609070907800F80754
:1007A0000808090101122448909048241206040404
:1007B000090102FC040404050101090204F8080906
:1007C000090900013C42B9A5BDA9A5423C060101A9
:1007D000090109FC040404090306609090600709FC
:1007E00009090101101010FE10101000FE04060689
:1007F0000901046090106080F0040606090104609D
:10080000902010906003030309030A204080070929
:10081000090901FE8282828282C6BA8080070A0AA2
:100820000901007E8A8A8A7A0A0A0A0A0A020202F0
:10083000090404C0C00403030902FD2090600306FC
:100840000609010440C0404040E0050606090104D5
:100850007088887000F80708080901019048241280
:1008600012244890070A0A09010040C0404042E6AD
:100870000A121A06070A0A09010040C040404CF259
:10088000020C101E070A0A090100609020109266EF
:100890000A121A06070A0A09010010001010204067
:1008A0008082827C070E0E090100201008001028AB
:1008B0002828447C44828282070E0E090100081019
:1008C000200010282828447C44828282070E0E09CA
:1008D00001001028440010282828447C4482828289
:1008E000070D0D09010034580010282828447C44C5
:1008F000828282070D0D090100282800102828286F
:10090000447C44828282070E0E09010010282810C0
:1009100010282828447C44828282070A0A090100A0
:100920001E2828284E784888888E070D0D0901FD5D
:100930003C42808080808080423C082418070E0E54
:1009400009010020100800FE808080F880808080EF
:10095000FE070E0E09010008102000FE808080F8BE
:1009600080808080FE070E0E09010010284400FEE2
:10097000808080F880808080FE070D0D09010028AE
:100980002800FE808080F880808080FE050E0E09A1
:10099000020040201000F82020202020202020F8F5
:1009A000050E0E09020010204000F8202020202013
:1009B000202020F8050E0E09020020508800F820A3
:1009C00020202020202020F8050D0D090200505085
:1009D00000F82020202020202020F8070A0A090102
:1009E0000078444242F24242424478070D0D090128
:1009F000003458008282C2A2928A86828282070EC6
:100A00000E090100201008007C828282828282828C
:100A1000827C070E0E090100081020007C82828271
:100A200082828282827C070E0E0901001028440017
:100A30007C82828282828282827C070D0D09010083
:100A40003458007C82828282828282827C070D0DF1
:100A50000901002828007C82828282828282827C34
:100A600007070709010182442810284482070C0C5B
:100A70000901FF027C868A8A9292A2A2C27C800728
:100A80000E0E09010020100800828282828282827A
:100A9000824438070E0E090100081020008282826D
:100AA00082828282824438070E0E09010010284497
:100AB0000082828282828282824438070D0D09017F
:100AC0000028280082828282828282824438070E35
:100AD0000E09010008102000828244281010101016
:100AE0001010070A0A0901008080FC828282FC80C3
:100AF0008080060A0A09010038444448D04844442A
:100B00004458070B0B090100201008007C02027EEC
:100B100082867A070B0B090100081020007C020274
:100B20007E82867A070B0B090100102844007C02A4
:100B3000027E82867A070A0A0901003458007C0284
:100B4000027E82867A070A0A0901002828007C02B0
:100B5000027E82867A070C0C0901001028281000FA
:100B60007C02027E82867A0707070901006C121256
:100B70007E90926C070A0A0901FD7C828080808247
:100B80007C104830070B0B090100201008007C8204
:100B900082FE80827C070B0B090100081020007C7C
:100BA0008282FE80827C070B0B0901001028440022
:100BB0007C8282FE80827C070A0A090100282800C4
:100BC0007C8282FE80827C050C0C09020080402021
:100BD0000000E02020202020F8050C0C0902001065
:100BE00020400000E02020202020F8050C0C090205
:100BF000002050880000E02020202020F8050B0B6A
:100C000009020050500000E02020202020F8070BAF
:100C10000B090100483050083C4482828244380766
:100C20000A0A090100345800BCC28282828282070B
:100C30000B0B090100201008007C82828282827CDA
:100C4000070B0B090100081020007C82828282823F
:100C50007C070B0B090100102844007C82828282F1
:100C6000827C070A0A0901003458007C8282828251
:100C7000827C070A0A0901002828007C828282827D
:100C8000827C07090909010010381000FE001038A5
:100C9000100709090901FF027C8A8A92A2A27C80BE
:100CA000070B0B090100402010008282828282869D
:100CB0007A070B0B090100081020008282828282D1
:100CC000867A070B0B090100102844008282828279
:100CD00082867A070A0A0901002828008282828215
:100CE00082867A070E0E0901FD0408100042422494
:100CF00024241818109060070B0B0901FE8080B89F
:100D0000C4828282C4B88080070D0D0901FD2424AD
:100D10000042422424241818109060002321F4F883
:100D20000E035F0788207FFB13FB12FB000000050A
:100D3000000002111106020040C0C0C0C0C0C0C007
:100D4000C0C0C0C08000C0C0C00608080A0209CCEC
:100D5000CCCCCCCCCCCC8C0A0D1A0B01010C80096C
:100D600080090009007FC0130012003200FF8024B8
:100D700000640044004C000912240B01FE0C000C1E
:100D8000003F806D80CD00CC00EC007C003F000F68
:100D9000000D800D808D80CD80EF007E000C000C5A
:100DA000000E0E1C10010038184830CC60CC40CC2E
:100DB000C0CD804B007238064C0CCC08CC10CC3027
:100DC000C860700E10201001000F001980318031B2
:100DD00080310033003C003CFC7C706630C730C37F
:100DE000B0C1E0C0E060B03F1C020808060209C0C4
:100DF000C0C0C0C0C0C0800616160701FC0C181089
:100E000020606040C0C0C0C0C0C0C0C040606020A2
:100E100030180C0616160700FCC0603010181808B1
:100E20000C0C0C0C0C0C0C0C081818102060C009D1
:100E30000A140A0108180018008900EB803C003CE5
:100E400000EB0089001800180008080809010218C2
:100E50001818FF181818180406060500FD70F03061
:100E6000302040060101080105FC020303050200D1
:100E7000C0C0C009162C0B01FC00800180010003DA
:100E80000003000200060006000C000C0008001819
:100E9000001800100030003000600060004000C00A
:100EA00000C0008000090E1C0B01001C002700631D
:100EB000004380C180C180C180C180C180C180C128
:100EC00000610062001C00080E0E0B0200187898EA
:100ED00018181818181818181818FF080E0E0B01F3
:100EE000003C67C3830306060C18183061C1FF0974
:100EF0000E1C0C01001E006700C30003000200046A
:100F0000001E0003000180018001800180C3003CBD
:100F1000000A0E1C0B00000300070007000B001B5B
:100F2000001300230063004300FFC003000300031D
:100F3000000FC0090E1C0B000000803F00200020A5
:100F40000060007E0043000180018001800180017B
:100F500000C3003C00090E1C0B010003000C003014
:100F60000020006000DE00E300C180C180C180C1BC
:100F700080610063001E00090D1A0B01007F808153
:100F800000810003000200060004000C00080018A5
:100F900000180030002000090E1C0B01003E004725
:100FA00000C300C300C30076001E0027006380C199
:100FB00080C180C18063003C00090E1C0B01001E33
:100FC0000063004300C180C180C180C18063803D57
:100FD0008001000300060008007000020B0B0502F0
:100FE00000C0C0C00000000000C0C0C0040E0E055C
:100FF00000FD303030000000000070F03030204044
:101000000807070A0103010F78C0701E03080404D3
:101010000A0104FF0000FF0807070A0103C0780F58
:10102000031EF0800811110A01003E67C3C30303C9
:10103000060C0C1818181000181818111339130181
:10104000FC01F000061C001806003003002003001D
:1010500061D380423180C43180CC3180CC3180CCAE
:101060003180CC3100EC3300667200639C003000AC
:10107000003802000E0F0003F0000D0E1C0E0000E1
:1010800002000300050005800580088008C008C034
:101090001FC01060106020302030F8780B0E1C0C40
:1010A00000007F00B1C030C030C030C031803F8010
:1010B00031C030E030603060306030C0FF800B0EF7
:1010C0001C0C010007C01860200060004000C00038
:1010D000C000C000C000C0006000602038400F8029
:1010E0000D0E1C0E00007F80B0E0307030303018E4
:1010F000301830183018301830183030307030E078
:10110000FF800B0E1C0B0000FFC030403040300051
:10111000300030003F80310030003000300030209F
:101120003060FFC00A0E1C0B0000FFC03040304092
:101130003000300030003F8031003000300030009F
:1011400030003000FC000B0E1C0D01000F8010C0A1
:1011500020006000C000C000C000C3E0C0C0C0C02C
:1011600060C060C030C01F000F0E1C0F0000FC7E6E
:10117000301830183018301830183FF83018301840
:101180003018301830183018FC7E060E0E0700009C
:10119000FC303030303030303030303030FC0912FC
:1011A0002407FEFC1F80060006000600060006005D
:1011B00006000600060006000600060006000600FF
:1011C000060004004800F0000D0E1C0D0000FCF0AD
:1011D000304030803100320036003C0036003600AE
:1011E0003300318030C03060FC380B0E1C0B000027
:1011F000FC003000300030003000300030003000A3
:1012000030003000300030203040FFC0110E2A1373
:101210000100F00700700E00700E00781E006816C6
:10122000006C16006C2600662600666600634600A9
:1012300063C600618600618600F10F800F0E1C0FEF
:101240000000F07E301838183C1834183218331863
:101250003198309830D8307830383038FC180C0E4F
:101260001C0E01000F8030C020606060C030C030B4
:10127000C030C030C030C0306060604030801F007F
:101280000B0E1C0C00007F80B0C0306030603060FE
:10129000306030C03F00300030003000300030009F
:1012A000FC000E11220E01FD0F8030C02060606036
:1012B000C030C030C030C030C030C030606060600E
:1012C00030C01F00018000C400380D0E1C0D00004E
:1012D0007F00B18030C030C030C0308031003E006F
:1012E00033003100318030C030C0FC78090E1C0B57
:1012F00001003E006300C000C000E00078003E0036
:101300000F000380018081808100C3007C000C0EEF
:101310001C0D0000FFF08610861006000600060077
:1013200006000600060006000600060006001F80F4
:101330000F0E1C0F0000FC7E3018301830183018CB
:1013400030183018301830183018301818301C6029
:1013500007C00E0E1C0F0000F83C3018301018109B
:10136000183018200C600C40044006C00680038032
:1013700003800100130E2A140000F843E03060805F
:1013800030608030E08010B18010B10019910019F8
:1013900019001919000B0B000E0E000E0E000E06A0
:1013A000000406000E0E1C0E0000FCF83030186021
:1013B0001CC00C8007800300038005800CC01860EF
:1013C00010703030F87C0E0E1C0E0000E07C3030C7
:1013D000182018600C4006C00780030003000300BB
:1013E0000300030003000FC00A0E1C0C01007FC0A5
:1013F000418081800300060006000C001C001800DC
:10140000300030006040C040FFC00516160701FCE8
:10141000F8C0C0C0C0C0C0C0C0C0C0C0C0C0C0C094
:10142000C0C0C0C0C0F809162C0B01FC8000C00071
:10143000C0004000600020003000300010001800A4
:10144000180008000C00040004000600020003005D
:1014500003000100018000800516160801FCF81841
:1014600018181818181818181818181818181818FC
:10147000181818F8090B160B010608000C001C00C0
:1014800016003600220023006300418041808180E5
:101490000901020B01FDFF8005050507000CE06056
:1014A0003010080A0A140B01001E006300C3000379
:1014B000001F006300C300C300C7007BC00A1122E5
:1014C0000C01006000E000600060006000600060EF
:1014D000006700798071C060C060C060C060C0609B
:1014E0008071001E00090A140A01000F003180609B
:1014F00000C000C000C000C000600071801E000B72
:1015000011220C010001800780018001800180010F
:101510008001801F8023804180C180C180C180C143
:1015200080E18067A039C0090A140B01001E002168
:10153000004180FF80C000C000C000E00071803E1C
:101540000009112207000007800900100030003058
:1015500000300030007E00B000300030003000303D
:1015600000300030003000FC000C0F1E0C00FB1F90
:101570003031C060C060C060C031801F00180038CA
:10158000001FC06070C030C03060603F800D11220D
:101590000D00003000F0003000300030003000302E
:1015A0000033C034603860306030603060306030AC
:1015B000603060FDF8060F0F06000030303000008C
:1015C00030F030303030303030FC07141406FDFB82
:1015D0000606060000061E0606060606060606069F
:1015E000060408F00C11220C00003000F00030005E
:1015F000300030003000300031E031803300340002
:101600003C0036003300318030C0F8F0061111067E
:10161000000030F03030303030303030303030306A
:101620003030FC140A1E14000071C780B668C03840
:1016300070C03060C03060C03060C03060C03060AA
:10164000C03060C0FDFBF00D0A140D000071C0B683
:10165000603860306030603060306030603060FD35
:10166000F80A0A140C01001E0023804180C0C0C08B
:10167000C0C0C0C0C0E08071001E000B0F1E0C0077
:10168000FB7380BCC038E030603060306030603068
:101690004038C037003000300030003000FC000B14
:1016A0000F1E0C01FB1E8023806180C180C180C1A0
:1016B00080C180E18063803D8001800180018001E4
:1016C0008007E0090A140900003380FC80380030EC
:1016D0000030003000300030003000FC00070A0A03
:1016E0000901007CCCC0E0781E068686F8080E0E44
:1016F000080000103030307FB030303030303031C2
:101700001E0B0A140C01006180E78061806180611A
:101710008061806180618067A039C00B0A140B0072
:1017200000F9E02040308030801980190009000E57
:101730000006000400100A14100000F88F21823106
:10174000C431C413641A6C1A280C380C380C100BF2
:101750000A140C0000F9E0308019000F0006000E9A
:10176000000B00118020C0F1E00C0F1E0BFFFB7C72
:10177000F01020184018400CC00C800480070003B3
:101780000003000200060004007800F000080A0AC6
:101790000A0100FF83860C0818306141FF06161607
:1017A0000801FC0418103030303818181830F018C0
:1017B0001818183030303018040218180502FBC011
:1017C000C0C0C0C0C0C0C0C0C0C0C0C0C0C0C0C019
:1017D000C0C0C0C0C0C0C00616160801FC80603082
:1017E000303030606060603C1020606070303030BD
:1017F0002060800A04080B010530407C809F008730
:1018000000FF01050800FF060121023520FFFF0748
:10181000FF06FF0900502216568080808000801548
:101820003353A0A0A00257575050F850F850500220
:1018300057572070A07028702013355580A040A005
:101840002002475740A0A040A0A0502513538080FD
:10185000801226564080808080401226568040406C
:101860004040800245559060F06090025555202020
:10187000F82020113353604080044151F01133535C
:1018800040E04002465610102040808012365640FC
:10189000A0A0A0A04012365640C0404040E0024602
:1018A000566090106080F0024656F0206010906004
:1018B0000246562060A0F02020024656F080E0103C
:1018C00090600246566080E0909060024656F010AC
:1018D000202040400246566090609090600246563C
:1018E000609090701060122555C0C000C0C01136C5
:1018F0005660600060408012365620408080402054
:10190000034353F000F012365680402020408012EE
:10191000365640A020400040015858304898A8A8AA
:10192000904030024656609090F09090024656E00B
:1019300090E09090E0024656609080809060024671
:1019400056E090909090E0024656F080E08080F063
:10195000024656F080E0808080024656609080B05B
:1019600090600246569090F0909090123656E0406B
:10197000404040E002465670202020A040024656DB
:1019800090A0C0A0A0900246568080808080F00287
:10199000465690F0F090909002465690D0F0B0B03D
:1019A00090024656609090909060024656E090906B
:1019B000E08080014757609090D0B060100246569A
:1019C000E09090E090900246566090402090601227
:1019D0003656E040404040400246569090909090ED
:1019E00060024656909090906060024656909090AB
:1019F000F0F09002465690906060909002565688A3
:101A00008850202020024656F010204080F01236E8
:101A100056E080808080E002465680804020101092
:101A2000123656E020202020E016325240A001411C
:101A300051F0162252804002445470909070024639
:101A4000568080E09090E0123454608080600246BE
:101A50005610107090907002445460B0C0600246FE
:101A600056205040E04040014555609070106002A3
:101A700046568080E09090901236564000C040401C
:101A8000E01137572000202020A0400246568080D9
:101A900090E09090123656C040404040E0025454CE
:101AA000D0A8A8A8024454E09090900244546090BA
:101AB0009060014555E090E0808001455570907040
:101AC0001010024454A0D0808012345460C020C052
:101AD0000246564040E0405020024454909090709E
:101AE000123454A0A0A04002545488A8A850024424
:101AF00054906060900145559090709060024454FD
:101B0000F02040F0024757304020C02040302216DD
:101B100056808080808080024757C020403040201F
:101B2000C006425250A0FFFFFFFFFFFFFFFFFFFF75
:101B3000FFFFFFFFFFFFFFFFFFFFFFFFFFFFFFFFB5
:101B4000FFFFFFFFFFFFFF090050221656800080B5
:101B50008080800146562070A0A07020024656204A
:101B600050E04050A002555588705070880256567B
:101B70008850F820F82022175780808000808080CD
:101B80000247577080E0907010E0173151A0025664
:101B90005670A8C8C8A87014355560A06000E0034E
:101BA000435350A050123353E02020143151E0022F
:101BB000565670E8D8E8D870173151E015335340C5
:101BC000A04012355540E04000E014355540A020BB
:101BD00040E0143555C020C020C01622524080017C
:101BE0004555909090E08002565678E8E86828289D
:101BF00024115180112252408014355540C040407C
:101C0000E014355540A04000E0034353A050A0022B
:101C10004757808080A060F0200247578080A0D086
:101C200010207002475780408060A0F02012365686
:101C300040004080A04002475740206090F09090C4
:101C400002475720406090F09090024757609060A4
:101C500090F0909002475750A06090F0909002470B
:101C60005790006090F0909002475760906090F01D
:101C7000909002465670A0A0F0A0B0014757609027
:101C800080809060400247574020F080E080F00262
:101C900047572040F080E080F00247576090F08086
:101CA000E080F00247579000F080E080F012375754
:101CB0008040E0404040E01237572040E040404044
:101CC000E012375740A0E0404040E0123757A000F4
:101CD000E0404040E00256567048E84848700247ED
:101CE0005750A090D0B090900247574020609090FD
:101CF0009060024757204060909090600247576084
:101D000090609090906002475750A06090909060D3
:101D100002475790006090909060123353A040A00B
:101D200002465670B0B0D0D0E002475740209090A5
:101D300090906002475720409090909060024757E3
:101D40006090909090906002475790009090909093
:101D5000600257571020885020202002465680E00D
:101D60009090E0800246566090A0A090A002475755
:101D70004020007090907002475720400070909073
:101D8000700247572050007090907002475750A043
:101D9000007090907002465650007090907002470C
:101DA0005760906070909070025454F068B0781151
:101DB0003555608080604002475740200060B0C0C9
:101DC0006002475720400060B0C0600247576090F3
:101DD0000060B0C060024656500060B0C06012376C
:101DE00057804000C04040E0123757204000C040BC
:101DF00040E012375740A000C04040E0123656A0E5
:101E000000C04040E0024757A040A0107090600220
:101E1000475750A000E09090900247574020006044
:101E200090906002475720400060909060024757B2
:101E30006090006090906002475750A000609090C2
:101E4000600246569000609090601235554000E068
:101E5000004002445470B0D0E00247574020009048
:101E60009090700247572040009090907002475722
:101E70006090009090907002465690009090907004
:101E80000148582040009090709060014757808032
:101E9000E090E08080014757900090907090600043
:101EA000002100240027002A002D0030003300010B
:101EB000010000040107010A01000022002500289A
:101EC000002B002E00310034000201000005010843
:101ED000010B01000020002300260029002C002F08
:101EE000003200000100000301060109010505059B
:101EF00005070508080808020202020A0A08080481
:101F000004040401010101010101010303030303AE
:101F1000030303040707070C0C0C0C0C0C0C0C023D
:101F200002020206060606060606060B0B0B0B0B44
:101F30000B0B0B010210202008081020401020403D
:101F4000800201020108040201010204081020407D
:101F5000808040201008040201800402018040209B
:101F600010080402010804020101020408102040C4
:101F700080010204081020408000000A0B02090CB6
:101F80000D0E08070304010000000000000000001F
:101F90000000000000000000000000000000000041
:101FA00000000000001211100000000000000000FE
:101FB0000000000000000000000000000000000021
:101FC000611E11241FBECFEFD1E2DEBFCDBF00E006
:101FD0000CBF12E0A0E0B2E0ECE1F0E400E00BBFE7
:101FE00002C007900D92AE36B107D9F725E0AEE6F4
:101FF000B2E001C01D92A137B207E1F71FE0C1EEC8
:10200000DFE000E006C021970109802FFE010E9459
:102010000020C03ED10780E00807A9F70E94B41A4B
:102020000C940C200C940000FC01538D448D252F42
:1020300030E0842F90E0821B930B541710F0CF9662
:10204000089501970895FC01918D828D981761F094
:10205000828DDF01A80FB11D5D968C91928D9F5FDF
:102060009F73928F90E008958FEF9FEF0895FC018A
:10207000918D828D981731F0828DE80FF11D858D3D
:1020800090E008958FEF9FEF0895FC01918D228DD0
:10209000892F90E0805C9F4F821B91098F73992755
:1020A000089586E194E0F1DF21E0892B09F420E036
:1020B000822F0895FC01848DDF01A80FB11DA35A62
:1020C000BF4F2C91848D90E001968F739927848F58
:1020D000A689B7892C93A089B1898C91837080647B
:1020E0008C93938D848D981306C00288F389E02D1C
:1020F00080818F7D80830895EF92FF920F931F93CD
:10210000CF93DF93EC0181E0888F9B8D8C8D9813AA
:1021100005C0E889F989808185FD25C0F62E0B8DE3
:1021200010E00F5F1F4F0F731127E02E8C8DE81208
:102130000BC00FB607FCFACFE889F989808185FFCB
:10214000F5CFCE01B7DFF2CF8B8DFE01E80FF11D89
:10215000E35AFF4FF0829FB7F8940B8FEA89FB890F
:10216000808180620AC09FB7F894EE89FF896083FE
:10217000E889F98980818370806480839FBF81E0D2
:1021800090E0DF91CF911F910F91FF90EF90089514
:10219000CF93DF93EC01888D8823C1F0EA89FB8916
:1021A000808185FD05C0A889B9898C9186FD0EC006
:1021B0000FB607FCF5CF808185FFF2CFA889B989DA
:1021C0008C9185FFEDCFCE0175DFE8CFDF91CF9108
:1021D000089580E090E0892B19F063DF811125C01C
:1021E00080E090E0892B41F080E090E0892B21F0A5
:1021F0000E94000081111CC080E090E0892B41F01A
:1022000080E090E0892B21F00E940000811113C032
:1022100080E090E0892BA1F080E090E0892B81F0B4
:102220000E94000081110AC008950E940000D8CFCA
:102230000E940000E1CF0E940000EACF0C94000051
:1022400008950895DC011696ED91FC91179712966A
:102250008C91481B477081E090E001C0880F4A953F
:10226000EAF7E60FF11D3081222311F0832B02C023
:102270008095832380830895FB014181DC011296C0
:102280002C911297421760F013962C9113972417F4
:1022900038F0608115962C91621710F42481D2CF0A
:1022A0000895FC0130819281930F928321819217CE
:1022B00060F494819F5F94838381830F821710F071
:1022C0008FEF820F838381E0089580E00895FC0101
:1022D00012828081815083831482089580E0089562
:1022E0000B96FC01849108950A96FC01849108954F
:1022F000FC0184910895FCDF882321F0823011F0E5
:1023000083E0089586E00895FC01E60FF11D8491B5
:1023100090E0982F88273196E4918E0F911D0895B3
:1023200068E0F2CF66E0F0CF2EE93FE0009729F0B9
:10233000F9013197F1F70197F9CF0895509176029D
:10234000609175024091740230917302A091710204
:10235000B0917202E0916F02F09170029FB790937A
:102360006E02F89498E02C9187FF02C0252B01C0E3
:1023700026232C932081242B2083880F2081232344
:102380002083915081F780916E028FBF089590E075
:10239000FC01E351F14EE491F0E0EE0FFF1FE75432
:1023A000F14E25913491309372022093710270E0C6
:1023B000FB01E351F14EE491F0E0EE0FFF1FE75413
:1023C000F14E259134913093700220936F02FC01FD
:1023D000ED5CF04E849180937602FB01ED5CF04E53
:1023E000649160937402609560937302809580930A
:1023F00075020895DB011496ED91FC91159720E08C
:1024000030E065E01994DB011496ED91FC9115978D
:1024100020E030E062E01994DB011496ED91FC912C
:10242000159720E030E063E01994CF92DF92EF92AD
:10243000FF920F931F93CF93DF938C017B016A016F
:1024400080E0F601C49181110AC0CF3F09F447C072
:102450004C2FB701C801CEDF81113FC045C0CF3F2F
:1024600011F44FEFF6CFCE3F09F440C0C03FA8F5BE
:10247000C03E30F04C2F4F70B701C801C4DF2DC0F3
:10248000C03D30F04C2F4F70B701C801C5DF25C0EB
:10249000C03CF0F0D7011496ED91FC91159720E027
:1024A00030E040E064E0C8011995C295C07FCE5F7E
:1024B000D0E0CE0139DFD7011496ED91FC9115974C
:1024C00020E030E041E064E0C8011995CE0104C08D
:1024D000C7FD03C08C2F90E027DF80E001C081E0C2
:1024E000BFEFCB1ADB0AADCF80E001C081E0DF9106
:1024F000CF911F910F91FF90EF90DF90CF900895B3
:10250000AF92BF92CF92DF92FF920F931F93CF9320
:10251000DF936C018B01F42EE90120E1421709F4ED
:102520005CC02417D0F03AE04317F9F08FE048136D
:102530005DC041E0C60170DF40E0B801C60163DF65
:1025400041E8B801C60156DF4881B801C60152DF33
:1025500040E0B801C60160DFF5C0A1E14A1709F407
:102560003FC0B5E14B1789F041C0DB011496ED91F6
:10257000FC91159720E030E042E061E0199542E3DC
:1025800051E0B801C60151DF31C0FB01A280B38028
:102590004AE251E04ADFD50114964C91406BB801F4
:1025A000C60128DF41E0B801C6012DDFF501268113
:1025B0003781D8011496ED91FC911597D5011596A8
:1025C0004C9166E0C6011995811102C080E0BBC044
:1025D00040E0B801C60120DF09C041E251E002C07D
:1025E00046E151E0B801C60120DFACC0F80102812C
:1025F0001381F2E3FF1609F46FC0FF15B8F025E16F
:10260000F21609F474C037E1F31609F485C084E1C9
:10261000F81298C0D8011696ED91FC91179715966F
:102620008C919F01280F311DC9015AC0A6E4FA16EA
:1026300009F481C0B7E4FB1609F480C0EBE3FE1295
:1026400081C089819B81913029F0933031F4482FEA
:10265000885004C048E0480F01C0482F51E0D8011D
:1026600013962C91281708F450E031E0F8012281EC
:10267000421708F430E021E0481708F020E0822FEC
:10268000852B382319F4252309F45CC0CA809130C6
:1026900061F038F0923061F0933071F4FF24FA94D5
:1026A0000CC0F12CDD24D39409C0FF24F39405C0A1
:1026B000F12CDD24DA9402C0F12CD12CC7FE03C02A
:1026C000BE01C801D9DD88818D0D888389818F0D78
:1026D0008983CC0C99F736C0BE01C801CDDD32C06C
:1026E00011928E179F07E1F7C801F1DD2BC0C801D9
:1026F000D8DD882309F46ACFD8011696ED91FC91B4
:10270000179715968C919F01280F311DC9011192C1
:102710008E179F07E1F716C01882D80112968C9188
:102720001297898315968C91159781508A831396F9
:102730008C918B8307C0F801858103C0D801119665
:102740008C91888381E0DF91CF911F910F91FF9051
:10275000DF90CF90BF90AF900895089580E090E013
:102760000895860F911DFC0183A18F3F11F0642F06
:1027700059C60895EF92FF920F931F93CF93DF9363
:10278000EC01142F7901862F90E0FC013197E7309E
:10279000F10508F04FC08827EE58FF4F8F4F0C947B
:1027A0000020E90134C07E018E01035F1F4FF70155
:1027B00083A18F3F31F061E063D661E0F70183A12F
:1027C00031D6FFEFEF1AFF0A0E151F0581F740E023
:1027D00064E0CE01C6DF40E065E010C08BA18F3F12
:1027E00049F160E025C0411103C041E062E020C032
:1027F00040E064E0CE01B5DF40E062E0CE01B1DF51
:102800006FA188A5C4DD16C0842F98DD13C01123E5
:1028100089F0899193DD1150FACF112359F0F70116
:1028200084918CDDFFEFEF1AFF0A1150F6CF61E0C3
:10283000CE0197DF81E0DF91CF911F910F91FF9043
:10284000EF9008956115710579F0FB01019000206A
:10285000E9F73197AF01461B570BDC01ED91FC9175
:102860000280F381E02D199480E090E008951F929A
:102870000F920FB60F9211240BB60F922F933F9326
:102880004F935F936F937F938F939F93AF93BF9378
:10289000EF93FF9386E194E00DDCFF91EF91BF9100
:1028A000AF919F918F917F916F915F914F913F91E8
:1028B0002F910F900BBE0F900FBE0F901F90189589
:1028C0001F920F920FB60F9211240BB60F922F93F7
:1028D0008F939F93EF93FF93E0912604F091270449
:1028E0008081E0912C04F0912D0482FD12C0908132
:1028F00080912F048F5F8F7320913004821751F0E5
:10290000E0912F04F0E0EA5EFB4F958F80932F0457
:1029100001C08081FF91EF919F918F912F910F9036
:102920000BBE0F900FBE0F901F901895DB01ED911D
:10293000FC9119940F93FC010150040F84A996A9EE
:10294000941718F0081728F402C0081750F004175D
:1029500040F42150260F83A995A9961720F4281733
:1029600020F480E007C0281720F481E0261710F03B
:10297000F8CF81E00F9108953F924F925F926F924E
:102980007F928F929F92AF92BF92CF92DF92EF92FF
:10299000FF920F931F93CF93DF93EC01962EDCAC45
:1029A000CBAC5C0124E0A20EB11CE98DFA8DC5010F
:1029B0001995182FE884F984C7019ADC082F8885B7
:1029C000998599DC682E013019F48FE0782E02C0C9
:1029D00077247A948885998587DC082F888599855E
:1029E0007FDC882E888599859BDCE0E6E91530F44C
:1029F000009721F0E80EF91E01E60FC08885998541
:102A000091DCF0E4F91530F4009721F0E80EF91E9E
:102A100001E403C021E1E20EF11C891430F41C8AA8
:102A20001F8A188E1D8A1E8A97C08016C0F3862DB5
:102A300090E0F70124912F3F21F4FFEFEF1AFF0AF6
:102A40003FC0901234C08885998552DC97012F5F72
:102A50003F4FF701882311F0823091F484918F8BDE
:102A6000F9012491288FF7013396E491EC8BF7015B
:102A70003496E491ED8BF7013596E491EE8B25C009
:102A80008491982F9F7092509E8B82958F708D8B22
:102A9000F9012491822F8F70888F22952F702F8BB0
:102AA000F7013296E491E295EF70EC8B0EC0F701DE
:102AB0003296E491E7219C012E0F311DE20EF31EA8
:102AC000801609F4ACCF0F5FB4CFE114F10409F420
:102AD00043C0888599850FDC782E9F88888C5D8817
:102AE0005C0CD8188E89D81A1D0D082D292D412F60
:102AF000652DC5011FDF882369F1E70CF11C07E094
:102B0000090D069506950695382C310E4E01F0E21A
:102B10008F0E911C602E712C1315E1F0452C67016E
:102B20008C2D8E19801790F4F60184916E817F812F
:102B300048A219A31BA28AA394014BE3C501F6DEA8
:102B4000FFEFCF1ADF0A28E0420EEACFE60CF71CAF
:102B50001F5FE2CF8C8901C080E09BAD890F8BAFF6
:102B600081E090E0DF91CF911F910F91FF90EF9066
:102B7000DF90CF90BF90AF909F908F907F906F909D
:102B80005F904F903F9008958F929F92AF92BF9227
:102B9000CF92DF92EF92FF920F931F93CF93DF9329
:102BA000C1E0D0E080E2C82ED12CE12CF12C94E1E0
:102BB000892E912CA12CB12C0E944F1FA7019601A8
:102BC0000E94A31F70937A02609379020E944F1FA4
:102BD000A50194010E94A31F8B017093780260935A
:102BE0007702609100027091010240917902509148
:102BF0007A02EBE7F2E0A3E4B3E080E090E086172E
:102C000097077CF02097C1F6DF91CF911F910F912C
:102C1000FF90EF90DF90CF90BF90AF909F908F90FC
:102C200008952D913D912417350729F42081318194
:102C30000217130739F301963296C0E0D0E0DFCFD8
:102C4000CF9360D2C8E28BE19DE0C4D21092EE0433
:102C5000C093EF0462E372E083EB94E0F3DD82D291
:102C60008111F1CF83E090E0909301028093000204
:102C70008FE090E0909344038093430390937C0211
:102C800080937B022EE030E030934603209345038F
:102C900090937E0280937D022DE030E030934803D4
:102CA000209347039093800280937F02CF910895F1
:102CB000CF92DF92EF92FF920F931F93CF93DF9308
:102CC0006C017A018B01C0E0D0E0CE15DF0581F008
:102CD000D8016D918D01D601ED91FC910190F081AB
:102CE000E02DC6011995892B11F02196EECF7E01BA
:102CF000C701DF91CF911F910F91FF90EF90DF906F
:102D0000CF9008950E9408203FB7F8948091120454
:102D100090911304A0911404B091150426B5A89BBA
:102D200005C02F3F19F00196A11DB11D3FBFBA2F5D
:102D3000A92F982F8827820F911DA11DB11DBC01BD
:102D4000CD0142E0660F771F881F991F4A95D1F782
:102D500008951F920F920FB60F9211242F933F9355
:102D60008F939F93AF93BF9380910E0490910F0424
:102D7000A0911004B091110430910D0423E0230FB1
:102D80002D3720F40196A11DB11D05C026E8230FA3
:102D90000296A11DB11D20930D0480930E04909303
:102DA0000F04A0931004B093110480911204909129
:102DB0001304A0911404B09115040196A11DB11D36
:102DC0008093120490931304A0931404B0931504F9
:102DD000BF91AF919F918F913F912F910F900FBE17
:102DE0000F901F90189590E0FC013197E231F105AA
:102DF00008F04EC08827E758FF4F8F4F0C940020F3
:102E0000809180008F7703C0809180008F7D8093B8
:102E10008000089580918000877FF9CF84B58F77F7
:102E200002C084B58F7D84BD08958091B0008F77F6
:102E300003C08091B0008F7D8093B0000895809191
:102E400090008F7707C0809190008F7D03C08091A4
:102E50009000877F8093900008958091A0008F77E5
:102E600007C08091A0008F7D03C08091A000877F64
:102E70008093A0000895809120018F7707C08091F2
:102E800020018F7D03C080912001877F80932001E6
:102E900008950F931F93CF93DF931F92CDB7DEB7A3
:102EA0000091B9041091BA04E091E804F091E904AA
:102EB00082E0199520E030E04AE0B80187EB94E029
:102EC00035DD182FE091E804F091E90483E01995CD
:102ED000E091E804F091E90480E019951123A1F153
:102EE0006091B9047091BA049E012F5F3F4F46E490
:102EF00087EB94E01BDD89818093B7046091B9046E
:102F00007091BA049E012F5F3F4F47E487EB94E036
:102F10000DDD89818093B8046091B9047091BA0481
:102F200020E030E048E487EB94E000DD8093C204C9
:102F30006091B9047091BA042AEE34E047E187EB5E
:102F400094E0F4DC81E001C080E00F90DF91CF914C
:102F50001F910F910895EF92FF920F931F93CF93BC
:102F6000DF93D82F062FC42F142FF82EF40EEE2443
:102F7000EA948F2D811B1830A0F06091B9047091F4
:102F8000BA048093D3040093D4041092D604E09240
:102F9000D50423ED34E04BE387EB94E0C7DC185015
:102FA000E8CF8C2F86958695869598E0899FD00DE1
:102FB00011244C2F98EF899F400D1124442311F1C7
:102FC00097E049276091B9047091BA04D093D30473
:102FD0000093D4041092D6044F5F47708FEF90E0B7
:102FE00001C0880F4A95EAF78093D50423ED34E0B9
:102FF0004BE387EB94E0DF91CF911F910F91FF900E
:10300000EF9094CCDF91CF911F910F91FF90EF90B3
:1030100008950F931F93CF93DF93182F042FC62F7C
:10302000D62FD20F402F6C2F812F95DFCF5FCD137E
:10303000F9CFDF91CF911F910F910895DF92EF9219
:10304000FF920F931F93CF93DF93082FD62FC42F98
:10305000142FF62EF40EEE24E394DD24DA948F2D53
:10306000811B1830A0F06091B9047091BA040093EC
:10307000D3048093D404E092D604D092D50423EDF7
:1030800034E04BE387EB94E051DC1850E8CF8C2F11
:1030900086958695869598E0899FD00D11244C2FB2
:1030A00098EF899F400D1124442321F187E04827A0
:1030B0006091B9047091BA040093D304D093D404FE
:1030C00081E08093D6044F5F47708FEF90E001C09E
:1030D000880F4A95EAF78093D50423ED34E04BE35B
:1030E00087EB94E0DF91CF911F910F91FF90EF90CC
:1030F000DF901CCCDF91CF911F910F91FF90EF904B
:10310000DF900895CF93DF938091F004811104C084
:1031100081E08093F004BDDEC091B904D091BA047F
:10312000E091E804F091E90482E01995E091E80467
:10313000F091E90481E0199520E030E044E1BE011E
:1031400087EB94E0F3DB2AEE34E047E1BE0187EB46
:1031500094E0ECDBE091E804F091E90480E0DF9199
:10316000CF9119940F931F93CF93E091C504F091E1
:10317000C604309719F087EB94E019950091B904D3
:103180001091BA04E091E804F091E90482E0199505
:10319000E091E804F091E90481E0199520E030E045
:1031A00045E1B80187EB94E0C1DBC82F882339F0F3
:1031B0002AEE34E047E1B80187EB94E0B7DBE09119
:1031C000E804F091E90480E019958C2FCF911F91CC
:1031D0000F9108952091BB043091BC042817390742
:1031E00009F444C09093BC048093BB04009709F495
:1031F00037C02091CE04FC01211107C03596E4911F
:10320000E093CF04FC013C960FC0213039F43F9687
:10321000E491E093CF04FC01709606C03D96E491E2
:10322000E093CF04FC013E9684918093D00480917A
:10323000CF04082E000C990B2091D004821B910919
:1032400027FD93952091D104203441F0829FC00145
:10325000112426E0969587952A95E1F78093D2046C
:103260008EE691E19093CD048093CC040895FF9273
:103270000F931F93CF93DF93182FC62FF42ED22FC7
:10328000022F242F462F682F87EB94E053DB8823EF
:10329000C9F04F2D6C2F812F5EDE4D2F6C2F812FAB
:1032A000CDDE8FEF8F0D4D2F6C2F810FC7DE6FEFAF
:1032B0006D0F6C0F4F2D812FDF91CF911F910F91CB
:1032C000FF9049CEDF91CF911F910F91FF9008950C
:1032D000FF920F931F93CF93DF93C82FD62F142FF6
:1032E000F22E022F242F462F682F87EB94E022DB4B
:1032F000882351F02F2D412F6D2F8C2FDF91CF91EF
:103300001F910F91FF9085CEDF91CF911F910F916B
:10331000FF9008958F929F92AF92BF920F931F9349
:10332000CF93DF93CDB7DEB7A1970FB6F894DEBF8A
:103330000FBECDBF19A2423008F44AE08E010F5DE6
:103340001F4F842E912CA12CB12CA501940127D6BE
:10335000E62FB901CA0101501109EA3014F4E05D09
:1033600001C0E95CD801EC93232B242B252B69F7B2
:10337000B80183EB94E066DAA1960FB6F894DEBF4D
:103380000FBECDBFDF91CF911F910F91BF90AF9036
:103390009F908F900895CF92DF92EF92FF92CF93FC
:1033A000DF936B017C016DE283EB94E0E5DAEC01E5
:1033B00066277727CB016C197D098E099F094AE0A2
:1033C000A9DF8C0F9D1FDF91CF91FF90EF90DF90D1
:1033D000CF900895CF93DF93282F30E0F901E7587D
:1033E000F04E8491F901ED5CF04ED491F901E35176
:1033F000F14EC491CC2389F08111F5DCEC2FF0E083
:10340000EE0FFF1FED52F14EA591B491EC91ED231B
:1034100081E090E021F480E002C080E090E0DF9164
:10342000CF9108951F93CF93DF93282F30E0F901B8
:10343000E758F04E8491F901ED5CF04ED491F9011A
:10344000E351F14EC491CC23B9F0162F8111CBDC9E
:10345000EC2FF0E0EE0FFF1FE754F14EA591B49171
:103460009FB7F894111104C08C91D095D82302C055
:10347000EC91DE2BDC939FBFDF91CF911F910895DC
:10348000CF93DF9390E0FC01ED5CF04E2491FC01C2
:10349000E351F14E8491882361F190E0880F991FE8
:1034A000FC01E156F14EC591D491FC01E754F14E77
:1034B000A591B491611109C09FB7F89488812095B6
:1034C00082238883EC912E230BC0623061F49FB776
:1034D000F8948881322F309583238883EC912E2BAA
:1034E0002C939FBF06C08FB7F894E8812E2B2883BA
:1034F0008FBFDF91CF9108958F929F92AF92BF922D
:10350000CF92DF92EF92FF926B017C01FDDB4B01CA
:103510005C01C114D104E104F104E9F0F5DBDC0144
:10352000CB0188199909AA09BB09883E9340A105D6
:10353000B10578F321E0C21AD108E108F10888EE5C
:10354000880E83E0981EA11CB11CC114D104E104B3
:10355000F10421F7DECFFF90EF90DF90CF90BF9086
:10356000AF909F908F900895CF93DF9300D000D0BD
:10357000CDB7DEB7789484B5826084BD84B58160B0
:1035800084BD85B5826085BD85B5816085BD80912E
:103590006E00816080936E001092810080918100A6
:1035A000826080938100809181008160809381009E
:1035B000809180008160809380008091B100846060
:1035C0008093B1008091B00081608093B0008091C1
:1035D000910082608093910080919100816080933E
:1035E0009100809190008160809390008091A10073
:1035F00082608093A1008091A10081608093A100EE
:103600008091A00081608093A00080912101826060
:10361000809321018091210181608093210180911B
:10362000200181608093200180917A0084608093E2
:103630007A0080917A00826080937A0080917A008B
:10364000816080937A0080917A00806880937A000C
:103650001092C10062E081E213DF62E089E210DFD4
:1036600062E080E20DDF62E085E20ADF60E08FE287
:1036700007DF60E081E304DF61E08BE201DF61E00E
:103680008BE2D0DEE0912604F091270482E0808373
:10369000E0912204F09123041082E0912404F0913F
:1036A000250480E1808310922E04E0912A04F09199
:1036B0002B0486E08083E0912804F0912904808126
:1036C00080618083E0912804F091290480818860E2
:1036D0008083E0912804F0912904808180688083B0
:1036E000E0912804F091290480818F7D808380916E
:1036F0007B00877F80937B0080E480937C008091B7
:103700007A00806480937A0080917A0086FDFCCFF5
:10371000609178008091790070E0782B072E000C82
:10372000880B990B611571058105910509F002D48B
:10373000E9DC0EE112E38BE19DE04CDD1092EE043A
:103740000093EF046DE372E083EB94E07BD810927A
:10375000EE041093EF0466E472E083EB94E072D819
:1037600088E591E037DDFEDC8111E5CF68EE73E09E
:1037700080E090E0C1DEB3E67B2E16E1612E81E2AF
:1037800029DE892BA1F080E225DE892B81F089E2F8
:1037900021DE892B61F085E21DDE892B41F08FE26D
:1037A00019DE892B21F081E315DE892B41F78FE0AB
:1037B00090E0909344038093430390937C02809322
:1037C0007B022EE030E03093460320934503909334
:1037D0007E0280937D022DE030E0309348032093F9
:1037E00047039093800280937F0224EB30E0309374
:1037F0000C0420930B0463E672E086E194E022D887
:103800006AE672E086E194E01DD8BED905E210E0D8
:10381000E0900B04F0900C0475DCF5E09F2EA4EB17
:103820002A2E312C2E183F08032C000C4408550872
:103830002EE342E660E080E01ADD82E098E1CADC37
:103840007092EE042CE02093EF0467E572E083EBC6
:1038500094E00E9422147092EE046092EF04809132
:103860000002909101020397989EB001999E700DFD
:103870001124072E000C880B990B97FF02C08BDDDB
:1038800002C04AE047DD7092EE043EE23093EF045E
:103890006DE572E083EB94E00E9422147092EE04D6
:1038A00068E36093EF0457FE04C0C201B10173DD09
:1038B00004C04AE0C201B1012DDD60917702862F7C
:1038C000880F680F6F5F80917902982F990F890F89
:1038D00023E043E08F5FCBDC8BE792E09A83898320
:1038E000A3E4B3E0BC83AB836D015C01E12CF12C5C
:1038F0008091000290910102E816F90664F5E11446
:10390000F10481F460917B02862F880F680F6F5F4E
:1039100080914303982F990F890F23E043E08F5F35
:10392000D7DC0FC0F5016081862F880F680F6F5FAD
:10393000D6018C91982F990F890F23E043E08F5F78
:1039400096DCBFEFEB1AFB0AE2E0AE0EB11CF2E030
:10395000CF0ED11CCDCF06DC81116ACF60910B0454
:1039600070910C0480E090E0C7DD81E233DD892BAB
:1039700009F4ECC089E22EDD892B89F080E22ADD92
:10398000892B09F4E9C085E225DD892B09F4E9C01A
:103990008FE220DD892B49F081E31CDD06C0013276
:1039A000110509F0E2C000E210E08091430390911C
:1039B000440320917B0230917C020132110589F091
:1039C00034F400321105A9F4FC01319710C005321E
:1039D000110559F00932110561F4B9016F5F7F4F8C
:1039E00009C0B9016150710905C0FC013196B901E6
:1039F00002C0B901FC014091790250917A024E1740
:103A00005F0709F0B8C0A0907702B0907802A616C0
:103A1000B70609F0B0C020910002309101024901BF
:103A20006FEF861A960A90920102809200024DB6BC
:103A30005EB6C9010396880F991FADB7BEB7A81B24
:103A4000B90B0FB6F894BEBF0FBEADBF1196EDB760
:103A5000FEB7E81BF90B0FB6F894FEBF0FBEEDBF23
:103A600031961D01BF017D0180E090E08217930730
:103A7000B4F4AB81BC81CD90DD90BC83AB83D70126
:103A8000CD92DD927D01A981BA81CD90DD90BA837E
:103A9000A983DB01CD92DD92BD010196E7CF509362
:103AA000440340934303B0927C02A0927B0245E41E
:103AB00053E02DE732E081E090E08815990584F429
:103AC000D1016D917D911D01DA016D937D93AD0161
:103AD00061917191D9016D937D939D010196EDCF17
:103AE0000FB6F8945EBE0FBE4DBE4ED88091000258
:103AF000909101028A30910534F4E4EBF0E0F09308
:103B00000C04E0930B049C012A5031092431310547
:103B100030F426E930E030930C0420930B049C0130
:103B20002E5131092431310538F488E790E0909323
:103B30000C0480930B046CCEC2970CF469CE24E67F
:103B400030E030930C0420930B0462CE093211054F
:103B500061F001E210E029CF0532110509F023CF11
:103B600007C00032110521F41ECF09E210E01DCF7D
:103B700005E210E01ACF8032910508F524313105B5
:103B8000F0F4809000029090010275E4272E73E01B
:103B9000372ED101EBE7F2E041E050E0481559053E
:103BA00084F46D917D918617970729F46281738162
:103BB0002617370721F04F5F5F4F3296EFCF40D87F
:103BC000DECD4DB65EB6A4014E5F5F4F440F551F6C
:103BD0006DB77EB7641B750B0FB6F8947EBF0FBE32
:103BE0006DBFEDB7FEB73196ADB7BEB7A41BB50B31
:103BF0000FB6F894BEBF0FBEADBF1196FE83ED8326
:103C0000BD015F0140E050E07401E1E0EE1AF1080F
:103C10004E155F05BCF4EB81FC81C190D190FC8313
:103C2000EB83F501C192D1925F01E981FA81C190E4
:103C3000D190FA83E983FB01C192D192BF014F5F1A
:103C40005F4FE6CF01321105B9F02CF400321105B7
:103C500071F4019708C00532110521F009321105F0
:103C600071F005C0019690934403809343032DE7C0
:103C700032E081E090E00AC02150310902C02F5F9C
:103C80003F4F30937C0220937B02F1CF881599053A
:103C900094F4ED81FE8141915191FE83ED83F10118
:103CA000419351931F014D915D91F90141935193BE
:103CB0009F010196EBCF0FB6F8945EBE0FBE4DBECE
:103CC000A7CD109219041092180488EE93E0A0E09A
:103CD000B0E080931A0490931B04A0931C04B0934B
:103CE0001D0488E192E0909317048093160485ECFC
:103CF00090E0909323048093220484EC90E09093CE
:103D000025048093240480EC90E090932704809312
:103D1000260481EC90E0909329048093280482EC9F
:103D200090E090932B0480932A0486EC90E090938B
:103D30002D0480932C0410922F04109230041092C2
:103D40003104109232041092B6041092B5048AE243
:103D500092E09093B4048093B3041092EE04109216
:103D6000EF041092F0041092BC041092BB04109265
:103D7000BE041092BD041092C00481E08093BF0481
:103D800082E28093C1041092C6041092C504EAED49
:103D9000F4E088EE94E02FEF21938E179F07E1F770
:103DA00081E08093D7042EE631E13093CD04209357
:103DB000CC048093CE041092CF041092D00480E4FF
:103DC0008093D1041092D20481E291E19093E904AE
:103DD0008093E8048AE092E09093BA048093B90457
:103DE0008EE18093DE0483E28093DF048AE2809395
:103DF000DC048CE28093DB048FEF8093DA0449D8F3
:103E00008AE292E09093B4048093B30408958F9271
:103E10009F92AF92BF92CF92DF92EF92FF92CF9399
:103E2000DF93EC01688179818A819B81611571053D
:103E30008105910521F464E279ED8BE597E02DE1B0
:103E400033EF41E050E07FD049015A019B01AC01C2
:103E5000A7EAB1E494D06B017C01ACEEB4EFA5010C
:103E6000940199D0DC01CB018C0D9D1DAE1DBF1DB1
:103E7000B7FF03C00197A109B04888839983AA833B
:103E8000BB83BC01CD019F77DF91CF91FF90EF9075
:103E9000DF90CF90BF90AF909F908F9008958F92BA
:103EA0009F92AF92BF92CF92DF92EF92FF9260917A
:103EB000100270911102809112029091130261150B
:103EC00071058105910521F464E279ED8BE597E0B8
:103ED0002DE133EF41E050E036D049015A019B011A
:103EE000AC01A7EAB1E44BD06B017C01ACEEB4EFBE
:103EF000A501940150D0DC01CB018C0D9D1DAE1DA0
:103F0000BF1DB7FF03C00197A109B04880931002FD
:103F100090931102A0931202B0931302BC01CD0141
:103F20009F77FF90EF90DF90CF90BF90AF909F90E2
:103F30008F90089560931002709311028093120283
:103F4000909313020895052E97FB16F400940FD05A
:103F500057FD05D024D007FC02D046F408C0509588
:103F60004095309521953F4F4F4F5F4F0895909565
:103F70008095709561957F4F8F4F9F4F089531D0F9
:103F8000A59F900DB49F900DA49F800D911D1124AD
:103F90000895B7FFF4CFF3DF821B930B0895A1E2DE
:103FA0001A2EAA1BBB1BFD010DC0AA1FBB1FEE1FB3
:103FB000FF1FA217B307E407F50720F0A21BB30BFE
:103FC000E40BF50B661F771F881F991F1A9469F77A
:103FD00060957095809590959B01AC01BD01CF01D6
:103FE0000895A29FB001B39FC001A39F700D811DD2
:103FF0001124911DB29F700D811D1124911D0895F2
:10400000EE0FFF1F881F8BBF0790F691E02D1994CC
:0C40100081E090E0F89400C0F894FFCF2D
:10401C000300084000000080F10480120202BA1371
:10402C0001000000000000007C1058161410C8108D
:10403C0045102310371000000000BC145816AE13A6
:10404C00AD1347414D45204F564552210055464131
:10405C0043544F525900202020202020436F6E746F
:10406C00726F6C6C65720053636F72650053706590
:0E407C00656400736E616B6521000D0A000023
:00000001FF
